:100000000C942B030C9448030C9448030C94480361
:100010000C9448030C9448030C9448030C94480334
:100020000C9448030C9448030C948A0B0C94B60F60
:100030000C94391B0C9448030C9448030C9448030B
:100040000C9448030C9448030C9448030C94480304
:100050000C9448030C94630C0C9448030C944803D0
:100060000C9448030C9448030C9448030C944803E4
:100070000C9448030C9448030C9448030C944803D4
:100080000C9448030C9448030C9448030C944803C4
:100090000C9448030C9448030C9448030C944803B4
:1000A0000C9448030C9448030C944803050109027E
:1000B000A10185020901A1000509190129081500FE
:1000C0002501950875018102050109300931158165
:1000D000257F95027508810609381581257F9501D0
:1000E00075088106050C0A38021581257F95017572
:1000F000088106C0C005010980A101850319012AF4
:10010000B700150126B700950175108100C0050CD8
:100110000901A101850419012AA002150126A002E6
:10012000950175108100C005010906A1018506052C
:100130000719E029E71500250195087501810205D9
:1001400007190029EF1500250195F07501810205B9
:10015000081901290595057501910295017503910D
:1001600001C00660FF0961A1010962150026FF00B8
:100170009520750881020963150026FF00952075FA
:10018000089102C005010906A101050719E029E748
:1001900015002501950875018102950175088101F9
:1001A0000507190029FF150026FF0095067508812F
:1001B000000508190129059505750191029501753C
:1001C000039101C0000000000000000000000000DA
:1001D000000000000000000000000000000000001F
:1001E00000000000000000007E0F00D4FFFFFFC7EA
:1001F0000000007800000000000000002A2B28000A
:1002000000000000000000000000000000000029C5
:10021000000000002C1E3420212224342627252E05
:10022000362D3738271E1F2021222324252633333D
:10023000362E37381F0405060708090A0B0C0D0E69
:100240000F101112131415161718191A1B1C1D2F35
:100250003130232D350405060708090A0B0C0D0E55
:100260000F101112131415161718191A1B1C1D2F15
:100270003130354C35001E001F00200021002200C7
:1002800050004F00230024002500260027002A00EC
:100290002B0014001A000800150017002D002F0075
:1002A0001C0018000C001200130031003944040037
:1002B0001600070009000A00000000000B000D00F6
:1002C0000E000F0033003400E1001D001B0006008B
:1002D000190005002E003000110010003600370014
:1002E0003800E50029000000E000E200E300000023
:1002F000000000000000E700E600E4000000BD523E
:10030000000028002A002C00620000520152510017
:10031000520050002C002A004F00000001003A005B
:100320003B003C003D003E00440045003F004000D3
:1003300041004200430001000100010001000100F2
:100340000100310201000100010001000100010073
:100350000100010001000100010001000100010095
:100360000000000001000100010001000100010087
:10037000010001000100010001003502010001003F
:100380000100010001000100010001000100010065
:100390000100010001000000000000000000010059
:1003A0000100010001000100000001000100010046
:1003B0005900005202520100010001000100010039
:1003C0000100000001000100010001000100010026
:1003D0000100010001000100010001000100010015
:1003E0000100010001000100010001000100010005
:1003F00001000100010001000100010001000100F5
:1004000001000100010001000000000001000100E6
:1004100001000100010001000100010001000100D4
:1004200001000100010001000100010001000100C4
:1004300001000100010001000100010001000000B5
:1004400000000000000001000100010001000100A7
:1004500000000100010001005A0000520352010097
:100460000100010001000100010000000100010085
:100470000100010001000100010001000100010074
:100480000100010001000100010001000100010064
:100490000100010001000100010001000100010054
:1004A0000100010001000100010001000100010044
:1004B0000000000001000100010001000100010036
:1004C0000100010001000100010001000100010024
:1004D0000100010001000100010001000100010014
:1004E0000100010001000000000000000000010008
:1004F00001000100010001000000000001000100F6
:100500005B000052045201000100010001000100E3
:100510000100000000001E061F062006210622061C
:1005200052010000230624062506260627060000A1
:1005300000000000000052001506170650010000E0
:100540000000000000000000130600000000000092
:10055000500051004F00000000000000500051000A
:1005600052004F00000000000002000000000000E8
:10057000000000004F0100001106100600000000FE
:100580000000000000000000A152A452A852000088
:10059000000000000000B852B452B1520000000048
:1005A0000000027C000000005C0000520000AA0075
:1005B000A900BD0000000000BE00000009025B00B1
:1005C000030100A0FA090400000103010100092150
:1005D0001101000122400007058103080001090400
:1005E0000100020300000009211101000122220084
:1005F0000705820320000107050303200001090409
:100600000200010300000009211101000122B600CF
:100610000705840320000112010002000000080900
:100620001228230100010200011203450072006735
:10063000006F0064006F006E006500000012034B45
:10064000002E0054002E0045002E0043002E000016
:1006500000040309040011241FBECFEFDAE0DEBF5F
:10066000CDBF11E0A0E0B1E0E0E4F5E402C0059008
:100670000D92A235B107D9F722E0A2E5B1E001C0A1
:100680001D92A937B207E1F70E94601B0C944C221F
:100690000C940000482F2091750290913C0257E085
:1006A000291302C080E0089530E0529FF001539F6B
:1006B000F00D1124E35CFD4F8181681306C0808139
:1006C000481303C085818111EECF2F5F3F4F277004
:1006D000E7CFE8EDF0E080818E7F80831092E2002A
:1006E0001092DA001092E100A0EEB0E08C918160EF
:1006F0008C9380818F77808319BCA7EDB0E08C91BB
:100700008E7F8C9380818F7E808310920D0208955E
:100710002091E4003091E50095E6A9012091EC00DC
:10072000822F817020FF06C08091E80080FF06C004
:1007300080E008952091E80022FD1AC080913202E5
:10074000882389F0853089F08091EB0085FD0FC00A
:100750002091E4003091E50042175307F9F29150DF
:10076000E1F684E0089582E0089583E0089581E051
:1007700008958091340287FF13C08091E80082FFC2
:1007800006C08091E8008B778093E80004C08091D8
:1007900032028111F2CF0895809132028823D9F379
:1007A0008091E80080FFF8CF8091E8008E77ECCF51
:1007B000982F9093E900242F762F50E0891731F07D
:1007C0007091EC002091ED005091F00021FD07C0E8
:1007D0009F5F973071F78093E90081E00895309131
:1007E000EB003E7F3093EB003091ED003D7F309386
:1007F000ED003091EB0031603093EB007093EC0032
:100800002093ED005093F0002091EE0027FDE0CF03
:1008100080E00895B0E0A0E0E0E1F4E00C949F21D6
:10082000C8EDD0E088818F7E8883E7EDF0E080819D
:100830008160808384E082BF81E080930D028881A3
:100840008E7F888302EE10E0F80110821092DA00A9
:1008500081EEC82ED12CF601108288818F77888393
:1008600088818068888388818F7D888319BC1092F5
:10087000320210923302109231021092300290EE46
:10088000E92EF12CF70180818B7F80838881816044
:10089000888342E060E080E00E94D803F601808116
:1008A0008E7F8083F8018081816080838081886071
:1008B0008083F70180818E7F808388818061888337
:1008C000CDB7DEB7E8E00C94BB21FC0180913A0281
:1008D00090913B0286179707A0F06115710529F4E6
:1008E0009091E8009E779093E80090E06115710583
:1008F00051F4911108C08091E80082FF34C080E07B
:100900000895BC01F2CF809132028823C1F1853075
:10091000C1F18091E80083FD30C08091E80082FD44
:10092000EACF8091E80080FFE1CF8091F300209131
:10093000F200382F6115710519F02830310558F093
:1009400091E02830310509F090E02091E8002E7701
:100950002093E800CBCF81918093F1006150710921
:100960002F5F3F4FE7CF80913202882341F08530DF
:1009700041F08091E80083FFBECF81E0089582E0DE
:10098000089583E0089580910F02089587E797E71F
:10099000909301088093000888E19AE00FB6F894DC
:1009A000A895809360000FBE90936000FFCF2091C8
:1009B00008012223C9F020910B0227FF15C0E62F62
:1009C000E695E695E695EE31D8F4E80FF92FF11D9E
:1009D000677021E030E001C0220F6A95EAF72095A8
:1009E0008281282322830895FC0132960896219162
:1009F000621303C0DF0111971C92E817F907B9F7DA
:100A00000895209108012223C1F020910B0227FFB5
:100A100014C0E62FE695E695E695EE31F8F4E80F7A
:100A2000F92FF11D677021E030E001C0220F6A95B7
:100A3000EAF78281822B82830895FC0132962FEFA0
:100A400030E04191641751F02F3F19F4411101C07A
:100A5000232F3F5F3630A9F72F3F09F40895820F07
:100A6000911D27FD9A95FC0162830895A3E0B0E0F3
:100A7000ECE3F5E00C94A5212091040230910502ED
:100A800028173907A1F09093050280930402E091A2
:100A90000202F0910302309751F024E029839B83F6
:100AA0008A830680F781E02DCE0101960995239671
:100AB000E2E00C94C121A3E0B0E0E1E6F5E00C94A3
:100AC000A521209100023091010228173907A1F0D9
:100AD0009093010280930002E0910202F0910302E0
:100AE000309751F023E029839B838A830680F78126
:100AF000E02DCE01019609952396E2E00C94C121E8
:100B0000E0910202F0910302309729F00190F08108
:100B1000E02D0995089580E008958091F50180FD0C
:100B200016C081FD16C082FD16C08091F401882395
:100B3000A1F0883280F428E0829FC001112468E28D
:100B400070E00E94CC21862F672B39F0089582E057
:100B5000089584E0089588E0089581E008958091E3
:100B6000F50180FD14C081FD14C082FD16C0809186
:100B7000F301882381F08E3180F420E5829FC0014B
:100B800011246EE170E00E94CC21862F089584E14B
:100B9000089588E2089588E0089580E5089580E04A
:100BA000089590910B0292FF06C0282F28712830DB
:100BB000F9F4877F846093FF06C0282F28712831BD
:100BC000F1F4877E846120910C0220FF06C0382F4B
:100BD00038713830D9F4877F816021FF06C0282F13
:100BE00028712831D1F4877E816194FD877E089534
:100BF000282F24712430F9F68B7F8860DCCF282FD2
:100C00002471243101F78B7E8861DDCF382F31715B
:100C1000313019F78E7F8860E0CF282F2171213184
:100C200021F78E7E8861E1CF82389105B9F1B0F469
:100C30008133910509F47DC048F48932910509F4A6
:100C40006DC08A32910509F47BC008958533910502
:100C500009F45FC08933910509F10895833E910538
:100C6000D9F138F4803E910529F1823E910579F160
:100C70000895863E9105D9F1873E910509F43EC05D
:100C8000843E910541F520910C0221FF24C0809102
:100C90000B0284FD19C087EE90E0089520910B02AD
:100CA000237009F05AC020910C0223FF14C089E27E
:100CB00090E0089520910B0220FD38C030910C0285
:100CC00030FF09C024FF43C090E080E008952091E8
:100CD0000B0222FDF7CF089520910B0222FD3AC0AE
:100CE00030910C0230FD39C024FFF5CFEDCF2091BB
:100CF0000B0223FFF0CF24FDE7CFCDCF20910B02D5
:100D000023FD2EC030910C0231FFEECF84EE90E037
:100D1000089520910B0225FFDECFC9CF20910B0251
:100D200025FD21C020910C0223FFD5CF89E390E05F
:100D3000D2CF20910B0226FFCECF8AE290E0089519
:100D400020910B0226FFC7CF81E390E0089583EE48
:100D500090E0089582EE90E0089580EE90E008958E
:100D600086EE90E0089585E390E008951F93CF9379
:100D7000DF930E941406EC01C11580E5D807F0F559
:100D8000C11580E4D80708F09CC0C03ED10520F50D
:100D9000CD3CD10508F082C0C83AD10578F4C53AF7
:100DA000D10508F073C0C130D10519F1209709F1C0
:100DB000C430D105F0F4D0E0C0E01BC0C33CD10585
:100DC000D0F7C85AD0E0CC0FDD1FC45FDE4F0990CA
:100DD000D881C02DD4640DC0C11580E2D80708F0B9
:100DE000D1C0C11581E0D80708F05AC0C83ED1056E
:100DF00010F7CE01DF91CF911F910895C03682E5A3
:100E0000D80718F5C03482E5D80708F06BC0C032A7
:100E100082E5D80708F05FC0C11582E5D80708F45D
:100E200097C02C2F2695269580E2289F90011124AB
:100E30008C2F8370C1E0D0E002C0CC0FDD1F8A95FB
:100E4000E2F7C22BD32BDD68D4CFC03A82E5D807B6
:100E500060F4C03882E5D80708F459C0CF71D0E0FB
:100E6000DC2FCC27C46FD06AC4CFC03C82E5D80742
:100E700008F462C0C03E82E5D80708F09CCFDC2FA2
:100E8000CC27CC27DF71C06FD06AB3CFC55AD0E072
:100E9000C75FDE4FC881D0E0D064ABCFD065A9CFAB
:100EA0008D2F0E94D105182FCE0199270E9414067C
:100EB000C12FD0E0DC2FCC27CC27DF71C82BD92B5A
:100EC00098CFCE0199270E941406CC27DF70C82B3B
:100ED000D92BD06A8ECFCF71D0E0DC2FCC27C16F59
:100EE000D06A87CF2C2F26952695277080E2289FE1
:100EF000900111248C2F8370C1E0D0E002C0CC0F90
:100F0000DD1F8A95E2F7C22BD32BDC6872CF2C2F22
:100F100026952695277080E2289F900111248C2F1A
:100F20008370C1E0D0E002C0CC0FDD1F8A95E2F7EC
:100F3000C22BD32BDA685DCF8C2F8F710E94D10525
:100F4000C82FD0E0DC2FCC27CC27DF71D06251CF67
:100F50008C2F8F710E94D10555E0D695C7955A9573
:100F6000E1F7CF70D0E0DC2FCC27282F30E084FFD2
:100F700005C044E0220F331F4A95E1F7C22BD32B63
:100F8000D06937CF8D2F8F710E94D105182FCE01D8
:100F900099270E941406C12FD0E0DC2FCC27CC2744
:100FA000DF71C82BD92BD2CF80959091C1019823A6
:100FB0009093C10108958091750290913C0298131D
:100FC00001C008958F5F8770FACF292F963078F58A
:100FD0008E3068F590E03EE0239F800D911D112436
:100FE000682F677023E0969587952A95E1F7FC01B5
:100FF000EE0FFF1FE80FF91FEA58FE4F50E040E0E8
:1010000080E0219130E0062E02C0369527950A94A3
:10101000E2F721703327042E01C0220F0A94EAF769
:10102000822B4F5F5F4F4330510559F7089580E0A1
:101030000895292F963098F58E3088F590E03EE09F
:10104000239F800D911D1124282F277041E001C09E
:10105000440F2A95EAF723E0969587952A95E1F7BC
:10106000FC01EE0FFF1FE80FF91FEA58FE4F30E0BA
:1010700020E070E05191DF011197CB01022E02C0F8
:10108000969587950A94E2F7817081958527842348
:1010900085278C932F5F3F4F2330310559F70895F3
:1010A0008093D80108959091D80121E030E0F901B2
:1010B00001C0EE0F8A95EAF7D90102C0AA0FBB1F43
:1010C0006A95E2F7EA2B01C0220F4A95EAF7892FC9
:1010D0008E23E81305C0292B822F0E945008089503
:1010E00020952923F9CF21E030E001C0220F8A9515
:1010F000EAF720958091D80182230E945008089534
:1011000090919E018095892380939E01282F2770BE
:1011100069F4891759F090910C0292FF07C08695E7
:10112000869586950E94730810929E01089521E08D
:1011300030E001C0220F8A95EAF78091D801822B16
:101140000E94500808958093D701089580FF09C038
:101150002D9A81FF08C02E9A82FF07C02B9A81E04A
:1011600008952D98F6CF2E98F7CF2B98F8CF82952B
:1011700090E09C01220F331F220F331F2C7C95958A
:101180008795959587958373282B30E0C901880F43
:10119000991F8A7A359527952575822B0895559A3A
:1011A0005D9A0895239A2B980895269A2E9808956B
:1011B000259A2D980895A1E0B0E0E1EEF8E00C94B6
:1011C000A22169832DE0F22E811102C09CE0F92E4C
:1011D00004E610E021E030E0AE014F5F5F4F682F82
:1011E00080E40E941121892B61F421E030E0AE01FE
:1011F0004F5F5F4F6F2D80E40E94112121E0892B0A
:1012000009F020E0822F2196E5E00C94BE21809128
:10121000C60181110BC06FEF81E00E94DB0891E0F5
:1012200089279091C601980F9093C6010895CF9396
:101230006FEF80E00E94DB08C1E08C279091C6012F
:10124000980F9093C6016FEF81E00E94DB088C2716
:10125000C091C601C80FC093C601CF9108950F93E6
:101260001F93CF93DF938B01EA0190913202943068
:1012700061F58093E9008FEF9091E800815095FD32
:1012800006C095ED9A95F1F700008111F5CF809198
:10129000E80085FF1AC00E948803811111C0809167
:1012A000E80085FD06C08091E8008E778093E80015
:1012B000F2CFF80181918F018093F100219779F7A6
:1012C0008091E8008E778093E800DF91CF911F91A5
:1012D0000F91089543E050E0BC0184E00E942F0983
:1012E000089546E050E0BC0184E00E942F09089573
:1012F000CF93DF93EC0180910801811111C048E088
:1013000050E0BE0181E00E942F0980E2FE01A0E1D1
:10131000B2E001900D928A95E1F7DF91CF910895A7
:1013200080910B0287FF05C040E284E050E0BE01DF
:10133000EACF48E081E0FACFCF93DF93C1E7D3E073
:1013400060E0CE010E940B222196C11584E0D807EF
:10135000B9F7DF91CF9108951F93CF93DF93122FA9
:101360008530E0F46630D0F44E30C0F4C42FD0E0C5
:10137000CC0FDD1F9CE1699FC00DD11D112498EA9F
:10138000899FC00DD11D1124632FCE0189960E9423
:101390000B22612FCE018A960E940B22DF91CF9102
:1013A0001F910895AF92BF92CF92DF92EF92FF927A
:1013B0001F93CF93DF9384E7C82E82E0D82ED0E02E
:1013C0007601C0E014C0F50125913491412F6C2FB6
:1013D0008D2F0E94AC0982E0A80EB11C1F5F1E3049
:1013E00091F78CE1E80EF11CCF5FC63019F0570180
:1013F00010E0E9CFDF5F88EAC80ED11CD53001F7D5
:10140000DF91CF911F91FF90EF90DF90CF90BF9031
:10141000AF900895CF93C82F6FEF811163E285E2FB
:1014200090E00E940B226FEFC11166E086E290E02F
:101430000E940B226FEFC11165E287E290E00E94EB
:101440000B22CF91089580E00E940A0A60E088E2B2
:1014500090E00E940B220E94D2090E949C0981E028
:101460000E940A0A08950F931F93CF93DF9385304C
:1014700030F5663020F54E3010F5C42FD0E0CC0F9B
:10148000DD1F2CE1629FC00DD11D112438EA839F1E
:10149000C00DD11D1124CE0189960E94ED21082F87
:1014A00010E0102F0027CE018A960E94ED219801AE
:1014B000282BC901DF91CF911F910F91089590E0E2
:1014C00080E0F8CF462F763040F46E3030F485302F
:1014D00020F4672F0E94330A089590E080E0089579
:1014E000CF92DF92FF920F931F93CF93DF936C0104
:1014F0000091D8018091D701082BC4E0D0E010E022
:10150000FC2EC8010C2E02C0959587950A94E2F72F
:1015100080FD0CC02197A0F7F12C8F2DDF91CF918A
:101520001F910F91FF90DF90CF900895B6018C2FFF
:101530000E94620A0E94B606019761F3EECFCF9334
:10154000DF93EC010E94700ABE010E94620A0E94B1
:10155000B606DF91CF910895FC0124812223C1F0CA
:10156000808191810E949F0A92959F70963091F0A0
:1015700058F4925F9F70923058F4803F19F030F425
:10158000883E30F481E008959A5FF4CF843FD1F330
:1015900080E00895883EB0F3813FD1F7F3CFA6E015
:1015A000B0E0E5EDFAE00C94A42149835A83498127
:1015B0005A819923A1F0222391F0CA010E94700A56
:1015C000182F682F89819A810E94190869817A8170
:1015D000812F0E94620A2696E3E00C94C021CA0182
:1015E0000E94E507182FF2CF85E290E00E94ED21DE
:1015F000833289F486E290E00E94ED21863059F42E
:1016000087E290E00E94ED2191E0853209F090E0C0
:10161000892F8170089580E0FCCF8091C101909165
:10162000C001892B809354019091BF019923A1F0AF
:10163000892B80935401809108018823E1F18091E6
:101640000B0287FF38C08EE1E6E5F1E090E08150C3
:10165000A0F591111092BF0140E250E06FE971E0F6
:1016600084E591E00E943F22892B21F180E2E4E5AC
:10167000F1E0AFE9B1E001900D928A95E1F7E091D8
:101680000202F09103023097A9F0809108018823AB
:1016900059F080910B0287FF07C08091540180931D
:1016A000550186E0809354010280F381E02D84E5AA
:1016B00091E00995089586E0C7CF2191222339F260
:1016C0009F5FC5CF882321F00E94D4070E940D0B95
:1016D0000895882339F09091C101982B9093C1010E
:1016E0000E940D0B089590910C0292FB222720F985
:1016F000281779F080FB92F990930C0260910B020D
:1017000070910C0284E090E00E94292282E00E9405
:10171000800808951F920F920FB60F9211242F93F5
:101720003F934F935F936F937F938F939F93AF9369
:10173000BF93EF93FF938091E10082FF09C08091F6
:10174000E20082FF05C08091E1008B7F8093E10081
:101750008091DA0080FF24C08091D80080FF20C0F3
:101760008091DA008E7F8093DA008091D90080FF2B
:101770009DC080E189BD82E189BD09B400FEFDCF35
:1017800081E08093320280910D02811109C00E9494
:1017900069030E940A048091E20084608093E20061
:1017A0008091E10080FF17C08091E20080FF13C0AC
:1017B0008091E2008E7F8093E2008091E200806160
:1017C0008093E2008091D80080628093D80019BC99
:1017D00085E0809332028091E10084FF2BC08091EC
:1017E000E20084FF27C080E189BD82E189BD89B51F
:1017F000982F917080FFFBCF8091D8008F7D8093D0
:10180000D8008091E1008F7E8093E1008091E2001A
:101810008F7E8093E2008091E20081608093E200FD
:1018200080913302882309F447C084E08093320218
:10183000809132028091E10083FF27C08091E20015
:1018400083FF23C08091E100877F8093E10082E0E5
:1018500080933202109233028091E1008E7F809358
:10186000E1008091E2008E7F8093E2008091E200AF
:1018700080618093E20042E060E080E00E94D80353
:101880008091F00088608093F000FF91EF91BF910C
:10189000AF919F918F917F916F915F914F913F9108
:1018A0002F910F900FBE0F901F90189519BC10929A
:1018B000320210920D0274CF8091E30087FD93E015
:1018C00090933202B5CF78941F921FB61F921124C5
:1018D0008F939F93AF93BF938091070290910802DB
:1018E000A0910902B0910A020196A11DB11D809339
:1018F000070290930802A0930902B0930A02BF91D5
:10190000AF919F918F911F901FBE1F9018959C01C2
:101910004FB7F8948091070290910802A0910902B4
:10192000B0910A024FBF821B930B08952FB7F89412
:101930008091070290910802A0910902B0910A02D9
:101940002FBF08950E94960C9C019091FC018091FC
:10195000FD01982B21F03093F9012093F80190912B
:10196000FE018091FF01982B21F03093F701209325
:10197000F601E0910202F0910302309749F082E013
:101980008093FA010480F581E02D8AEF91E00995BA
:1019900008951092C10180910801E6E5F1E08823E5
:1019A00029F180910B0287FF21C08EE1DF011D929A
:1019B0008A95E9F790E080E00E945B0590E080E086
:1019C0000E9436051092C0010E940D0B86E0EAEFDE
:1019D000F1E0DF011D928A95E9F71092F301109270
:1019E000F4011092F5010E94A20C089586E0DECF6A
:1019F000AAE2B0E0EEEFFCE00C94A42184E392E0D4
:101A00002091F100DC012D93CD01B2E08C339B07D6
:101A1000B9F780913502833009F472C0B8F481308F
:101A200009F449C0823009F4B3C08091E80083FF13
:101A30008BC280913402909135029A3008F084C2B2
:101A4000E92FF0E0E25BFD4D0C94E0218A3009F4CF
:101A50008EC08B3009F471C0893039F7809134021F
:101A6000813219F78091380290913902009711F074
:101A70000297D9F68091E800877F8093E8008091F3
:101A8000E80082FF38C09091F3008091F200029745
:101A900031F48091F100813011F0863021F4809191
:101AA000F10080930F028091E8008B778093E8002B
:101AB0000E94B903BACF80913402813A09F0B5CFC0
:101AC0008091E800877F8093E800809138029091B0
:101AD0003902892B61F460E280E192E070E00E94BB
:101AE00065048091E8008B778093E8009ECF60E0EA
:101AF00090E080E0F3CF809132028111C0CF95CF8A
:101B000080913402813A09F090CF8091380290910F
:101B10003902892B09F089CF8091E800877F809373
:101B2000E8008091E80080FFFCCF8091080180935D
:101B3000F1008091E8008E77B9CF80913402813234
:101B400009F073CF8091380290913902892B09F006
:101B50006CCF8091E800877F8093E8000E94B903F2
:101B600080913602809308010E94C90C5ECF80915B
:101B70003402813209F059CF8091E800877F809349
:101B8000E8000E94B9038091370280930E024DCF86
:101B900080913402813A09F048CF8091E800877F34
:101BA0008093E8008091E80080FFFCCF80910E02D6
:101BB000BECF803899F0823809F0C6C180913802D2
:101BC0008F70873008F0C0C18093E9008091EB00EE
:101BD00085FB882780F91092E90006C080913002C9
:101BE00090913102911182609091E800977F9093DB
:101BF000E8008093F1001092F1008091E8008E7768
:101C00009FC1882309F48DC1823009F09DC1809164
:101C10003602811190C1809138028F702FEF280F0A
:101C2000263008F091C18093E9002091EB0020FF5D
:101C300082C1933031F48091EB0080628093EB009D
:101C40007AC19091EB0090619093EB0021E030E03D
:101C500001C0220F8A95EAF72093EA001092EA0069
:101C60008091EB008860EACF81116EC1109136023D
:101C70001F778091E3008078812B8093E30080912F
:101C8000E800877F8093E8000E94B9038091E80014
:101C900080FFFCCF8091E30080688093E30082E0C6
:101CA000111183E0809332024FC18058823008F0D6
:101CB0004BC120913602309137022C3DE3E03E07C4
:101CC000A1F583E08A838AE289834FB7F894DE0125
:101CD000139620E03EE051E2E32FF0E050935700EE
:101CE000E49120FF03C0E295EF703F5FEF708E2F0D
:101CF00090E0EA30C0F0C7968D939D932F5F24311A
:101D000059F74FBF8091E800877F8093E8006AE22F
:101D100070E0CE0101960E9465048091E8008B7707
:101D20008093E80011C1C096E7CF8091380290916E
:101D30003902432F55274330510509F44AC078F53D
:101D40004130510509F47AC08BE590E0ECEBF5E009
:101D50004230510509F0F8C02091E800277F209318
:101D6000E80020913A0230913B028217930708F471
:101D70009C0140E02115310509F065C0411163C0A7
:101D80008091E80082FDC9CF80913202882329F238
:101D9000853019F28091E80083FFF2CFBECF413247
:101DA000510509F43CC04232510509F0CDC08330E1
:101DB000910508F0C9C0FC01EE0FFF1FEB5BFE4F61
:101DC0000190F081E02D8E5B9E4FDC018C9190E0C4
:101DD0001AC0332721303105D1F02115310561F0CA
:101DE0002230310509F0B0C0E9E2F6E0E4918E2F2F
:101DF00090E0E9E2F6E007C0E1E5F6E0E4918E2F3D
:101E000090E0E1E5F6E0009709F49EC0A5CFEDE390
:101E1000F6E0E4918E2F90E0EDE3F6E0F4CF83302E
:101E2000910508F091C0880F991FFC01E55BFE4FFA
:101E30000190F081E02D89E090E08ECF82E190E08A
:101E4000E7E1F6E089CF80913202882309F465CF7B
:101E5000853009F462CF8091E80083FD5ECF8091E8
:101E6000E80082FD8DCF8091E80080FF83CF9091C4
:101E7000F3008091F2002115310519F088309105A9
:101E800050F041E0089709F040E08091E8008E773B
:101E90008093E8006FCF44914093F1003196215038
:101EA00031090196E8CF803809F04EC08091E800F2
:101EB000877F8093E800809133028093F1009DCE6C
:101EC000811142C0109136021230F0F58091E80085
:101ED000877F8093E800109333020E94B903112397
:101EE00011F084E005C08091E30087FDFACF81E026
:101EF0008093320242E061EC81E00E94D80342E22A
:101F000061EC84E00E94D80342E261EC82E00E942E
:101F1000D80342E260EC83E00E94D8038091320251
:101F200013C080913602813079F481E0933009F05A
:101F300080E0809331021092E9008091E800877F71
:101F40008093E8000E94B9038091E80083FF0AC0F3
:101F50008091E800877F8093E8008091EB008062A9
:101F60008093EB00AA96E3E00C94C0211F920F929D
:101F70000FB60F9211242F933F934F935F936F935C
:101F80007F938F939F93AF93BF93CF93DF93EF9301
:101F9000FF93D091E900DF708091EC00C82FC170F1
:101FA00080FDC0E81092E9008091F000877F809367
:101FB000F00078940E94F80C1092E9008091F000F3
:101FC00088608093F000CD2BCF70C093E900FF9123
:101FD000EF91DF91CF91BF91AF919F918F917F91C1
:101FE0006F915F914F913F912F910F900FBE0F9086
:101FF0001F9018950E94C90C2FEF84E39CE021509C
:1020000080409040E1F700C0000088E19AE00FB600
:10201000F894A895809360000FBE90936000FFCF66
:10202000662309F45DC08D3C41F40E94AF058195A3
:102030008093FD010E94A20C08958E3C19F40E9429
:10204000AF05F6CF8F3C31F40E94AF0581958093A8
:10205000FC01F0CF803D19F40E94AF05F8CF893D17
:1020600029F40E948D058093FE01E4CF8A3D21F47E
:102070000E948D058195F7CF8B3D31F40E948D052F
:1020800081958093FF01D6CF8C3D19F40E948D0578
:10209000F8CF9FE2980F983070F4815D990B21E0A2
:1020A00030E001C0220F8A95EAF78091FB01822B74
:1020B0008093FB01BFCF8D3D31F48091F5018160AC
:1020C0008093F501B7CF8E3D21F48091F5018260B8
:1020D000F7CF8F3D09F0AECF8091F5018460F0CF4E
:1020E0004091FC018D3C59F48091FD0187FF0DC0AA
:1020F0001092FD0141110BC01092F30108C08E3CFB
:1021000081F48091FD0118169CF3442381F08091A5
:10211000FE019091FF01892B09F08CCF1092F40100
:1021200089CF8F3C49F447FFF0CF1092FC0180919A
:10213000FD018111ECCFE0CF803D19F41416ACF312
:10214000E4CF9091FE01893D29F41916F4F610921E
:10215000FE01DBCF8A3D19F497FFD7CFF8CF9091DE
:10216000FF018B3D29F497FFD0CF1092FF01CDCF17
:102170008C3D19F41916CCF3C8CF9FE2980F983014
:1021800090F4815D990B21E030E0B90102C0660F47
:10219000771F8A95E2F7CB0180959091FB01892307
:1021A0008093FB01B2CF8D3D31F48091F5018E7F9C
:1021B0008093F501AACF8E3D21F48091F5018D7FAA
:1021C000F7CF8F3D09F0A1CF8091F5018B7FF0CF44
:1021D000882399F19CEF980F913A40F4682F84E599
:1021E00091E00E94D7040E940D0B089590E2980F91
:1021F000983050F4877091E001C0990F8A95EAF702
:10220000892F0E94D407EFCF9BE5980F933028F4D5
:1022100090E080E00E945B05089598E5980F9B315F
:1022200028F490E080E00E943605089593E3980F2B
:10223000933118F460E00E9410100895CF93C82FD6
:102240008823D9F18CEF8C0F813AC8F58091080171
:10225000882311F180910B0287FF1EC0EC2FE695B9
:10226000E695E695F0E0EC5AFE4F828190E04C2F27
:10227000477021E030E002C0220F331F4A95E2F799
:1022800082239323892B91F06C2F84E591E00E94A7
:10229000D7040E940D0B0AC0E6E5F1E08CE591E061
:1022A0002191C21789F38E179F07D1F76C2F84E510
:1022B00091E00E9401050E940D0BCF91089580E2EC
:1022C0008C0F883068F4C77021E030E001C0220F25
:1022D000CA95EAF78091C101822B8093C101EBCFAF
:1022E000EBE5EC0FE33040F4F0E0E75FFE4F808178
:1022F00090E00E945B05E1CFE8E5EC0FEB3150F494
:10230000F0E0EE0FFF1FE45FFE4F808191810E949D
:102310003605D3CF83E38C0F833178F661E08C2FC1
:102320000E941010CACF1F93CF93DF93182FD0E0D5
:10233000C0E0893311F4C0E5D0E0812F0E941E1166
:10234000209739F4812F0E94E810DF91CF911F91DF
:1023500008958FE99FE00197F1F700C000002197F1
:10236000EFCF0F931F93CF93DF93C62FD42F022F5E
:10237000FC0185818823A9F0609378020E94960C65
:102380009093770280937602C77081E001C0880F36
:10239000CA95EAF70E94690BDF91CF911F910F91C7
:1023A000089580917802681332C0809176029091EE
:1023B00077020E94870C883C910548F510E21D0FBA
:1023C000CD17B9F080E28C0F883040F4C77081E0FF
:1023D00001C0880FCA95EAF70E94620B183048F4D2
:1023E00081E09D2F977001C0880F9A95EAF70E94AF
:1023F000690B802F0E949311183070F6D77081E01E
:1024000001C0880FDA95EAF70E94620BC5CFC7704A
:1024100081E001C0880FCA95EAF7F6CFA8E0B0E0E6
:10242000E4E1F2E10C9497218C01DC0114968C918B
:102430001497882309F4B8C021E04C9111965C915F
:10244000119712966C91129713967C91139715968B
:102450009C910E94CF0A7C01F8018581882309F4B0
:102460003CC1C70197578038910508F004C5FFE0CB
:10247000FE1508F489C08FEF93E00E94ED218111D1
:1024800083C061E7A62E63E0B62EE11047C0FE01CF
:10249000339686E0DF011D928A95E9F75AE0452ED2
:1024A0007501BFEFEB1AFB0AC5010E94ED2189837C
:1024B0001A82882309F468C0813009F079C0650167
:1024C000E2E0CE0ED11CC7010E94ED218A83882351
:1024D00009F45AC09FEF980F933070F5F3E0AF0EF8
:1024E000B11CC6010E94ED218B83882309F44CC0E6
:1024F0001C82DE0111967D01F7012081222381F2E9
:10250000213009F095C091818281913009F052C04B
:10251000F2E0EF0EF11C0E94931153C0A11424E0CD
:10252000B20691F1C5010E94ED21811101C0EA942A
:102530003FEFA31AB30AA9CF56018430D1F642E087
:10254000E42EF12C56012FEFA21AB20AC6010E9406
:10255000ED21E1E0F0E0EC0FFD1FEE0DFF1D8083AB
:10256000882391F08C3741F4E2E0F0E0EC0FFD1F9E
:10257000EE0DFF1D1082BDCF3FEFE31AF30A650198
:1025800087E0E816F104F1F680919E01877061F012
:10259000D80115968C91882339F080910C0282FF26
:1025A00003C082E00E9480082896E0E10C94B321E9
:1025B00057019FCF923049F422E0E20EF11C0E94B5
:1025C0001E11EFEFEE1AFE0A97CF933031F432E08E
:1025D000E30EF11C0E94E810F4CF943021F08FEF4D
:1025E000E81AF80AEECF92E0E90EF11C30E020E0A4
:1025F000B7016F5F7F4FD70111964C918053990BB4
:102600008A30910550F021503109D8F2EFE9FFE00E
:102610003197F1F700C00000F6CF429EF001439ED3
:10262000F00D11249C012E0F3F1F842F7B01E0CF62
:10263000E22FF0E0EC50FE4F5490822F8695869565
:10264000869590E0FC01EC51FE4F64902770712C50
:10265000022E02C0759467940A94E2F731E0632277
:102660007724FC01EC52FE4F8490912C022E02C084
:10267000959487940A94E2F7A1E08A229924FC01B8
:10268000EC53FE4FC490D12C02C0D594C7942A9528
:10269000E2F7B1E0CB22DD246114710419F081EE80
:1026A0000E941E118114910419F086EE0E941E11E1
:1026B000852D0E9493118114910419F086EE0E94D9
:1026C000E8106114710419F081EE0E94E810C11441
:1026D000D10409F476CF8CE21ECFF701E851FC4714
:1026E000E730F10508F0B8C3E85AFD4D0C94E0213D
:1026F00026E241EE61EEC8010E94B11145CF27E20A
:1027000045EE65EEF8CF26E241EE60EEF4CF27E22B
:1027100045EE64EEF0CF26E241EE62EEECCF27E22A
:1027200045EE66EEE8CF28E241E0EBCF80910B0268
:10273000816080930B0295C080910C028860809329
:102740000C028FC080910B028260F3CF80910B024C
:102750008460EFCF80910B028860EBCF80910C02F8
:102760008160EDCF80910C028260E9CF80910B02F5
:102770008061DFCF80910B028062DBCF80910B0202
:102780008064D7CF0E94C90C80910B028068D1CFA2
:1027900080910B028C60CDCF80910C028360CFCFF3
:1027A00080910B028E7FC5CF80910C02877FC7CFAF
:1027B00080910B028D7FBDCF80910B028B7FB9CFB3
:1027C00080910B02877FB5CF80910C028E7FB7CFAF
:1027D00080910C028D7FB3CF80910B028F7EA9CFA9
:1027E00080910B028F7DA5CF80910B028F7BA1CFB3
:1027F0000E94C90C80910B028F779BCF80910B02B6
:10280000837F97CF80910C028C7F99CF80910B02B0
:1028100082FB992790F921E0922790FB82F990FBA7
:1028200083F987CF80910C02982F909591708E7FBD
:10283000892B90FB81F983CF90910B02892F8F7B9D
:1028400096FF806476CF0E94C90C90910B02892F6D
:1028500097FB87F980586DCF61E08EE090E00E9491
:102860000B2260910B0270910C0284E090E00E94B8
:1028700029220E94C90C88CE60E0EFCF90910B0214
:10288000892F8F7E94FF806154CF90910B02892F06
:102890008E7F90FF81604DCF90910C02892F877FB2
:1028A00093FF88604CCFF7E7EF16FCE7FF0609F4CB
:1028B0006AC028E7E2162CE7F20609F471C033E09B
:1028C000E3163CE7F30609F48CC008F06BC0E11492
:1028D0009CE7F90609F478C0A1E0EA16ACE7FA062D
:1028E00009F485C0F8018581E080F180882309F42E
:1028F0008CC0C7010E94700AD82E682FC7010E94A1
:102900001908B7018D2D0E94620A0E94B6067C014B
:10291000882ED8011596AC90159716969C90929497
:102920003FE0932280919E018770F1F0DA2CAA207B
:10293000E1F08F2D807F803451F080E28E0D883061
:1029400098F0911004C08F2D807E803269F08091C4
:102950000C0282FF09C082E00E94800880919E01E3
:102960008770DD24D3948111D12CCF2CC2942FE019
:10297000C222BBE0BC1508F4B1C0EC2DF0E0E15A76
:10298000FD4D0C94E02181E00E94970843E062E055
:1029900081E00E945308F8CD81E00E947308F6CFD1
:1029A00082E0F2CFBBE5EB16BCE7FB0661F1ECE59C
:1029B000EE16ECE7FE06E9F0FAE5EF16FCE7FF0697
:1029C00009F090CF81E01CC00E94C90C2FEF34E3C6
:1029D0008CE0215030408040E1F700C000000E94B0
:1029E000C6046FEF7FEF90E080E00E9429220E94F2
:1029F000FA0F80910C0282FB882780F991E08927E9
:102A00000E94730B6FCF80E0FBCFC7010E94E507E8
:102A1000D82E77CFEF2DEF70BE2E8F2D807F19F03F
:102A2000B29490EFB922AA20B9F0BB2069F080E2FD
:102A30008E0D883010F0811009C08091C101B82A34
:102A4000B092C1010E940D0B8E2D46C08091C00135
:102A5000B82AB092C001F6CF8E2D0E94E810BB209C
:102A6000E9F180E28E0D883010F0811004C08B2DCA
:102A70000E94D40706C0B0948091C001B822B092E1
:102A8000C0010E940D0B2AC0FF2DFF70BF2E8F2D9D
:102A9000807F803219F0B29480EFB822882059F0FC
:102AA00021E0821609F485C0AA2009F491C099207A
:102AB00009F452C0C9CF80910C0282FD49C0AA20FE
:102AC00009F440C0BB2039F08091C1018B2980936B
:102AD000C1010E940D0B80E00E941E11AC2DA85078
:102AE000BB0B149720F40E9480050E94A608DD20ED
:102AF000A9F080919E0180FD11C0F8011582869594
:102B0000869586950E949708C8010E940E128091B2
:102B10009E018695869586950E94730820E0D801CF
:102B20004C9111965C91119712966C911297139695
:102B30007C91139714968C91149715969C910E94F2
:102B4000CF0A32CD80E00E94E810BB2039F28FCF4F
:102B5000AA20A1F0911004C08B2D0E94690BBECF5A
:102B600031E09312BBCF8091BF019B2D9823B91602
:102B700009F4B4CF8B298093BF01B0CF9110AECFB1
:102B80008B2D0E94620B9091BF018B2D892329F020
:102B90008B2D809589238093BF01909175018B2D9A
:102BA000892309F49BCF8B2D809589238093750110
:102BB00095CFAA2029F085E0891508F48FCFCCCFD6
:102BC00094E0991508F48ACF8B2D0E94620B86CF72
:102BD0009920D1F3A9E38A1209C0BFEFE7EEF3E031
:102BE000B150E040F040E1F700C000008E2D0E949F
:102BF000E81074CF8F2D86958695837061F08130B3
:102C000009F06CCFC7019370A11002C080E090E082
:102C10000E94360563CFC7019370A11002C080E007
:102C200090E00E945B055ACF6A2D8E2D0E941010F5
:102C300055CF8F2D837091F5A11050CF4E2D429519
:102C400046954770440F440F8E2D8F70042E01C09F
:102C5000880F0A94EAF72E2D2071E4FE07C02FE0BA
:102C600030E001C0220F4A95EAF720953F2D3695B6
:102C700036953370323069F050F44091D7013130DD
:102C800029F0822B84230E94A30828CF842B822B37
:102C9000FACF282B8091D7018227F5CF8695AA20DD
:102CA00011F08F2D8170882309F418CF4E2D429595
:102CB00046954770440F440F8E2D8F70042E01C02F
:102CC000880F0A94EAF72E2D2071E4FE07C02FE04A
:102CD00030E001C0220F4A95EAF720953F2D369546
:102CE00036953370323069F050F44091D80131306C
:102CF00029F0822B84230E945008F0CE842B822B53
:102D0000FACF282B8091D8018227F5CF2F2D2F7055
:102D1000F22EAA2029F0822F0E9497088E2D1DCF17
:102D20008E2D0E94620B8F2D0E947308D7CE8E2DA0
:102D300032EF8316B1F1381570F090EF8916D1F0AB
:102D4000A1EF8A1691F0AA2009F45EC091107CCE02
:102D50008F2D8F712AC0B3EF8B1651F1E4EF8E12D5
:102D6000F2CF80910C0282FD2FC08F2D8F71AA208F
:102D7000D9F21BC0AA2081F0F4E0F91508F4AECE18
:102D80002F2D2F7181E090E001C0880F2A95EAF77E
:102D90009091D8018927AFCF25E0291508F49ECE60
:102DA000EFCF8F2D8F71A110BFCF0E94970896CEC5
:102DB00080E0AA2009F49FCF9F2D9F7181E001C080
:102DC000880F9A95EAF797CFAA2099F03F2D3F7187
:102DD000F32E832F0E94970880910C0282FF07C078
:102DE000A8E0FA9EC0011124836080939E018F2D7C
:102DF000DCCF81E00E948008B1E0B91508F06ECE0A
:102E000082E00E9480086ACE992059F0893309F047
:102E1000EDCEEFEFF7EE23E0E150F0402040E1F798
:102E2000E3CE8F2D8F7180CFB6E1EB16BCE7FB06AA
:102E300009F039CD8091C1018A7A91E009F490E0DE
:102E40009093740169E2811165E384E591E00E9449
:102E500001050E940D0B98CBE6E1EE16ECE7FE06AD
:102E600051F58091740169E2811165E384E591E097
:102E70000E94D704EECFF701E851FC47E730F10597
:102E800008F432CC10927802C7019057839760F60D
:102E900084E090E00E94F52190930C0280930B0255
:102EA000F701E150F047E232F10508F03FCCE55977
:102EB000FD4D0C94E021F7E7EF16FCE7FF0609F45F
:102EC0006BCD82E028E7E2162CE7F20609F465CD27
:102ED00009CDCF93DF9380919D01807F09F04DC094
:102EE00080919C01882309F448C0E09175025091BB
:102EF0003C02C0919801D091970160919901709125
:102F00009A0147E05E17C9F18E2F90E0E49FF0012F
:102F10001124E35CFD4F2481222391F1489FF001AD
:102F2000499FF00D1124DF01A35CBD4F11962C9138
:102F300011972C1325C02C912D1322C015962C917E
:102F4000159721111DC012962D913C91261B370B10
:102F5000283C3105A8F480919D018F708061809399
:102F60009D01ED5BFD4F80818F708061808387E9DB
:102F700091E00E940E120E94DB07DF91CF9108952D
:102F8000FC013196E770BECFA4E1B0E0EAECF7E1D6
:102F90000C949B218C0186E0F801DE011F960190C4
:102FA0000D928A95E1F7F8018481E58097E9A92ED1
:102FB00091E0B92E90919B01911128C0882319F1BD
:102FC000EE20F1F0C8010E94AC0AF82E8823C1F06F
:102FD00087E0F801D50101900D928A95E1F7809183
:102FE0009B01813031F480919701909198010E946A
:102FF0009F0A0E9469178F2D6496ECE00C94B7210C
:10300000C8010E940E12FF24F394F5CFD080C18036
:1030100082809380F0909C012091990130919A01D7
:10302000A401421B530BFF2009F4D9C0483C5105B1
:1030300008F092C08823F9F29091980180919D0147
:10304000282F207F09F056C0C91214C09091970113
:10305000D91210C0E11048C08F70806180939D012B
:1030600087E991E00E940E1280919D01F80186830C
:10307000F12CC1CFE11038C06C2D8D2D0E944A0378
:103080006C2D8D2D0E944A03E82E8111F1CFDF8631
:10309000C88A8F8598890E949F0A292F22952F70B0
:1030A000243058F49F70223088F0992399F0F80169
:1030B0009681907F79F4FE2C9ECF2A5F2F7022306C
:1030C00068F0C8010E940E12EF2CF5CF992311F081
:1030D000882389F3805E883070F3F3CF803F58F304
:1030E000815F833070F7E7CF80919D01816080938D
:1030F0009D01BECFC91207C090919701D91203C09C
:10310000EE2009F48DC0C8010E94AC0A882309F49E
:1031100077CFEE2009F474CF80919D01803288F042
:103120002091970130919801398728879B868A865C
:1031300090919B019C871D868E87CE0108960E94E8
:103140000E1287E0F801A7E9B1E001900D928A958F
:10315000E1F70E94691757CF90919D01292F207F99
:1031600051F487E991E00E940E1287E0F501119277
:103170008A95E9F77DCF882309F43DCF80919801A6
:103180008C1110C080919701D8120CC0E1100AC0B8
:103190009683C8010E940E1287E0F50111928A956C
:1031A000E9F729CFC8010E94AC0A882309F428CF87
:1031B000EE2009F425CF80919D01803210F22091FC
:1031C0009701309198013A8329839C828B82909158
:1031D0009B019D831E828F83CE010196B0CF483C18
:1031E0005105D0F6882309F40ECFFE2CEE2009F409
:1031F00007CF809198018C1120C080919701D8123F
:103200001CC080919D0180FD0FC0982F907F61F0C0
:103210008683903F31F0982F907F905F8F70892B3D
:103220008683C8010E940E1287E0F801A7E9B1E089
:1032300001900D928A95E1F7DECEC8010E94AC0A9A
:1032400081117FCF80919D01816080939D01C80194
:103250000E940E12D0CEABE1B0E0E1E3F9E10C94B4
:10326000A3214E8B5F8B688F798F8A8F9B8F192F4D
:1032700091111092C0011D8A86E0FE017696DE0152
:103280001F9601900D928A95E1F70A8D002341F077
:1032900021E04F85588969897A89C8010E94CF0A3F
:1032A0000B8B1C8B87E0FE013F96DE011896019088
:1032B0000D928A95E1F7CE0108960E94C4178111FC
:1032C0000CC087E0FE013896DE01119601900D9248
:1032D0008A95E1F78C8581110BC017E0809175020A
:1032E00090913C02891331C06B96E4E00C94BF21AD
:1032F00020913C0230E0C9010196877099274091E6
:1033000075024817190699F097E0929FD001939F94
:10331000B00D1124A35CBD4FFE01319601900D92BA
:103320009A95E1F780933C020E94DB07D6CF0E947A
:10333000C90C10923C021092750287E0E7E9F1E0B7
:10334000DF011D928A95E9F7C8CF819FC001112442
:10335000835C9D4F0E94C417882331F280917502CF
:1033600090E001968770992780937502B7CFA1E00E
:10337000B0E0EDEBF9E10C9495218091C601882332
:1033800071F08091C4019091C5010196811520E2F0
:10339000920708F0E0C09093C5018093C4018BECC4
:1033A000682E81E0782ECC24C394D12CE12CFF240C
:1033B000FA94FC0CF301419051903F011292129249
:1033C0005F01F3E0FF1609F4E0C0FF1508F4CEC07A
:1033D00021E0F21609F4D3C082E0F81609F4D2C055
:1033E000849A8C988091C601882309F4D4C08FE810
:1033F00091E00197F1F700C000008091C601912C87
:10340000812C811125C09FEF998304E610E021E013
:1034100030E0AE014F5F5F4F62E180E40E943821EF
:1034200021E0892B09F420E08091C601820F80936E
:10343000C601898180950E94B708982F96959C7740
:103440008370892B982E9594882E8794882487944E
:103450004B99B4C000E410E04A99B3C0A0E2B0E0D8
:103460004C99B2C0E0E1F0E03699B1C068E070E09C
:103470004F99B0C044E050E06699AFC022E030E020
:1034800083B182958F7091E0892780FB222420F8F8
:10349000312CC10188299929802B912B8A2B9B2BB8
:1034A000E82BF92B6E2B7F2B462B572B242B352B00
:1034B000F50131832083F3E0FF1609F4A3C0FF1563
:1034C00008F48EC021E0F21609F494C082E0F816E8
:1034D00009F494C084988C988C9881E0F50120813F
:1034E00031812415350509F480E0E82AFFEFCF1A71
:1034F000DF0A27E0C216D10409F059CFEE2009F403
:1035000089C081E08093C9010E94960C9093C80104
:103510008093C7018091C7019091C8010E94870CD8
:10352000059708F47BC04CE050E06BEC71E087EE4F
:1035300091E00E943F22892B09F475C08CE0EBECEE
:10354000F1E0A7EEB1E001900D928A95E1F781E0FC
:103550001092C90164C01092C5011092C40110926A
:10356000C6010E9407090E94170919CF94E0F916B5
:1035700079F0E5E0FE1234CF229A2A9833CF859A6B
:103580008D9830CF869A8E982DCF879A8F982ACF94
:10359000219A299827CF61E070E00C2C01C0660FBA
:1035A0000A94EAF7609581E00E94DB0891E08927A0
:1035B0009091C601980F9093C6011FCF10E000E0D4
:1035C0004BCFB0E0A0E04CCFF0E0E0E04DCF70E0BA
:1035D00060E04ECF50E040E04FCF30E020E050CFF1
:1035E00094E0F91699F0E5E0FE1274CF22982A983B
:1035F0002A9873CF85988D988D986FCF86988E98DE
:103600008E986BCF87988F988F9867CF219829983D
:10361000299863CF8091C90181117CCF80E02196E8
:10362000E2E10C94B12180E093CFA6E0B0E0EBE1C1
:10363000FBE10C94A3210E94960C8C018091C201A5
:103640009091C3018017910781F019821A820E941C
:10365000960C682F49815A81792F80E090E00E9472
:103660002B191093C3010093C2012696E4E00C9439
:10367000BF211F921FB61F9211248F939F93AF9368
:10368000BF9380910602811113C08091070290912F
:103690000802A0910902B0910A024196A11DB11D34
:1036A0008093070290930802A0930902B0930A0244
:1036B000BF91AF919F918F911F901FBE1F90189542
:1036C000CDB7DEB7A6970FB6F894DEBF0FBECDBF5D
:1036D00085B7806885BF85B7806885BF84B7877FD9
:1036E00084BF0FB6F894A89580916000886180939C
:1036F0006000109260000FBE80E890E00FB6F89472
:1037000080936100909361000FBE8FEC95E09093E1
:103710005301809352010E9469030E940A04809120
:10372000E20084608093E2007894809132028823E2
:10373000A1F01091E9001F709091EC00892F817029
:1037400090FD80E8182B1092E9008091E80083FD3D
:103750000E94F80C1F701093E90082E084BD93E092
:1037600095BD9AEF97BD80936E000E94F40A811177
:1037700002C00E94230A8091CA0181110EC00E94DA
:103780002B202FEF43ED80E3215040408040E1F7B4
:1037900000C0000081E08093CA01219829982298F6
:1037A0002A9884988C9885988D9886988E98879872
:1037B0008F9829982A988C988D988E988F980E9427
:1037C00007096E98769A52985A9A53985B9A549829
:1037D0005C9A57985F9A3E98469A24982C9A0E9431
:1037E0001709EBECF1E087ED91E0A7EEB1E0119263
:1037F00011921D921D928E179F07C9F790E080E0ED
:103800000E94F521863E9E4F21F40E94F40A811108
:1038100067C066EE7EEF90E080E00E94292260E0C3
:1038200082E090E00E940B2260E083E090E00E9442
:103830000B221092D70160E074E184E090E00E94D6
:10384000292260E086E090E00E940B226FEF87E083
:1038500090E00E940B2240E050E0BA0188E090E046
:103860000E941D2260E084E290E00E940B2260E052
:1038700087E190E00E940B2260E08CE090E00E94E3
:103880000B2260E08DE090E00E940B2219821A82E8
:103890001B821C821D821E821F82188648E050E017
:1038A00068E170E0CE0101960E94FB2140E050E00B
:1038B000BA0180E290E00E941D2280E00E940A0A84
:1038C0000E94230A40E050E0BA018FE090E00E949D
:1038D0001D2240E050E0BA0183E190E00E941D22E9
:1038E00082E090E00E94ED218093D90184E090E095
:1038F0000E94F52190930C0280930B020E94B7194D
:10390000FFEF26E741E0F15020404040E1F700C0E2
:1039100000000E94B7198091E70180FF08C06FEF97
:103920007FEF90E080E00E9429220E94C60483E09D
:1039300090E00E94ED210E94A308259A2D98269AD6
:103940002E98239A2B980E94D8080E94D5080E948E
:10395000D2080E94CF08559A5D988FEF90E7E2E079
:1039600081509040E040E1F700C00000259A2D9A78
:10397000FFEF20E742E0F15020404040E1F700C077
:103980000000269A2E9A8FEF90E7E2E08150904057
:10399000E040E1F700C00000239A2B9AFFEF20E7F8
:1039A00042E0F15020404040E1F700C000000E949A
:1039B000D8088FEF90E7E2E081509040E040E1F7D7
:1039C00000C000000E94D508FFEF20E742E0F15060
:1039D00020404040E1F700C000000E94D2088FEF75
:1039E00090E7E2E081509040E040E1F700C0000045
:1039F0000E94CF080E94D8080E94D5080E94D208D1
:103A00000E94CF0880E091E090930302809302022D
:103A1000F3EF4F2EF1E05F2EA6EE6A2EA1E07A2E94
:103A20008091320200E112E1853009F49BC00E94CE
:103A3000B719EAEDAE2EE1E0BE2EA7EEB1E0F5013A
:103A4000219131918D919D916E167F0609F496C05A
:103A500028173907A9F377EE872E71E0972E312CBE
:103A6000F401019111914F01F501C190D1905F01D5
:103A7000C016D10661F1C026D126212CEE24E39494
:103A8000F12CC6018E219F21892BB9F029A23AA2DF
:103A90000E94960C9CA38BA3F1E0FDA391E09801FA
:103AA0002E213F21232B09F490E09EA349A15AA186
:103AB0006BA17CA18DA10E942B192394EE0CFF1CFD
:103AC0002EE02212DECFF50132971183008333946A
:103AD00046E03412C5CF8FB7F89440910702509159
:103AE00008026091090270910A028FBF4DC0809157
:103AF0003202843039F180E00E94A608109206025A
:103B000088E190E0E0E40FB6F894A8958093600017
:103B10000FBEE093600083B7817F846083BF83B76B
:103B2000816083BF7894889583B78E7F83BF0FB6FB
:103B3000F894A8958091600088618093600010924D
:103B400060000FBE80913102882361F00E94B71996
:103B5000E7EEF1E081919191892B09F053C24E1665
:103B60005F06C1F780913202853009F4C0CF0E9410
:103B7000C90C0E9480050E94A60859CF2817390752
:103B800009F069CF0E94151B86E0EAEFF1E0DE0143
:103B9000119601900D928A95E1F71092FC01109216
:103BA000FD011092FE011092FF011B810C81812FFB
:103BB000802B09F448C08091F8019091F9010E948E
:103BC000870C9C019091F301992309F43FC22531A0
:103BD0003105C8F19F3F19F09F5F9093F3011123C6
:103BE00059F00E94AF059FEF11160CF491E0899FE8
:103BF000802D11248093FC01002359F00E94AF0511
:103C00009FEF10160CF491E0899F802D1124809372
:103C1000FD013091FC013323B1F02091FD012223FD
:103C200091F045EB3403C0011124992309F4BDC080
:103C30009093FC0145EB240390011124332309F4F4
:103C4000B8C03093FD011D810E81812F802B09F4B6
:103C500048C08091F6019091F7010E94870C9C0169
:103C60009091F401992309F4ECC121353105C8F193
:103C70009F3F19F09F5F9093F401112359F00E9428
:103C80008D059FEF11160CF491E0899F802D112472
:103C90008093FE01002359F00E948D059FEF1016BE
:103CA0000CF491E0899F802D11248093FF013091C5
:103CB000FE013323B1F02091FF01222391F045EB67
:103CC0003403C0011124992309F477C09093FE01B5
:103CD00045EB240390011124332309F472C030937F
:103CE000FF0146E050E0BE016F5F7F4F8AEF91E039
:103CF0000E943F22892B61F48091FC019091FD018B
:103D0000892B9091FE01892B9091FF01892B11F055
:103D10000E94A20C86E0FE013196AAEFB1E001906C
:103D20000D928A95E1F70E9480059091E60189172E
:103D300079F08093E6019FB7F89440910702509183
:103D400008026091090270910A029FBF0E94A608B2
:103D500080913202843009F063CE83E08093E900E1
:103D60008091E80082FF5CCE8091E80090E085FFC2
:103D70000BC00E94880340E2E42EF12C8E010F5FFD
:103D80001F4F882359F191E08091E8008B77809351
:103D9000E800992309F444CEE981E150E331B8F514
:103DA000F0E0E357FD4D0C94E02181E08093FC01AD
:103DB00041CF81E08093FD0146CF81E08093FE01F9
:103DC00087CF81E08093FF018CCF8091F100F801D3
:103DD00081938F01F1E0EF1AF108A9F28091E800D8
:103DE00085FDF3CF8091E8008B778093E8000E94F7
:103DF0008803882399F3C7CF1A828CE08B8324C071
:103E00008A81823009F414C128F4813061F08FEF87
:103E100089831AC0833009F18430C9F71B821C8260
:103E20001D821E8211C02FB7F89460910702709115
:103E300008028091090290910A022FBF0E94E62198
:103E40006B837C838D839E8340E250E0BE016F5F75
:103E50007F4F82E00E942F09E3CD2B81822F90E0DB
:103E6000FE013196225F8630910570F7DC01AA0FC2
:103E7000BB1FA951BE4F3C9111964C914383348393
:103E8000019632962813EFCFDFCF8A81823019F066
:103E90008530D1F2BCCF6B817C818D819E810E9467
:103EA000E62188E290E00E940B22CECF4C816B810C
:103EB0008A810E94330A9827892798279E838D83B9
:103EC000C3CF2D813E813227232732274C816B813E
:103ED0008A810E94AC09B8CF0E94D209B5CF80E197
:103EE0008A83B2CF1A828FE889CF0A811B8110277B
:103EF00001271027CE0101967C01CC80FC01EC0D3E
:103F0000F11D6F01C8018F589C4FEC14FD0409F49A
:103F10009BCF0F38110550F40E94ED21F7018483E7
:103F20000F5F1F4FFFEFEF1AFF0AECCFF70114826C
:103F3000F7CF0A811B81102701271027CE01019698
:103F40006C01EC80E00EF12EF11CC8018F589C4FE3
:103F5000E016F10609F478CF0F38110520F4F601C8
:103F600064810E940B22FFEFCF1ADF0A0F5F1F4F01
:103F7000ECCF0E949C0968CF85E0B2CF0A811B81FB
:103F8000102701271027CE0101967C01CC80FC016F
:103F9000EC0DF11D6F01C8018996CE14DF0409F400
:103FA00053CF0834F3E01F0750F40E94ED21F701CE
:103FB00084830F5F1F4FFFEFEF1AFF0AECCFF7016B
:103FC0001482F7CF0A811B81102701271027CE0109
:103FD00001966C01EC80E00EF12EF11CC80189966F
:103FE0000E151F0509F430CF0834E3E01E0720F456
:103FF000F60164810E940B22FFEFCF1ADF0A0F5FE8
:104000001F4FECCF09BD19BD09B400FEFDCF809153
:10401000D8008F7D8093D8008091E00082608093EB
:10402000E0008091E00081FDFCCF0E94C90C9ACD98
:1040300088E290E00E94ED211B821C821D828E830B
:1040400003CF2B30310508F015CE4BCE2B30310588
:1040500008F0C2CDF8CD1092B9008CE08093B80082
:104060000895B0E0A0E0E7E3F0E20C949C21B82EC4
:10407000EB010E94960C6C01EE24E394F12CC43108
:10408000D10560F025E0E22EF12CCF3FDC0731F0C6
:10409000CE0164E170E00E9481217B0184EAA82EB8
:1040A00094E8992E1092BC00A092BC000E94960C3D
:1040B0008C018091BC0087FF0DC08091B900887F82
:1040C0008830F9F08091B900887F8031D1F00FEF0E
:1040D0001FEF08C0C8010E94870CE816F90648F7D0
:1040E0000EEF1FEFCF3FDC07E9F2C6010E94870CFD
:1040F000C817D907B8F6C801CDB7DEB7EBE00C9406
:10410000B821B092BB009092BC000E94960C8C012A
:104110008091BC0087FF0AC08091B900887F8831F8
:1041200011F08034A1F610E000E0E5CFC8010E9454
:10413000870CE816F90660F7D3CF0F931F93CF9340
:10414000DF93EB018093BB0084E88093BC000E9466
:10415000960C8C018091BC0087FF11C02091B900A2
:10416000287F81E090E0283211F490E080E0919582
:1041700081959109DF91CF911F910F910895CF3FC4
:10418000DC0741F3C8010E94870CC817D90710F754
:104190008EEF9FEFEFCF0F931F93CF93DF93EC0141
:1041A00084EC8093BC000E94960C8C018091BC0032
:1041B00087FF08C08091BB0090E0DF91CF911F91F5
:1041C0000F910895CF3FDC0789F3C8010E94870C47
:1041D000C817D90758F78EEF9FEFEFCF0F931F93B4
:1041E000CF93DF93EC0184E88093BC000E94960C8F
:1041F0008C018091BC0087FF08C08091BB0090E0DB
:10420000DF91CF911F910F910895CF3FDC0789F384
:10421000C8010E94870CC817D90758F78EEF9FEF87
:10422000EFCFB0E0A0E0E7E1F1E20C949F21C62FD0
:104230006A017901B8010E94312097FD0CC0B801D4
:104240008C2F0E949D20E601EC0CFD1CCE15DF0595
:1042500011F097FF08C024E92093BC00CDB7DEB76A
:10426000E8E00C94BB21B80189910E949D20EECF1B
:10427000B0E0A0E0EEE3F1E20C949F21F82EE62EF0
:10428000EA016901B8010E94312097FD15C0B8010B
:104290008E2D0E949D2097FD0FC0B8018F2D81604B
:1042A0000E943120F12CE12C21E0C21AD108EC143B
:1042B000FD04E0F497FF0DC024E92093BC0018161C
:1042C000190614F490E080E0CDB7DEB7E8E00C9476
:1042D000BB21C8010E94CB2097FD04C0FE01EE0D5A
:1042E000FF1D80832FEFE21AF20AE1CF97FDE4CFA2
:1042F000C8010E94EE2097FDDFCFCC0DDD1D888325
:10430000DBCFAA1BBB1B51E107C0AA1FBB1FA6170F
:10431000B70710F0A61BB70B881F991F5A95A9F76E
:1043200080959095BC01CD0108952F923F924F92B8
:104330005F926F927F928F929F92AF92BF92CF9235
:10434000DF92EF92FF920F931F93CF93DF93CDB73E
:10435000DEB7CA1BDB0B0FB6F894DEBF0FBECDBFB6
:1043600009942A88398848885F846E847D848C8487
:104370009B84AA84B984C884DF80EE80FD800C8190
:104380001B81AA81B981CE0FD11D0FB6F894DEBF73
:104390000FBECDBFED01089597FB072E16F40094D4
:1043A00007D077FD09D00E94812107FC05D03EF49B
:1043B000909581959F4F0895709561957F4F0895D1
:1043C000EE0FFF1F0590F491E02D099469279627C1
:1043D00069277827872778270895F999FECF92BD16
:1043E00081BDF89A992780B50895A8E1B0E042E030
:1043F00050E00C943122DC01A40FB51F4150504015
:1044000048F0CB01840F951F2E910E940C22415041
:104410005040D0F70895262FF999FECF92BD81BD67
:10442000F89A019700B4021639F01FBA20BD0FB6F2
:10443000F894FA9AF99A0FBE08950396272F0E94CE
:104440000C220E940B22252F0E940C22242F0C9458
:104450000C220196272F0E940C220C940B22DC01C7
:10446000CB01FC01F999FECF06C0F2BDE1BDF89A7F
:10447000319600B40D9241505040B8F70895FB01B9
:10448000DC0104C08D910190801921F4415050400D
:10449000C8F7881B990B0895F894FFCFD90D010E2A
:1044A000A40F010EA40F340E550EA40F530F600F6E
:1044B0008313871378137F138B138F1393130A15AA
:1044C0000A1544154415FA1514166E156E151916AD
:1044D000861697169716D0134514D813A213A61351
:1044E000DC13AA13E013EC13B6133E14BA13F01343
:1044F000BE13F4131C14C213F8132314C813FE13B1
:104500000614AE13E413B213E813CC1302141214FE
:104510002C143C149C13D4134C14FC1E001F451F78
:10452000561F611F6C1F071F071F071F071F071F4D
:104530006F1F721F751F991FB91FBC1FBE1FE21F7F
:10454000C304780971096A0901818283E200E900E4
:10455000EA00B500B600B700CD008301CC008A01A7
:10456000920194012102230224022502260227023D
:104570002A02B300B4006F0070009F01CB019F02BC
:10458000A0024022B684016201AC00CE05E7050717
:02459000060023
:00000001FF
