:100000000C942B030C9448030C9448030C94480361
:100010000C9448030C9448030C9448030C94480334
:100020000C9448030C9448030C94BE0B0C94E40FFE
:100030000C943F1B0C9448030C9448030C94480305
:100040000C9448030C9448030C9448030C94480304
:100050000C9448030C94960C0C9448030C9448039D
:100060000C9448030C9448030C9448030C944803E4
:100070000C9448030C9448030C9448030C944803D4
:100080000C9448030C9448030C9448030C944803C4
:100090000C9448030C9448030C9448030C944803B4
:1000A0000C9448030C9448030C944803050109027E
:1000B000A10185020901A1000509190129081500FE
:1000C0002501950875018102050109300931158165
:1000D000257F95027508810609381581257F9501D0
:1000E00075088106050C0A38021581257F95017572
:1000F000088106C0C005010980A101850319012AF4
:10010000B700150126B700950175108100C0050CD8
:100110000901A101850419012AA002150126A002E6
:10012000950175108100C005010906A1018506052C
:100130000719E029E71500250195087501810205D9
:1001400007190029EF1500250195F07501810205B9
:10015000081901290595057501910295017503910D
:1001600001C00660FF0961A1010962150026FF00B8
:100170009520750881020963150026FF00952075FA
:10018000089102C005010906A101050719E029E748
:1001900015002501950875018102950175088101F9
:1001A0000507190029FF150026FF0095067508812F
:1001B000000508190129059505750191029501753C
:1001C000039101C0000000000000000000000000DA
:1001D000000000000000000000000000000000001F
:1001E00000000000000000007E0F00D4FFFFFFC7EA
:1001F0000000007800000000000000002A2B28000A
:1002000000000000000000000000000000000029C5
:10021000000000002C1E3420212224342627252E05
:10022000362D3738271E1F2021222324252633333D
:10023000362E37381F0405060708090A0B0C0D0E69
:100240000F101112131415161718191A1B1C1D2F35
:100250003130232D350405060708090A0B0C0D0E55
:100260000F101112131415161718191A1B1C1D2F15
:100270003130354C35001E001F00200021002200C7
:1002800050004F00230024002500260027002A00EC
:100290004C0014001A0008001500170061522F00CE
:1002A0001C0018000C001200130031003944040037
:1002B0001600070009000A00000000000B000D00F6
:1002C0000E000F0033003400E1001D001B0006008B
:1002D00019000500002F3000110010003600370013
:1002E0003800E50029000000E000E200E300000023
:1002F000000000000000E700E600E4000000BD523E
:10030000000028002A002C00620000520152510017
:10031000520050002C002A004F00000001003A005B
:100320003B003C003D003E00440045003F004000D3
:1003300041004200430001000100010001000100F2
:100340000100310201000100010001000100010073
:100350000100010001000100010001000100010095
:100360000000000001000100010001000100010087
:10037000010001000100010001003502010001003F
:100380000100010001000100010001000100010065
:100390000100010001000000000000000000010059
:1003A0000100010001000100000001000100010046
:1003B0005900005202520100010001000100010039
:1003C0000100000001000100010001000100010026
:1003D0000100010001000100010001000100010015
:1003E0000100010001000100010001000100010005
:1003F00001000100010001000100010001000100F5
:1004000001000100010001000000000001000100E6
:1004100001000100010001000100010001000100D4
:1004200001000100010001000100010001000100C4
:1004300001000100010001000100010001000000B5
:1004400000000000000001000100010001000100A7
:1004500000000100010001005A0000520352010097
:100460000100010001000100010000000100010085
:100470000100010001000100010001000100010074
:100480000100010001000100010001000100010064
:100490000100010001000100010001000100010054
:1004A0000100010001000100010001000100010044
:1004B0000000000001000100010001000100010036
:1004C0000100010001000100010001000100010024
:1004D0000100010001000100010001000100010014
:1004E0000100010001000000000000000000010008
:1004F00001000100010001000000010001000100F5
:100500005B000052045201000100010001000100E3
:100510000100000000001E061F062006210622061C
:1005200052010000230624062506260627060000A1
:1005300000000000000052001506170650010000E0
:100540000000000000000000130600000000000092
:10055000500051004F00000000000000500051000A
:1005600052004F00000000000002000000000000E8
:10057000000000004F0100001106100600000000FE
:100580000000000000000000A152A452A852000088
:10059000000000000000B852B452B1520000000048
:1005A0000000027C000000005C0000520000AA0075
:1005B000A900BD0000000000BE00000009025B00B1
:1005C000030100A0FA090400000103010100092150
:1005D0001101000122400007058103080001090400
:1005E0000100020300000009211101000122220084
:1005F0000705820320000107050303200001090409
:100600000200010300000009211101000122B600CF
:100610000705840320000112010002000000080900
:100620001228230100010200011203450072006735
:10063000006F0064006F006E006500000012034B45
:10064000002E0054002E0045002E0043002E000016
:1006500000040309040011241FBECFEFDAE0DEBF5F
:10066000CDBF11E0A0E0B1E0E4EAF5E402C00590FE
:100670000D92AE34B107D9F722E0AEE4B1E001C08B
:100680001D92A537B207E1F70E94661B0C947E22EB
:100690000C940000982FE09171024091380257E0CD
:1006A000E41302C080E008952E2F30E05E9FF00139
:1006B0001124E75CFD4F8181681306C08081981387
:1006C00003C085818111EFCFF9013196E770E8CF42
:1006D000E8EDF0E080818E7F80831092E20010923E
:1006E000DA001092E100A0EEB0E08C9181608C9372
:1006F00080818F77808319BCA7EDB0E08C918E7FCD
:100700008C9380818F7E80831092090208952091BE
:10071000E4003091E50095E6A9012091EC00822FDC
:10072000817020FF06C08091E80080FF06C080E055
:1007300008952091E80022FD1AC080912E0288239E
:1007400089F0853089F08091EB0085FD0FC0209104
:10075000E4003091E50042175307F9F29150E1F6B9
:1007600084E0089582E0089583E0089581E008958B
:100770008091300287FF13C08091E80082FF06C09D
:100780008091E8008B778093E80004C080912E026E
:100790008111F2CF089580912E028823D9F38091A0
:1007A000E80080FFF8CF8091E8008E77ECCF982F9B
:1007B0009093E900242F762F50E0891731F0709143
:1007C000EC002091ED005091F00021FD07C09F5FEB
:1007D000973071F78093E90081E008953091EB0044
:1007E0003E7F3093EB003091ED003D7F3093ED0084
:1007F0003091EB0031603093EB007093EC0020936C
:10080000ED005093F0002091EE0027FDE0CF80E056
:100810000895B0E0A0E0EFE0F4E00C94D121C8ED41
:10082000D0E088818F7E8883E7EDF0E08081816071
:10083000808384E082BF81E08093090288818E7F7B
:10084000888302EE10E0F80110821092DA0081EE47
:10085000C82ED12CF601108288818F7788838881F9
:100860008068888388818F7D888319BC10922E02CE
:1008700010922F0210922D0210922C0290EEE92E6F
:10088000F12CF70180818B7F808388818160888350
:1008900042E060E080E00E94D703F60180818E7F15
:1008A0008083F8018081816080838081886080837B
:1008B000F70180818E7F8083888180618883CDB7B6
:1008C000DEB7E8E00C94ED21FC01CB01209136026B
:1008D000309137022617370790F0009729F42091BE
:1008E000E8002E772093E80040E0009751F4411192
:1008F00008C08091E80082FF31C080E00895C901FE
:10090000F3CF20912E022223A9F12530A9F12091C5
:10091000E80023FD2DC02091E80022FDEACF2091C0
:10092000E80020FFE2CF3091F3002091F200009721
:1009300019F02830310558F041E02830310509F030
:1009400040E02091E8002E772093E800CECF41913F
:100950004093F10001972F5F3F4FE9CF80912E0226
:10096000882341F0853041F08091E80083FFC1CFBA
:1009700081E0089582E0089583E0089580910B025C
:10098000089587E797E7909301088093000888E12E
:100990009AE00FB6F894A895809360000FBE9093EC
:1009A0006000FFCF9C01809108018823C9F08091ED
:1009B000070287FF15C0E62FE695E695E695603FAE
:1009C000E0F4E20FF32FF11D677081E090E001C0C9
:1009D000880F6A95EAF7809592818923828308952A
:1009E000F9013296285F3F4F8191681303C0DF0100
:1009F00011971C92E217F307B9F708959C018091B3
:100A000008018823C1F08091070287FF14C0E62FF8
:100A1000E695E695E695603FF8F4E20FF32FF11DB9
:100A2000677021E030E001C0220F6A95EAF7828109
:100A3000822B82830895F90132968FEF90E04191E5
:100A4000641751F08F3F19F4411101C0892F9F5F46
:100A50009630A9F78F3F09F40895280F311D87FDBF
:100A60003A95F90162830895A3E0B0E0EAE3F5E086
:100A70000C94D7219C018091000290910102821771
:100A80009307A1F03093010220930002E091FE0150
:100A9000F091FF01309751F084E089833B832A83F2
:100AA0000680F781E02DCE01019609952396E2E0BC
:100AB0000C94F321A3E0B0E0E0E6F5E00C94D7213C
:100AC0009C018091FC019091FD0182179307A1F098
:100AD0003093FD012093FC01E091FE01F091FF01B4
:100AE000309751F083E089833B832A830680F78126
:100AF000E02DCE01019609952396E2E00C94F321B6
:100B0000E091FE01F091FF01309729F00190F08112
:100B1000E02D0995089580E008958091F10180FD10
:100B200016C081FD16C082FD16C08091F001882399
:100B3000A1F0883280F428E0829FC001112468E28D
:100B400070E00E94FE21862F672B39F0089582E025
:100B5000089584E0089588E0089581E008958091E3
:100B6000F10180FD14C081FD14C082FD16C080918A
:100B7000EF01882381F08E3180F420E5829FC0014F
:100B800011246EE170E00E94FE21862F089584E119
:100B9000089588E2089588E0089580E5089580E04A
:100BA00008959091070292FF06C0282F28712830DF
:100BB000F9F4877F846093FF06C0282F28712831BD
:100BC000F1F4877E84612091080220FF06C0382F4F
:100BD00038713830D9F4877F816021FF06C0282F13
:100BE00028712831D1F4877E816194FD877E089534
:100BF000282F24712430F9F68B7F8860DCCF282FD2
:100C00002471243101F78B7E8861DDCF382F31715B
:100C1000313019F78E7F8860E0CF282F2171213184
:100C200021F78E7E8861E1CF803E9105C1F1C8F445
:100C30008133910509F47DC048F48932910509F4A6
:100C40006DC08A32910509F47BC0089589339105FE
:100C5000D1F082389105B9F08533910509F459C076
:100C60000895843E9105C1F138F4823E910521F149
:100C7000833E910531F10895863E9105C1F1873E8D
:100C80009105E1F1089520910702237009F065C0F4
:100C90002091080223FF14C089E290E0089520917A
:100CA000070220FD43C03091080230FF09C024FF35
:100CB0004EC090E080E008952091070222FDF7CF1A
:100CC00008952091070222FD45C03091080230FDB1
:100CD00044C024FFF5CFEDCF2091080221FFF0CFD3
:100CE0008091070284FDE5CF87EE90E00895209182
:100CF000070223FFE5CF24FDDCCFF6CF20910702CA
:100D000023FD2EC03091080231FFE3CF84EE90E046
:100D100008952091070225FFD3CFBECF209107026F
:100D200025FD21C02091080223FFCACF89E390E06E
:100D3000C7CF2091070226FFC3CF8AE290E0089533
:100D40002091070226FFBCCF81E390E0089583EE57
:100D500090E0089582EE90E0089580EE90E008958E
:100D600086EE90E0089585E390E008951F93CF9379
:100D7000DF930E941406EC018115924508F05FC0D4
:100D8000C11580E5D80708F0DDC0C03ED10538F5B3
:100D9000CD3CD10508F0AEC0C83AD10580F4C53AC3
:100DA000D10508F0A4C0C130D10509F443C0CE017B
:100DB0000497813A9105F0F1D0E0C0E03BC0CE014C
:100DC000885A91094B97C0F7C85AD0E0CC0FDD1F65
:100DD000C75FDE4F0990D881C02DD4642BC0C115E8
:100DE00090E4D907F0F4C11520E2D20708F0C4C09E
:100DF000C83ED105F8F0CE019A9581159F41E0F6E5
:100E00008D2F0E94D105182FCE0199270E9414061C
:100E1000C12FD0E0DC2FCC27CC27DF71C82BD92BFA
:100E200009C0CE0199270E941406CC27DF70C82B79
:100E3000D92BD06ACE01DF91CF911F910895C03890
:100E400082E5D807B8F5C03692E5D90708F05BC04F
:100E5000C03422E5D207C8F4C03282E5D80708F0D2
:100E60004BC02C2F2695269590E2299F90011124A6
:100E70008C2F8370C1E0D0E002C0CC0FDD1F8A95BB
:100E8000E2F7C22BD32BDD68D5CF2C2F26952695E4
:100E9000277080E2289F900111248C2F8370C1E07D
:100EA000D0E002C0CC0FDD1F8A95E2F7C22BD32B16
:100EB000DC68C0CFC03C92E5D90760F48C2F8F71FD
:100EC000C03AD245A8F5C82FD0E0DC2FCC27C46F9C
:100ED000D06AB0CFCE01805C9245809708F06CCF8D
:100EE000DC2FCC27CC27DF71C06FD06AA3CFA497AB
:100EF000D064A0CFD0659ECFCF71D0E0DC2FCC27BF
:100F0000C16FD06A97CF2C2F26952695277080E247
:100F1000289F900111248C2F8370C1E0D0E002C083
:100F2000CC0FDD1F8A95E2F7C22BD32BDA6882CF74
:100F30000E94D105C82FD0E0DC2FCC27CC27DF7151
:100F4000D06278CF8C2F8F710E94D10555E0D69555
:100F5000C7955A95E1F7CF70D0E0DC2FCC27282F2A
:100F600030E084FF05C044E0220F331F4A95E1F7CB
:100F7000C22BD32BD0695ECF8D2F8F710E94D105EC
:100F8000182FCE0199270E941406C12FD0E0DC2F24
:100F9000CC27CC27DF71C82BD92BD2CF982F909597
:100FA0008091BD0189238093BD01089580917102D4
:100FB00090913802981301C008958F5F8770FACF1F
:100FC000292F963078F58E3068F590E03EE0239F2B
:100FD000800D911D1124682F677023E096958795E9
:100FE0002A95E1F7FC01EE0FFF1FE80FF91FEE58FD
:100FF000FE4F50E040E080E0219130E0062E02C03C
:10100000369527950A94E2F721703327042E01C004
:10101000220F0A94EAF7822B4F5F5F4F433051054E
:1010200059F7089580E00895292F963090F58E3075
:1010300080F590E03EE0239F800D911D1124282F24
:10104000277041E001C0440F2A95EAF723E0969506
:1010500087952A95E1F7FC01EE0FFF1FE80FF91FB6
:10106000EE58FE4F90E080E070E05191DF01119763
:101070009B01082E02C0369527950A94E2F721704D
:1010800021952527242325272C930196833091052C
:1010900061F708958093D301089580FF09C02D9AC8
:1010A00081FF08C02E9A82FF07C02B9A81E0089525
:1010B0002D98F6CF2E98F7CF2B98F8CF829594E005
:1010C000899F900111242C7C869586958373282B0B
:1010D00030E0C901880F991F8A7A359527952575C3
:1010E000822B0895982F82958F7011F0982F84E0AD
:1010F000292F2695269511F08E5F922F969509F04F
:101100008F5F0895559A5D9A0895239A2B9A0895B2
:10111000239A2B980895269A2E9A0895269A2E9807
:101120000895259A2D9A0895259A2D980895CF937C
:10113000C82F0E9482080E9494080E948E080E9474
:1011400088088C2F0E947208823049F0833051F059
:10115000813011F40E9491088C2FCF9108950E9444
:101160008B08FACF0E948508F7CF0E9497088093DA
:10117000D40108959091D40121E030E0F90101C03B
:10118000EE0F8A95EAF7D90102C0AA0FBB1F6A9534
:10119000E2F7EA2B01C0220F4A95EAF7892F8E2346
:1011A000E81305C0292B822F0E94B50808952095C9
:1011B0002923F9CF21E030E001C0220F8A95EAF718
:1011C00020958091D40182230E94B50808959091C2
:1011D0009A018095892380939A01282F277069F4BA
:1011E000891759F09091080292FF07C0869586955D
:1011F00086950E94DA0810929A01089521E030E065
:1012000001C0220F8A95EAF78091D401822B0E94B7
:10121000B5080895A1E0B0E0E0E1F9E00C94D42134
:10122000F82E698304E610E021E030E0AE014F5F64
:101230005F4F682F80E40E943921892B71F46CE0A4
:101240006F0D21E030E0AE014F5F5F4F80E40E9400
:1012500039219C0181E0232B09F080E02196E5E013
:101260000C94F0218091C20181110BC06FEF81E0DD
:101270000E940A0991E098278091C201890F80930A
:10128000C2010895CF936FEF80E00E940A09C1E088
:10129000982F9C278091C201890F8093C2016FEF24
:1012A00081E00E940A09982F9C278091C201890F32
:1012B0008093C201CF9108950F931F93CF93DF9333
:1012C0008B01EA0190912E02943061F58093E90040
:1012D0008FEF9091E800815095FD06C095ED9A95AD
:1012E000F1F700008111F5CF8091E80085FF1AC069
:1012F0000E948703811111C08091E80085FD06C01E
:101300008091E8008E778093E800F2CFF801819118
:101310008F018093F100219779F78091E8008E7713
:101320008093E800DF91CF911F910F910895BC0148
:1013300043E050E084E00E945C090895BC0146E06F
:1013400050E084E00E945C090895CF93DF93D82F8A
:10135000C92F80910801811113C048E050E06D2F22
:10136000792F81E00E945C0980E2ED2FFC2FACE038
:10137000B2E001900D928A95E1F7DF91CF91089547
:101380008091070287FF06C040E284E050E06D2FA5
:101390007C2FE8CF48E081E0F9CFCF93DF93C1E71E
:1013A000D3E060E0CE010E943D222196C11584E089
:1013B000D807B9F7DF91CF9108951F93CF93DF93AB
:1013C000962F122F632F8530D8F49630C8F44E3004
:1013D000B8F4C42FD0E0CC0FDD1F2CE1929FC00DDC
:1013E000D11D112498EA899FC00DD11D1124CE0171
:1013F00089960E943D22612FCE018A960E943D224D
:10140000DF91CF911F910895AF92BF92CF92DF925B
:10141000FF920F931F93CF93DF93B12CA12C00E089
:10142000650110E013C0FE01259134914F2D612F0D
:10143000802F0E94DD092296F3948EE0F812F3CFFC
:101440008EE0C80ED11C1F5F163039F0E601CC0FBC
:10145000DD1FCC58DD4FF12CE6CF0F5F84E5A80EE1
:10146000B11C0530E9F6DF91CF911F910F91FF90EC
:10147000DF90CF90BF90AF900895CF93C82F6FEFBC
:10148000811163E285E290E00E943D226FEFC1117D
:1014900066E086E290E00E943D226FEFC11164E2B7
:1014A00087E290E00E943D22CF91089580E00E9463
:1014B0003D0A60E088E290E00E943D220E94040A1A
:1014C0000E94CD0981E00E943D0A08950F931F9369
:1014D000CF93DF93853030F5663020F54E3010F530
:1014E000C42FD0E0CC0FDD1F2CE1629FC00DD11DB9
:1014F000112438EA839FC00DD11D1124CE01899695
:101500000E941F22082F10E0102F0027CE018A967C
:101510000E941F229801282BC901DF91CF911F91B2
:101520000F91089590E080E0F8CF462F672F763036
:1015300038F44E3028F4853018F40E94660A089575
:1015400080E090E00895B0E0A0E0E9EAFAE00C94D1
:10155000D2217C010091D4018091D301082BC4E0F9
:10156000D0E010E0DC2EC8010C2E02C095958795C6
:101570000A94E2F780FD09C02197A0F7D12C8D2DA8
:10158000CDB7DEB7E7E00C94EE21B7018C2F0E94B7
:10159000950A0E94B606019779F3F1CFCF93DF93B6
:1015A000D82FC92F0E94A30A6D2F7C2F0E94950A65
:1015B0000E94B606DF91CF910895FC0184818823B3
:1015C000A1F0808191810E94CE0A282F92959F7070
:1015D000963091F060F4925F9F70923030F481E029
:1015E000203F81F030F4283E30F080E004C09A5F64
:1015F000F3CF243FD1F7089581E0283E20F0213F2A
:10160000A1F7F9CF08950895A6E0B0E0EAE0FBE085
:101610000C94D62149835A83392F89819A813323A7
:1016200099F0222389F00E94A30A182F682F89813C
:101630009A810E94140869817A81812F0E94950AFB
:101640002696E3E00C94F2210E94E007182FF3CFD6
:1016500085E290E00E941F22833289F486E290E0C6
:101660000E941F22863059F487E290E00E941F22D8
:1016700091E0843209F090E0892F8170089580E034
:10168000FCCF8091BD019091BC01892B80935001CA
:101690009091BB019923A1F0892B809350018091F7
:1016A00008018823E1F18091070287FF38C08EE1AD
:1016B000E2E5F1E090E08150A0F591111092BB01BC
:1016C00040E250E06BE971E080E591E00E94712218
:1016D000892B21F180E2E0E5F1E0ABE9B1E0019096
:1016E0000D928A95E1F7E091FE01F091FF013097AC
:1016F000A9F080910801882359F08091070287FFA3
:1017000007C0809150018093510186E08093500181
:101710000280F381E02D80E591E00995089586E04F
:10172000C7CF2191222339F29F5FC5CF882321F0B3
:101730000E94CE070E94410B0895882339F09091B2
:10174000BD01892B8093BD010E94410B08959091AA
:10175000080292FB222720F9281779F080FB92F9E2
:1017600090930802609107027091080284E090E073
:101770000E945B2282E00E94E70808951F920F9268
:101780000FB60F9211242F933F934F935F936F9354
:101790007F938F939F93AF93BF93EF93FF9380912A
:1017A000E10082FF09C08091E20082FF05C08091C4
:1017B000E1008B7F8093E1008091DA0080FF24C0FC
:1017C0008091D80080FF20C08091DA008E7F8093C6
:1017D000DA008091D90080FF9BC080E189BD82E161
:1017E00089BD09B400FEFDCF81E080932E02809177
:1017F0000902811109C00E9468030E9409048091B6
:10180000E20084608093E2008091E10080FF17C0D5
:101810008091E20080FF13C08091E2008E7F809370
:10182000E2008091E20080618093E2008091D80024
:1018300080628093D80019BC85E080932E0280914D
:10184000E10084FF29C08091E20084FF25C080E18F
:1018500089BD82E189BD09B400FEFDCF8091D80029
:101860008F7D8093D8008091E1008F7E8093E1008E
:101870008091E2008F7E8093E2008091E20081609F
:101880008093E20080912F02882309F447C084E00E
:1018900080932E0280912E028091E10083FF27C069
:1018A0008091E20083FF23C08091E100877F8093D5
:1018B000E10082E080932E0210922F028091E100DD
:1018C0008E7F8093E1008091E2008E7F8093E20022
:1018D0008091E20080618093E20042E060E080E07D
:1018E0000E94D7038091F00088608093F000FF9100
:1018F000EF91BF91AF919F918F917F916F915F9188
:101900004F913F912F910F900FBE0F901F90189500
:1019100019BC10922E021092090276CF8091E3003A
:1019200087FD02C081E0B4CF83E0B2CF78941F92EC
:101930001FB61F9211248F939F93AF93BF938091F3
:10194000030290910402A0910502B0910602019653
:10195000A11DB11D8093030290930402A093050280
:10196000B0930602BF91AF919F918F911F901FBEC0
:101970001F9018959C014FB7F894809103029091A5
:101980000402A0910502B09106024FBF821B930B87
:1019900008952FB7F8948091030290910402A091CA
:1019A0000502B09106022FBF08950E94C90C209134
:1019B000F8013091F901232B21F08093F4019093E9
:1019C000F5012091FA013091FB01232B21F0809346
:1019D000F2019093F301E091FE01F091FF01309745
:1019E00049F082E08093F6010480F581E02D86EFD6
:1019F00091E0099508951092BD0180910801E2E5FA
:101A0000F1E0882329F18091070287FF21C08EE150
:101A1000DF011D928A95E9F790E080E00E945A0567
:101A200090E080E00E9434051092BC010E94410BBE
:101A300086E0E6EFF1E0DF011D928A95E9F710926A
:101A4000EF011092F0011092F1010E94D50C08955F
:101A500086E0DECFAAE2B0E0E0E3FDE00C94D62120
:101A600080E392E0FC0101962091F100208322E0C6
:101A700088339207B9F780913102893009F456C052
:101A8000C8F4823009F4B3C0833009F482C08130D5
:101A900071F18091E80083FF85C2809130029091BE
:101AA00031029A3008F07EC2E92FF0E0E058FD4D97
:101AB0000C9412228A3009F489C08B3051F780913E
:101AC0003002813231F78091340290913502892BB6
:101AD00001F78091E800877F8093E8000E94B803B7
:101AE00080913202809308010E94FB0CD2CF80913A
:101AF0003002813A71F68091E800877F8093E80098
:101B00008091340290913502892B61F460E28CE07F
:101B100092E070E00E9464048091E8008B778093EB
:101B2000E800B7CF60E090E080E0F3CF8091300232
:101B3000813209F0AECF80913402909135028D7FD1
:101B4000892B09F0A6CF8091E800877F8093E80079
:101B50008091E80082FF18C09091F3008091F2001C
:101B6000029731F48091F100813011F0863021F438
:101B70008091F10080930B028091E8008B77809335
:101B8000E8000E94B80385CF80912E028111E0CF3A
:101B900080CF80913002813A09F07BCF809134026E
:101BA00090913502892B09F074CF8091E800877FEE
:101BB0008093E8008091E80080FFFCCF80910801CD
:101BC0008093F1008091E8008E77D9CF8091300228
:101BD000813209F05ECF8091E800877F8093E80032
:101BE0000E94B8038091330280930A0252CF809101
:101BF0003002813A09F04DCF8091E800877F8093D1
:101C0000E8008091E80080FFFCCF80910A02D8CFE5
:101C1000803899F0823809F0C5C1809134028F7004
:101C2000873008F0BFC18093E9008091EB0085FB0D
:101C3000882780F91092E90006C080912C029091CB
:101C40002D02911182609091E800977F9093E800B7
:101C50008093F1001092F1008091E8008E779EC190
:101C6000882309F48CC1823009F09CC18091320232
:101C700081118FC1809134028F702FEF280F263091
:101C800008F090C18093E9002091EB0020FF81C112
:101C9000933031F48091EB0080628093EB0079C146
:101CA0009091EB0090619093EB0021E030E001C057
:101CB000220F8A95EAF72093EA001092EA008091B9
:101CC000EB008860EACF81116DC1109132021F775D
:101CD0008091E3008078812B8093E3008091E8007D
:101CE000877F8093E8000E94B8038091E80080FF1E
:101CF000FCCF8091E30080688093E30082E01111C3
:101D000083E080932E024EC18058823008F04AC191
:101D100040913202509133024C3D83E05807A1F5C7
:101D200083E08A838AE289834FB7F894DE011396B1
:101D300020E03EE051E2E32FF0E050935700E491C1
:101D400020FF03C0E295EF703F5FEF708E2F90E0B1
:101D5000EA30C0F0C7968D939D932F5F243159F7D9
:101D60004FBF8091E800877F8093E8006AE270E0CF
:101D7000CE0101960E9464048091E8008B778093E5
:101D8000E80010C1C096E7CF8091340290913502EF
:101D9000252F33272330310509F44AC078F5213047
:101DA000310509F479C08BE590E0ECEBF5E02230E9
:101DB000310509F0F7C02091E800277F2093E80063
:101DC00020913602309137028217930708F49C0164
:101DD00040E02115310509F064C0411162C08091D5
:101DE000E80082FDC9CF80912E02882329F2853038
:101DF00019F28091E80083FFF2CFBECF2132310586
:101E000009F43BC02232310509F0CCC08330910582
:101E100008F0C8C0FC01EE0FFF1FEE5BFE4F019003
:101E2000F081E02D815C9E4FDC018C9190E011C02F
:101E3000CA019927413089F082309105B1F0892B90
:101E400009F0B0C0E1E5F6E0E4918E2F90E0E1E525
:101E5000F6E0009709F4A6C0AECFEDE3F6E0E4911A
:101E60008E2F90E0EDE3F6E0F4CFE9E2F6E0E491C6
:101E70008E2F90E0E9E2F6E0ECCF8330910508F098
:101E800091C0880F991FFC01E85BFE4F0190F08123
:101E9000E02D89E090E08FCF82E190E0E7E1F6E08D
:101EA0008ACF80912E02882309F466CF853009F409
:101EB00063CF8091E80083FD5FCF8091E80082FDD1
:101EC0008ECF8091E80080FF84CF9091F3008091C5
:101ED000F2002115310519F08830910550F041E0EC
:101EE000089709F040E08091E8008E778093E80041
:101EF00070CF44914093F100319621503109019601
:101F0000E8CF803809F04EC08091E800877F809349
:101F1000E80080912F028093F1009ECE811142C093
:101F2000109132021230F0F58091E800877F8093A3
:101F3000E80010932F020E94B803112311F084E0EF
:101F400005C08091E30087FDFACF81E080932E02E7
:101F500042E061EC81E00E94D70342E261EC84E060
:101F60000E94D70342E261EC82E00E94D70342E282
:101F700060EC83E00E94D70380912E0213C0809111
:101F80003202813079F481E0933009F080E080936F
:101F90002D021092E9008091E800877F8093E8008D
:101FA0000E94B8038091E80083FF0AC08091E80096
:101FB000877F8093E8008091EB0080628093EB0044
:101FC000AA96E3E00C94F2211F920F920FB60F92A3
:101FD00011242F933F934F935F936F937F938F932E
:101FE0009F93AF93BF93CF93DF93EF93FF93D091E2
:101FF000E900DF708091EC00C82FC17080FDC0E85F
:102000001092E9008091F000877F8093F00078942F
:102010000E942A0D1092E9008091F0008860809360
:10202000F000CD2BCF70C093E900FF91EF91DF91CD
:10203000CF91BF91AF919F918F917F916F915F9160
:102040004F913F912F910F900FBE0F901F901895B9
:102050000E94FB0C2FEF84E39CE0215080409040D5
:10206000E1F700C0000088E19AE00FB6F894A89567
:10207000809360000FBE90936000FFCF662309F449
:102080005DC08D3C41F40E94AF0581958093F901BC
:102090000E94D50C08958E3C19F40E94AF05F6CF2E
:1020A0008F3C31F40E94AF0581958093F801F0CF09
:1020B000803D19F40E94AF05F8CF893D29F40E94B4
:1020C0008D058093FA01E4CF8A3D21F40E948D05AD
:1020D0008195F7CF8B3D31F40E948D0581958093DA
:1020E000FB01D6CF8C3D19F40E948D05F8CF9FE2FD
:1020F000980F983070F4815D990B21E030E001C0B9
:10210000220F8A95EAF78091F701822B8093F701DD
:10211000BFCF8D3D31F48091F10181608093F10159
:10212000B7CF8E3D21F48091F1018260F7CF8F3DD2
:1021300009F0AECF8091F1018460F0CF4091F801B9
:102140008D3C59F48091F90187FF0DC01092F9017F
:1021500041110BC01092EF0108C08E3C81F48091B8
:10216000F90118169CF3442381F08091FA019091B3
:10217000FB01892B09F08CCF1092F00189CF8F3CA5
:1021800049F447FFF0CF1092F8018091F9018111D5
:10219000ECCFE0CF803D19F41416ACF3E4CF90916E
:1021A000FA01893D29F41916F4F61092FA01DBCFF1
:1021B0008A3D19F497FFD7CFF8CF9091FB018B3D63
:1021C00029F497FFD0CF1092FB01CDCF8C3D19F4AD
:1021D0001916CCF3C8CF9FE2980F983090F4815D28
:1021E000990B21E030E0B90102C0660F771F8A9594
:1021F000E2F7CB0180959091F70189238093F70155
:10220000B2CF8D3D31F48091F1018E7F8093F10149
:10221000AACF8E3D21F48091F1018D7FF7CF8F3DC4
:1022200009F0A1CF8091F1018B7FF0CF882399F144
:102230009CEF980F913A40F4682F80E591E00E945E
:10224000D2040E94410B089590E2980F983050F408
:10225000877091E001C0990F8A95EAF7892F0E9453
:10226000CE07EFCF9BE5980F933028F490E080E005
:102270000E945A05089598E5980F9B3128F490E044
:1022800080E00E943405089593E3980F933118F489
:1022900060E00E943E100895CF93C82F8823D1F1AB
:1022A0008CEF8C0F813AC0F580910801882311F1E1
:1022B0008091070287FF1EC0EC2FE695E695E69514
:1022C000F0E0E05BFE4F828190E04C2F477021E010
:1022D00030E002C0220F331F4A95E2F78223932396
:1022E000892B89F06C2F80E591E00E94D2040E9436
:1022F000410B09C0E2E5F1E08191C81799F321E0B3
:10230000E835F207C9F76C2F80E591E00E94FE04E2
:102310000E94410BCF91089580E28C0F883068F4C1
:10232000C77021E030E001C0220FCA95EAF7809122
:10233000BD01822B8093BD01EBCF8BE58C0F8330E9
:1023400038F42C2F2452330BC9010E945A05E2CFD6
:10235000E8E5EC0FEB3150F4F0E0EE0FFF1FE75F24
:10236000FE4F808191810E943405D4CF83E38C0F8E
:10237000833180F661E08C2F0E943E10CBCF0F930B
:102380001F93CF93C82F10E000E0893311F400E5CC
:1023900010E08C2F0E944C110115110539F48C2F7F
:1023A0000E941611CF911F910F9108958FE99FE020
:1023B0000197F1F700C0000001501109EDCFFF9225
:1023C0000F931F93CF93DF93C62FD42F122FFC01AF
:1023D00085818823A9F0609374020E94C90C9093B0
:1023E000730280937202C77081E001C0880FCA95A2
:1023F000EAF70E949D0BCDB7DEB7E5E00C94F02123
:1024000080917402681330C08091720290917302BF
:102410000E94BA0C883C910538F500E20D0FCD17EB
:10242000A9F0C770FF24F3948F2D01C0880FCA95BF
:10243000EAF70E94960B083048F48D2F877001C090
:10244000FF0C8A95EAF78F2D0E949D0B812F0E9429
:10245000BF11083080F6D77081E001C0880FDA958F
:10246000EAF70E94960BC7CFC77081E001C0880FC2
:10247000CA95EAF7F6CFA8E0B0E0E1E4F2E10C9407
:10248000C9218C01DC0114968C911497882309F4DE
:10249000B8C021E04C9111965C91119712966C9105
:1024A000129713967C91139715969C910E94040B9A
:1024B0007C01F8018581882309F43BC197013757D6
:1024C0002038310508F000C5FFE0FE1508F489C08A
:1024D0008FEF93E00E941F22811183C051E7A52E48
:1024E00053E0B52EE11049C01A821982FE013396DD
:1024F00086E0DF011D928A95E9F74AE0442E6501E6
:10250000BFEFCB1ADB0AC5010E941F2289831A8202
:10251000882309F466C0813009F077C07501E2E0D4
:10252000EE0EF11CC6010E941F228A83882309F443
:1025300058C09FEF980F933070F5F3E0AF0EB11CC9
:10254000C7010E941F228B83882309F44AC01C8282
:10255000DE0111967D01F7012081222381F22130D5
:1025600009F093C091818281913009F050C0F2E06E
:10257000EF0EF11C0E94BF1151C0A11424E0B2065D
:1025800081F1C5010E941F22811101C0EA943FEF31
:10259000A31AB30AA7CF8430D9F432E0C32ED12CCA
:1025A000C7012FEFE21AF20A0E941F22E1E0F0E0D9
:1025B000EC0FFD1FEC0DFD1D8083882391F08C37FF
:1025C00049F4E2E0F0E0EC0FFD1FEC0DFD1D108280
:1025D0005701BECF3FEFC31AD30A87E0C816D10414
:1025E000F9F680919A01877061F0D80115968C9167
:1025F000882339F08091080282FF03C082E00E94A4
:10260000E7082896E0E10C94E5215601A1CF92302D
:1026100049F422E0E20EF11C0E944C11EFEFEE1A99
:10262000FE0A99CF933031F432E0E30EF11C0E94A0
:102630001611F4CF943021F08FEFE81AF80AEECF9C
:1026400092E0E90EF11C30E020E0B7016F5F7F4FB0
:10265000D70111964C918053990B8A30910550F017
:1026600021503109D8F2EFE9FFE03197F1F700C0CE
:102670000000F6CF429EF001439EF00D11249C0114
:102680002E0F3F1F842F7B01E0CFE22FF0E0EC50B4
:10269000FE4F5490822F86958695869590E0FC019A
:1026A000EC51FE4F64902770712C022E02C075947D
:1026B00067940A94E2F731E063227724FC01EC523C
:1026C000FE4F8490912C022E02C0959487940A9418
:1026D000E2F7A1E08A229924FC01EC53FE4FC4905A
:1026E000D12C02C0D594C7942A95E2F7B1E0CB2251
:1026F000DD246114710419F081EE0E944C118114E3
:10270000910419F086EE0E944C11852D0E94BF1194
:102710008114910419F086EE0E941611611471045F
:1027200019F081EE0E941611CD2809F477CF8CE2C2
:1027300021CFF701E851FC47E730F10508F0B5C3B8
:10274000E657FD4D0C94122226E241EE61EEC801DF
:102750000E94DF1146CF27E245EE65EEF8CF26E274
:1027600041EE60EEF4CF27E245EE64EEF0CF26E2D4
:1027700041EE62EEECCF27E245EE66EEE8CF28E2CE
:1027800041E0EBCF80910702816080930702609166
:1027900007027091080284E090E00E945B220E9490
:1027A000FB0C1FCF80910802886080930802EFCF56
:1027B000809107028260E9CF809107028460E5CFB3
:1027C000809107028860E1CF809108028160EDCF9F
:1027D000809108028260E9CF809107028061D5CFA5
:1027E000809107028062D1CF809107028064CDCFB3
:1027F0000E94FB0C809107028068C7CF809107027E
:102800008C60C3CF809108028360CFCF8091070294
:102810008E7FBBCF80910802877FC7CF8091070250
:102820008D7FB3CF809107028B7FAFCF809107025E
:10283000877FABCF809108028E7FB7CF809108024F
:102840008D7FB3CF809107028F7E9FCF809107024B
:102850008F7D9BCF809107028F7B97CF0E94FB0CCF
:10286000809107028F7791CF80910702837F8DCF70
:10287000809108028C7F99CF8091070282FB992773
:1028800090F921E0922790FB82F990FB83F97DCFAC
:1028900080910802982F909591708E7F892B90FBE4
:1028A00081F983CF90910702892F8F7B96FF8064F7
:1028B0006CCF0E94FB0C90910702892F97FB87F940
:1028C000805863CF61E08EE090E00E943D225FCFB0
:1028D00060E0F9CF90910702892F8F7E94FF80618D
:1028E00054CF90910702892F8E7F90FF81604DCF4A
:1028F00090910802892F877F93FF886056CFF7E772
:10290000EF16FCE7FF0609F471C028E7E2162CE792
:10291000F20609F474C08823C9F03AE5E3163CE7EF
:10292000F30609F49CC008F070C091E0E9169CE73A
:10293000F90609F492C0A3E0EA16ACE7FA0609F436
:1029400086C0E114BCE7FB0609F474C0F801858178
:10295000C080D180882309F486C0C6010E94A30AE2
:10296000F82E682FC6010E941408B6018F2D0E9410
:10297000950A0E94B6067C01882ED80115967C9097
:10298000159716969C9092942FE0922280919A012E
:102990008770F1F0B72C7720E1F08F2D807F8034A5
:1029A00051F080E28E0D883098F0911004C08F2D88
:1029B000807E803269F08091080282FF09C082E047
:1029C0000E94E70880919A018770BB24B39481111B
:1029D000B12C8F2D82958F70C82ED12C8C3008F0A1
:1029E000ABC0F601EF56FD4D0C94122281E00E941F
:1029F000FE0843E062E081E00E94BA08F2CD88233D
:102A000011F082E0F4CF82E087C2EBE5EE16ECE74E
:102A1000FE0639F1FCE5EF16FCE7FF0609F096CF5C
:102A20008091080282FB882780F991E089270E9423
:102A3000A70B8CCF0E94FB0C2FEF34E38CE02150CE
:102A400030408040E1F700C000000E94C1046FEFF9
:102A50007FEF90E080E00E945B220E94281081E0DE
:102A6000E6CF80E0E4CFC6010E94E007F82E7DCFDC
:102A7000BF2DBF70AB2E8F2D807F19F0A29490EFE9
:102A8000A9228E2D7720B9F0AA2069F090E29E0D40
:102A9000983010F0E11009C08091BD01A82AA092E1
:102AA000BD010E94410B8E2D45C08091BC01A82A1A
:102AB000A092BC01F6CF0E941611AA20E9F180E293
:102AC0008E0D883010F0811004C08A2D0E94CE0730
:102AD00006C0A0948091BC01A822A092BC010E94D3
:102AE000410B2AC0EF2DEF70AE2E8F2D807F8032EC
:102AF00019F0A29480EFA8228E2D882059F0F1E0E1
:102B00008F1609F47EC0772009F48AC0992009F451
:102B10004BC0C9CF8091080282FD42C07720D1F11D
:102B2000AA2039F08091BD018A298093BD010E94BD
:102B3000410B80E00E944C11B8E0CB1AD108E4E0D0
:102B4000CE16D10420F40E9480050E944D08BB20BF
:102B5000B1F080919A0180FD12C0D80115961C92A7
:102B60008695869586950E94FE08C8010E943B12B4
:102B700080919A018695869586950E94DA0820E0D4
:102B8000F8014081518162817381848195810E9425
:102B9000040B37CD80E00E941611AA2069F295CF70
:102BA0007720A1F0911004C08A2D0E949D0BC4CF04
:102BB00021E09212C1CF8091BB019A2D9823A916D2
:102BC00009F4BACF8A298093BB01B6CF9110B4CF54
:102BD0008A2D0E94960B9091BB018A2D892329F0A2
:102BE0008A2D809589238093BB01909171018A2D54
:102BF000892309F4A1CF8A2D8095892380937101BF
:102C00009BCF772029F035E0391508F495CFCCCF4C
:102C100084E0891508F490CF8A2D0E94960B8CCF02
:102C20009920D1F3893349F49FEFA7EEB3E0915097
:102C3000A040B040E1F700C000008E2D0E941611A8
:102C40007BCF8F2D86958695837061F0813009F05A
:102C500073CFC7019370711002C080E090E00E94B2
:102C600034056ACFC7019370711002C080E090E014
:102C70000E945A0561CF672D8E2D0E943E105CCFB9
:102C80008F2D837099F5711057CF4E2D4295469533
:102C90004770440F440F8E2D8F70042E01C0880F93
:102CA0000A94EAF72E2D2071E4FE07C02FE030E0F1
:102CB00001C0220F4A95EAF720953F2D36953695AB
:102CC0003370323071F0333051F04091D3013130F4
:102CD00029F0822B84230E944A082ECF842B822B3A
:102CE000FACF282B8091D3018227F5CF86957720C4
:102CF00011F08F2D8170882309F41ECF4E2D42953F
:102D000046954770440F440F8E2D8F70042E01C0DE
:102D1000880F0A94EAF72E2D2071E4FE07C02FE0F9
:102D200030E001C0220F4A95EAF720953F2D3695F5
:102D300036953370323071F0333051F04091D40118
:102D4000313029F0822B84230E94B508F5CE842BE4
:102D5000822BFACF282B8091D4018227F5CFEF2D3B
:102D6000EF70FE2E772029F08E2F0E94FE088E2D08
:102D70001CCF8E2D0E94960B8F2D0E94DA08DCCE80
:102D80008E2DF2EF8F16B1F1F81570F020EF82164C
:102D9000D1F031EF831691F0772009F45EC09110E5
:102DA00082CE8F2D8F712AC093EF891651F1A4EF37
:102DB0008A12F2CF8091080282FD2FC08F2D8F7171
:102DC0007720D9F21BC0772081F0B4E0B91508F460
:102DD000B3CE2F2D2F7181E090E001C0880F2A958E
:102DE000EAF79091D4018927AFCFE5E0E91508F41F
:102DF000A3CEEFCF8F2D8F717110BFCF0E94FE0831
:102E00009BCE80E0772009F49FCF9F2D9F7181E0BA
:102E100001C0880F9A95EAF797CF772099F0FF2D98
:102E2000FF71FF2E8F2F0E94FE088091080282FF03
:102E300007C028E0F29EC0011124836080939A01AC
:102E40008F2DDCCF81E00E94E70831E0391508F0D2
:102E500073CE82E00E94E7086FCE992059F0893343
:102E600009F0EBCE8FEF97EEA3E081509040A040A9
:102E7000E1F7E1CE8F2D8F7180CFF6E1EF16FCE701
:102E8000FF0609F03CCD8091BD018A7A91E009F4FA
:102E900090E09093700169E2811165E380E591E033
:102EA0000E94FE040E94410B9CCB26E1E2162CE717
:102EB000F20659F58091700169E2811165E380E5C0
:102EC00091E00E94D204EECFF701E851FC47E730D1
:102ED000F10508F435CC1092740297013057233273
:102EE000310558F684E090E00E9427229093080272
:102EF00080930702F701E150F047E232F10508F054
:102F000041CCE356FD4D0C94122237E7E3163CE723
:102F1000F30609F0FACC81E00E94DA086ACDCF937B
:102F2000DF9380919901807F09F04DC080919801D5
:102F3000882309F448C0E091710250913802C09191
:102F40009401D0919301609195017091960147E0B1
:102F50005E17C9F18E2F90E0E49FF0011124E75C29
:102F6000FD4F2481222391F1489FF001499FF00DEC
:102F70001124DF01A75CBD4F11962C9111972C13E2
:102F800025C02C912D1322C015962C911597211137
:102F90001DC012962D913C91261B370B283C310504
:102FA000A8F4809199018F70806180939901E15C10
:102FB000FD4F80818F708061808383E991E00E9462
:102FC0003B120E94D607DF91CF910895FC01319604
:102FD000E770BECFADE0B0E0E0EFF7E10C94CD21BB
:102FE0008C0186E0F801DE01189601900D928A9519
:102FF000E1F7F8018481E58093E9A92E91E0B92EEB
:1030000090919701911128C0882319F1EE20F1F0D9
:10301000C8010E94DD0AF82E8823C1F087E0F8017C
:10302000D50101900D928A95E1F780919701813049
:1030300031F480919301909194010E94CE0A0E94F4
:103040008F178F2D2D96ECE00C94E921C8010E947A
:103050003B12FF24F394F5CFD080C180828093800F
:10306000F09098012091950130919601A401421BA6
:10307000530BFF2009F4BCC0483C510508F092C036
:103080008823F9F29091940180919901282F207F53
:1030900009F056C0C91214C090919301D91210C002
:1030A000E11048C08F7080618093990183E991E0BD
:1030B0000E943B1280919901F8018683F12CC1CFC7
:1030C000E11038C06C2D8D2D0E944A036C2D8D2D82
:1030D0000E944A03E82E8111F1CFD886C9868885DF
:1030E00099850E94CE0A292F22952F70903458F48A
:1030F0009F70223088F0992399F0F8019681907F93
:1031000079F4FE2C9ECF2A5F2F70223068F0C80120
:103110000E943B12EF2CF5CF992311F0882389F3FD
:10312000805E883070F3F3CF803F58F3815F833047
:1031300040F3EDCF80919901816080939901BECFDA
:10314000C91207C090919301D91203C0EE2009F46F
:1031500070C0C8010E94DD0A882309F477CFEE20F1
:1031600009F474CF80919901803288F02091930105
:10317000309194013A8329839C828B8290919701AC
:103180009D831E828F83CE0101960E943B1287E0B1
:10319000F801A3E9B1E001900D928A95E1F70E9450
:1031A0008F1757CF90919901292F207F51F483E9F0
:1031B00091E00E943B1287E0F50111928A95E9F7B0
:1031C0007DCF882309F43DCF809194018C11C1CF2C
:1031D00080919301D812BDCFE110BBCF9683C80177
:1031E0000E943B1287E0F50111928A95E9F729CFF9
:1031F000483C5105B8F7882309F42BCFFE2CEE206C
:1032000009F424CF809194018C1120C08091930106
:10321000D8121CC08091990180FD0FC0982F907F1B
:1032200061F08683903F31F0982F907F905F8F7090
:10323000892B8683C8010E943B1287E0F801A3E92D
:10324000B1E001900D928A95E1F7FBCEC8010E9492
:10325000DD0A81119CCF8091990181608093990151
:10326000C8010E943B12EDCEABE1B0E0EAE3F9E128
:103270000C94D5214E8B5F8B688F798F8A8F192F95
:103280009B8F91111092BC011D8A86E0FE017696FB
:10329000DE011F9601900D928A95E1F70A8D0023B9
:1032A00041F021E04F85588969897A89C8010E94D7
:1032B000040B0B8B1C8B87E0FE013F96DE011896FA
:1032C00001900D928A95E1F7CE0108960E94EA17C7
:1032D00081110CC087E0FE013896DE011196019045
:1032E0000D928A95E1F74C8541110BC017E0809152
:1032F000710290913802891332C06B96E4E00C940D
:10330000F1212091380230E0C90101968770992798
:103310005091710258171906A1F04D8397E0929FC2
:10332000D001939FB00D1124A75CBD4FFE013196D3
:1033300001900D929A95E1F7809338020E94D6078A
:10334000D5CF0E94FB0C109238021092710287E0D8
:10335000E3E9F1E0DF011D928A95E9F7C7CF819F8C
:10336000C0011124875C9D4F0E94EA17882329F22F
:103370008091710290E00196877099278093710285
:10338000B6CFA1E0B0E0E7ECF9E10C94C721809161
:10339000C201882371F08091C0019091C101019612
:1033A000811520E2920708F0E2C09093C10180935A
:1033B000C00187EC682E81E0782ECC24C394D12CF8
:1033C000E12CFF24FA94FC0CF301419051903F0151
:1033D000129212925F01F4E0CF1609F4DFC023E0ED
:1033E0002F1508F4CFC081E0F81609F4D1C092E09F
:1033F000F91609F4D0C0849A8C988091C201882370
:1034000009F4D2C08FE891E00197F1F700C0000005
:103410008091C201912C812C811126C09FEF99834C
:1034200004E610E021E030E0AE014F5F5F4F62E163
:1034300080E40E9464219C0191E0232B09F490E038
:103440008091C201890F8093C201898180950E9479
:103450005E08982F86958C779370892B982E95947B
:10346000882E8794882487944B99B1C000E410E09B
:103470004A99B0C0A0E2B0E04C99AFC0E0E1F0E002
:103480003699AEC068E070E04F99ADC044E050E0BE
:103490006699ACC022E030E083B182958F7091E0F4
:1034A000892780FB222420F8312CC1018829992901
:1034B000802B912B8A2B9B2BE82BF92B6E2B7F2BB0
:1034C000462B572B242B352BF50131832083F3E03A
:1034D000FF1609F49DC0FF1508F48BC021E0F21619
:1034E00009F48EC082E0F81609F48EC084988C9896
:1034F0008C9881E0F501208131812415350509F48E
:1035000080E0E82AFFEFCF1ADF0A27E0C216D104D5
:1035100009F057CFEE2009F483C081E08093C50104
:103520000E94C90C9093C4018093C3018091C30190
:103530009091C4010E94BA0C059708F475C04CE044
:1035400050E067EC71E083EE91E00E947122892BDC
:1035500009F46FC08CE0E7ECF1E0A3EEB1E001907C
:103560000D928A95E1F781E01092C5015EC010923C
:10357000C1011092C0011092C2010E9432090E9442
:10358000420917CFE4E0FE120CC0219A299835CFEA
:10359000859A8D9832CF869A8E982FCF879A8F985A
:1035A0002CCF229A2A9829CF61E070E00C2C01C020
:1035B000660F0A94EAF7609581E00E940A0991E09B
:1035C00098278091C201890F8093C20121CF10E01A
:1035D00000E04ECFB0E0A0E04FCFF0E0E0E050CF11
:1035E00070E060E051CF50E040E052CF30E020E0AA
:1035F00053CF94E0F91210C021982998299879CFD7
:1036000085988D988D9875CF86988E988E9871CF65
:1036100087988F988F986DCF22982A982A9869CF8B
:103620008091C501811182CF80E02196E2E10C9466
:10363000E32180E099CFA6E0B0E0E1E2FBE10C9469
:10364000D5210E94C90C8C018091BE019091BF01CF
:103650008017910781F019821A820E94C90C682F85
:1036600049815A81792F80E090E00E9434191093AB
:10367000BF010093BE012696E4E00C94F1211F9255
:103680001FB61F9211248F939F93AF93BF93809186
:103690000202811113C08091030290910402A09153
:1036A0000502B09106024196A11DB11D809303024F
:1036B00090930402A0930502B0930602BF91AF91CC
:1036C0009F918F911F901FBE1F901895CDB7DEB7A9
:1036D000A4970FB6F894DEBF0FBECDBF85B7806844
:1036E00085BF85B7806885BF84B7877F84BF0FB6E5
:1036F000F894A89580916000886180936000109292
:1037000060000FBE80E890E00FB6F89480936100EF
:10371000909361000FBE8FEC95E090934F018093E2
:103720004E010E9468030E9409048091E2008460B7
:103730008093E200789480912E028823A1F010916A
:10374000E9001F709091EC00892F817090FD80E856
:10375000182B1092E9008091E80083FD0E942A0D49
:103760001F701093E90082E084BD93E095BD9AEF4D
:1037700097BD80936E000E94280B811102C00E94A9
:10378000560A8091C60181110EC00E9449202FEF78
:1037900033ED40E3215030404040E1F700C00000ED
:1037A00081E08093C6012198299822982A988498CC
:1037B0008C9885988D9886988E9887988F98299858
:1037C0002A988C988D988E988F980E9432096E98BE
:1037D000769A52985A9A53985B9A54985C9A57984A
:1037E0005F9A3E98469A24982C9A0E944209E7ECE8
:1037F000F1E083ED91E0A3EEB1E0119211921D9200
:103800001D928E179F07C9F790E080E00E94272243
:10381000863E9E4F21F40E94280B811167C066EE00
:103820007EEF90E080E00E945B2260E082E090E02A
:103830000E943D2260E083E090E00E943D221092D1
:10384000D30160E074E184E090E00E945B2260E0DC
:1038500086E090E00E943D226FEF87E090E00E94BA
:103860003D2240E050E0BA0188E090E00E944F2203
:1038700060E084E290E00E943D2260E087E190E019
:103880000E943D2260E08CE090E00E943D2260E0DA
:103890008DE090E00E943D2219821A821B821C82D8
:1038A0001D821E821F82188648E050E068E170E0A9
:1038B000CE0101960E942D2240E050E0BA0180E244
:1038C00090E00E944F2280E00E943D0A0E94560A2A
:1038D00040E050E0BA018FE090E00E944F2240E0CB
:1038E00050E0BA0183E190E00E944F2282E090E034
:1038F0000E941F228093D50184E090E00E9427223D
:1039000090930802809307020E94C1198FEF96E7F7
:10391000A1E081509040A040E1F700C000000E946B
:10392000C1198091E30180FF08C06FEF7FEF90E045
:1039300080E00E945B220E94C10483E090E00E942C
:103940001F220E944A088091D4010E949708259A5C
:103950002D98269A2E98239A2B980E9494080E94BC
:103960008E080E9488080E948208559A5D98BFEFD1
:10397000E0E7F2E0B150E040F040E1F700C00000C5
:103980000E9491082FEF30E742E021503040404044
:10399000E1F700C000000E948B085FEF80E792E033
:1039A000515080409040E1F700C000000E9485081F
:1039B000AFEFB0E7E2E0A150B040E040E1F700C077
:1039C00000000E949408FFEF20E732E0F150204011
:1039D0003040E1F700C000000E948E084FEF50E732
:1039E00082E0415050408040E1F700C000000E945A
:1039F00088089FEFA0E7B2E09150A040B040E1F707
:103A000000C000000E9482080E9494080E948E0854
:103A10000E9488080E94820880E091E09093FF0154
:103A20008093FE01FFEE4F2EF1E05F2EA2EE6A2E94
:103A3000A1E07A2E80912E0200E112E1853009F496
:103A40009BC00E94C119E6ED8E2EE1E09E2EA3EEF2
:103A5000B1E0F401219131918D919D916E167F0617
:103A600009F496C028173907A9F373EEA72E71E061
:103A7000B72E312CD5010D911D915D01F401C1903E
:103A8000D1904F01C016D10661F1C026D126212C5C
:103A9000EE24E394F12CC6018E219F21892BB9F0ED
:103AA00029823A820E94C90C9C838B83F1E0FD83BA
:103AB00091E098012E213F21232B09F490E09E8371
:103AC00049815A816B817C818D810E9434192394B4
:103AD000EE0CFF1C2EE02212DECFF4013297118390
:103AE0000083339436E03312C5CF8FB7F8944091FA
:103AF00003025091040260910502709106028FBF8B
:103B00004DC080912E02843039F180E00E944D0832
:103B100010920202E8E1F0E020E40FB6F894A895D4
:103B2000E09360000FBE2093600083B7817F8460C4
:103B300083BF83B7816083BF7894889583B78E7F76
:103B400083BF0FB6F894A895809160008861809338
:103B50006000109260000FBE80912D02882361F0FA
:103B60000E94C119E3EEF1E081919191892B09F056
:103B700067C24E165F06C1F780912E02853009F4A8
:103B8000C0CF0E94FB0C0E9480050E944D0859CFB7
:103B90002817390709F069CF0E941B1B86E0E6EF62
:103BA000F1E0DE01119601900D928A95E1F71092F5
:103BB000F8011092F9011092FA011092FB010B81A9
:103BC0001C81802F812B09F448C08091F4019091D1
:103BD000F5010E94BA0C9C018091EF01882309F441
:103BE00053C225313105C8F18F3F19F08F5F8093A3
:103BF000EF01002359F00E94AF059FEF10160CF45F
:103C000091E0899F802D11248093F801112359F0B0
:103C10000E94AF059FEF11160CF491E0899F802D53
:103C200011248093F9013091F8013323B1F02091F0
:103C3000F901222391F045EB3403C00111249923AB
:103C400009F4BDC09093F80155EB250390011124B0
:103C5000332309F4B8C03093F9010D811E81802F00
:103C6000812B09F448C08091F2019091F3010E94E8
:103C7000BA0C9C018091F001882309F400C221351F
:103C80003105C8F18F3F19F08F5F8093F001002359
:103C900059F00E948D059FEF10160CF491E0899F5A
:103CA000802D11248093FA01112359F00E948D0573
:103CB0009FEF11160CF491E0899F802D11248093C1
:103CC000FB013091FA013323B1F02091FB01222353
:103CD00091F045EB3403C0011124992309F477C016
:103CE0009093FA0155EB250390011124332309F435
:103CF00072C03093FB0146E050E0BE016F5F7F4F22
:103D000086EF91E00E947122892B61F48091F80185
:103D10009091F901892B9091FA01892B9091FB01E7
:103D2000892B11F00E94D50C86E0FE013196A6EF9A
:103D3000B1E001900D928A95E1F70E948005909183
:103D4000E201891779F08093E2019FB7F8944091DE
:103D500003025091040260910502709106029FBF18
:103D60000E944D0880912E02843009F063CE83E0DA
:103D70008093E9008091E80082FF5CCE8091E800AA
:103D800090E085FF0BC00E94870340E2E42EF12CF7
:103D90008E010F5F1F4F882359F191E08091E80059
:103DA0008B778093E800992309F444CEE981E150B0
:103DB000E331C8F5F0E0E154FD4D0C94122281E0AE
:103DC0008093F80141CF81E08093F90146CF81E0F3
:103DD0008093FA0187CF81E08093FB018CCF8091A3
:103DE000F100D8018D938D01B1E0EB1AF108A9F231
:103DF0008091E80085FDF3CF8091E8008B77809378
:103E0000E8000E948703882399F3C7CF1A828CE0C9
:103E10008B832CC08A81833091F140F4813069F02A
:103E2000823009F423C18FEF898320C08430D9F711
:103E30001B821C821D821E8219C08FB7F8942091AC
:103E4000030230910402409105025091060229A319
:103E50003AA34BA35CA38FBF69A17AA18BA19CA1BC
:103E60000E9418226B837C838D839E8340E250E006
:103E7000BE016F5F7F4F82E00E945C09DBCD2B812A
:103E8000822F90E0FE013196225F8630910570F717
:103E9000DC01AA0FBB1FAD51BE4F3C9111964C9156
:103EA00043833483019632962813EFCFDFCF8A8184
:103EB000823019F08530D1F2B6CF8B819C81AD81F3
:103EC000BE8189A39AA3ABA3BCA3BC01CD010E9470
:103ED000182288E290E00E943D22C8CF4C816B817D
:103EE0008A810E94660A9827892798279E838D8356
:103EF000BDCF2D813E813227232732274C816B8114
:103F00008A810E94DD09B2CF0E94040AAFCF80E10E
:103F10008A83ACCF1A828FE87BCF0A811B8110275E
:103F200001271027DE0111967D01CC80FD01EC0DEB
:103F3000F11D6F01C8018F589C4FCE14DF0409F4A6
:103F400095CF0F38110558F40E941F22D7011496FF
:103F50008C930F5F1F4FFFEFEF1AFF0AEBCFF701B4
:103F60001482F7CF0A811B811027012710279E0199
:103F70002F5F3F4F6901EC80E00EF12EF11CC8016C
:103F80008F589C4FE016F10609F470CF0F381105D9
:103F900028F4D60114966C910E943D22BFEFCB1AF3
:103FA000DB0A0F5F1F4FEBCF0E94CD095FCF85E08B
:103FB000AFCF0A811B81102701271027FE01319600
:103FC0007F01CC809F012C0D311D6901C8018996AC
:103FD000CE14DF0409F44ACF083433E0130758F451
:103FE0000E941F22D70114968C930F5F1F4FFFEF83
:103FF000EF1AFF0AEBCFF7011482F7CF0A811B817A
:104000001027012710279E012F5F3F4F6901EC8089
:10401000E00EF12EF11CC80189960E151F0509F45A
:1040200025CF083433E0130728F4D60114966C9199
:104030000E943D22BFEFCB1ADB0A0F5F1F4FEBCF71
:1040400009BD19BD09B400FEFDCF8091D8008F7D58
:104050008093D8008091E00082608093E00080919E
:10406000E00081FDFCCF0E94FB0C86CD88E290E051
:104070000E941F221B821C821D828E83F7CE2B3052
:10408000310508F001CE37CE2B30310508F0AECD2A
:10409000E4CD1092B9008CE08093B8000895B0E0B0
:1040A000A0E0E5E5F0E20C94CE21B82EEB010E94F1
:1040B000C90C6C01EE24E394F12CC431D10560F0FD
:1040C00025E0E22EF12CCF3FDC0731F0CE0164E198
:1040D00070E00E94B3217B0184EAA82E94E8992E17
:1040E0001092BC00A092BC000E94C90C182F092F8E
:1040F0008091BC0087FF0DC08091B900887F883017
:1041000001F18091B900887F8031D9F00FEF1FEF66
:1041100009C0812F902F0E94BA0CE816F90640F7CB
:104120000EEF1FEFCF3FDC07D9F2C6010E94BA0C99
:10413000C817D907A8F6C801CDB7DEB7EBE00C94D5
:10414000EA21B092BB009092BC000E94C90C182FCB
:10415000092F8091BC0087FF0AC02091B900287FF9
:10416000283111F0203491F610E000E0E4CF812FE7
:10417000902F0E94BA0CE816F90658F7D1CF0F938A
:104180001F93CF93DF93EB018093BB0084E8809370
:10419000BC000E94C90C182F092F8091BC0087FF1A
:1041A00011C02091B900287F81E090E0283211F4FD
:1041B00090E080E0919581959109DF91CF911F91D9
:1041C0000F910895CF3FDC0741F3812F902F0E947C
:1041D000BA0CC817D90708F78EEF9FEFEECF0F93F1
:1041E0001F93CF93DF93EC0184EC8093BC000E947B
:1041F000C90C182F092F8091BC0087FF08C080913F
:10420000BB0090E0DF91CF911F910F910895CF3FB8
:10421000DC0789F3812F902F0E94BA0CC817D907A9
:1042200050F78EEF9FEFEECF0F931F93CF93DF9357
:10423000EC0184E88093BC000E94C90C182F092F60
:104240008091BC0087FF08C08091BB0090E0DF91A7
:10425000CF911F910F910895CF3FDC0789F3812FF4
:10426000902F0E94BA0CC817D90750F78EEF9FEF16
:10427000EECFB0E0A0E0EFE3F1E20C94D121C62F45
:104280006A017901B8010E944F209C0197FD0DC081
:10429000B8018C2F0E94BF209C01E601EC0CFD1C94
:1042A000CE15DF0511F037FF09C084E98093BC000B
:1042B000C901CDB7DEB7E8E00C94ED21B8018991D2
:1042C0000E94BF209C01ECCFB0E0A0E0EAE6F1E262
:1042D0000C94D121D82EC62EEA017901B8010E9492
:1042E0004F209C0197FD17C0B8018C2D0E94BF2064
:1042F0009C0197FD10C0B8018D2D81600E944F2058
:104300009C01D12CC12C81E0E81AF108CE14DF0405
:10431000F0F437FF0EC084E98093BC00C901181681
:10432000190614F490E080E0CDB7DEB7E8E00C9415
:10433000ED21C8010E94EF209C0197FD04C0FE0101
:10434000EC0DFD1D80838FEFC81AD80ADFCF37FD33
:10435000E2CFC8010E9414219C0197FDDCCFCE0D55
:10436000DF1D8883D8CFAA1BBB1B51E107C0AA1F42
:10437000BB1FA617B70710F0A61BB70B881F991F06
:104380005A95A9F780959095BC01CD0108952F927B
:104390003F924F925F926F927F928F929F92AF92D5
:1043A000BF92CF92DF92EF92FF920F931F93CF9322
:1043B000DF93CDB7DEB7CA1BDB0B0FB6F894DEBFB9
:1043C0000FBECDBF09942A88398848885F846E84DF
:1043D0007D848C849B84AA84B984C884DF80EE8029
:1043E000FD800C811B81AA81B981CE0FD11D0FB632
:1043F000F894DEBF0FBECDBFED01089597FB072EE9
:1044000016F4009407D077FD09D00E94B32107FC71
:1044100005D03EF4909581959F4F089570956195D4
:104420007F4F0895EE0FFF1F0590F491E02D099442
:104430006927962769277827872778270895F99984
:10444000FECF92BD81BDF89A992780B50895A8E165
:10445000B0E042E050E00C946322DC01A40FB51FF1
:104460004150504048F0CB01840F951F2E910E947F
:104470003E2241505040D0F70895262FF999FECFA3
:1044800092BD81BDF89A019700B4021639F01FBAA7
:1044900020BD0FB6F894FA9AF99A0FBE08950396C4
:1044A000272F0E943E220E943D22252F0E943E225D
:1044B000242F0C943E220196272F0E943E220C941A
:1044C0003D22DC01CB01FC01F999FECF06C0F2BD13
:1044D000E1BDF89A319600B40D9241505040B8F7C2
:1044E0000895FB01DC0104C08D910190801921F435
:1044F00041505040C8F7881B990B0895F894FFCF9E
:10450000080E300ED20F300ED20F630E840ED20F73
:10451000810F8E0FAF13B313A413AB13B713BB13D9
:10452000BF13381538157215721521163B169C15D8
:104530009C154016AF16C016C016061471140E1442
:10454000D813DC131214E01316142214EC136A149B
:10455000F0132614F4132A145214F8132E145914B9
:10456000FE1334143C14E4131A14E8131E1402143A
:104570003814481462146814D2130A147814061FED
:104580000A1F571F6E1F791F841F131F131F131F2E
:10459000131F131F871F8A1F8D1FB21FD41FD71F02
:0445A000D91FFE1F02
:1045A400BE04A5099E09970901E200E900EA00B5E5
:1045B40000B600B700CD008301CC008A01920194BB
:1045C400012102230224022502260227022A02B321
:1045D40000B4006F0070009F01CB019F02A0024055
:0E45E40022B684016201AC00CE05E705070691
:00000001FF
