:100000000C94C1030C94DE030C94DE030C94DE0309
:100010000C94DE030C94DE030C94DE030C94DE03DC
:100020000C94DE030C94DE030C94700F0C942816D1
:100030000C94F0270C94DE030C94DE030C94DE0386
:100040000C94DE030C94DE030C94DE030C94DE03AC
:100050000C94DE030C9449100C94DE030C94DE0324
:100060000C94DE030C94DE030C94DE030C94DE038C
:100070000C94DE030C94DE030C94DE030C94DE037C
:100080000C94DE030C94DE030C94DE030C94DE036C
:100090000C94DE030C94DE030C94DE030C94DE035C
:1000A0000C94DE030C94DE030C94DE0305010902BC
:1000B000A10185020901A100050919012905150001
:1000C00025019505750181029501750381010501E1
:1000D000093009311581257F950275088106093897
:1000E0001581257F950175088106050C0A380215D2
:1000F00081257F950175088106C0C005010980A191
:1001000001850319012AB700150126B7009501756D
:10011000108100C0050C0901A101850419012AA064
:1001200002150126A002950175108100C005010984
:1001300006A1018506050719E029E71500250195A7
:1001400008750181020507190029EF1500250195A1
:10015000F0750181020508190129059505750191C0
:1001600002950175039101C00660FF0961A10109B3
:1001700062150026FF0095207508810209631500AD
:1001800026FF00952075089102C005010906A1010E
:10019000050719E029E71500250195087501810279
:1001A0009501750881010507190029FF150026FF33
:1001B0000095067508810005081901290595057542
:1001C000019102950175039101C0FD377A585A00DB
:1001D0000004E6D6B4460200210116000000742F88
:1001E000E5A3E0060B016F5D003D8889C65436C368
:1001F000174FE4DDF7CB002F37A698544F5FCD396A
:10020000B09732EAC948BAAD41981C2AB1AFDF01B4
:1002100080A1E28EDEF88F92313171D313D4738BCB
:10022000B3016FFBDB82D9C34F850B93F2014E5DA7
:10023000E0ACB0EE347821D1E8D196B8A42CAFDE92
:10024000A0965DAC122CC456663A096B64B0CB9A8A
:1002500097AECBA6F35CC7C6CDDBE400CC433A38FF
:10026000006C04FB57032FDB6B471FCC653008374E
:10027000365A12922B9CA27EE2CEE9E37E5B598F26
:10028000277285A3843D4E4587C9BB1D5AF7AE52E0
:10029000E6715EBF0923059537C195671327D27BA9
:1002A0006D3517686251C6786F2E9EC301DA34B778
:1002B00055922F325E7801BD06DCDE601B246CDEB9
:1002C00045DEFC7B6EC49861CEAAD32C5523A26C6C
:1002D0004579F1CE62F78BC66FA93818972B446722
:1002E0003BB6183D0B1B81ABC01029012F9656F36E
:1002F0002AB2543928518D3816681CE890ECBB1E80
:10030000708E4B7D72A6FC7CBC70256916D3A93D0E
:10031000232F923F4CAD08F78AB8266ECE134A5A67
:100320001E8C2303EEF68CF7A687062309969E46BD
:10033000F500A5D95D0F1B71B55ADB2916EB9BC5DE
:100340000A279A9FE52ED860DCF1DC7BD239C5B351
:10035000DE92BBD0402A2FB70000048D5C51593388
:10036000914D00018B038C0C0000F1BA175EB1C4F3
:1003700067FB020000000004595A35001E001F00F0
:1003800020002100220050004F00230024002500FF
:10039000260027002A004C0014001A00080015004F
:1003A00017002E002F001C0018000C001200130074
:1003B0003100394404001600070009000A0000005B
:1003C00000000B000D000E000F0033003400E100B0
:1003D0001D001B000600190005002D003000110053
:1003E0001000360037003800E50029000000E0006A
:1003F000E200E3000000000000000000E700E6006B
:10040000E40000001D55000028002A002C006200B6
:10041000005001505100520050002C002A004F00A3
:10042000000001003A003B003C003D003E0044005B
:1004300045003F0040004100420043000100010030
:1004400001000100010001000100010001000100A4
:100450000100010001000100010001000100010094
:100460000100010001000000000001000100010086
:100470000100010001000100010001000100010074
:100480000100010001000100010001000100010064
:100490000100010001000100010001000000000056
:1004A0000000000001000100010001000100000047
:1004B000010001000100590000500250010001003C
:1004C0000100010001000100000001000100010025
:1004D0000100010001000100010001000100010014
:1004E0000100010001000100010001000100010004
:1004F00001000100010001000100010001000100F4
:1005000001000100010001000100010001000000E4
:1005100000000100010001000100010001000100D4
:1005200001000100010001000100010001000100C3
:1005300001000100010001000100010001000100B3
:1005400001000100000000000000000001000100A7
:1005500001000100010000000100010001005A003B
:1005600000500350010001000100010001000100E2
:10057000000000001E061F0620062106220652016A
:100580000000230624062506260627060000000094
:100590000000000052001506170650010000000080
:1005A00000000000000013060000000000005000E2
:1005B00051004F00000000000000500051005200A8
:1005C0004F000000000000020000000000000000DA
:1005D00000004F010000110610060000000000009E
:1005E00000000000000001550455085500000000FF
:1005F00000000000185514551155000000000000BF
:10060000015C000000005B0000500000AA00A9008F
:10061000BD0000000000BE00000009025B000301F5
:1006200000A0FA09040000010301010009211101E1
:1006300000012240000705810308000109040100B0
:100640000203000000092111010001222200070518
:1006500082032000010705030320000109040200B2
:10066000010300000009211101000122BC0007055F
:100670008403200001120100020000000809122872
:10068000230100010203011C037600690061006C74
:10069000003A006600360034006300320062003326
:1006A000006300000012034500720067006F0064E1
:1006B000006F006E006500000012034B002E005416
:1006C000002E0045002E0043002E00000004030908
:1006D0000400000000000000000000000000000016
:1006E000000000000000000000000000000000000A
:1006F00000000000007E0F00D4FFFFFFC7000000D5
:100700007800000000000000002A2B2800000000F4
:1007100000000000000000000000000029000000B0
:10072000002C1E3420212224342627252E362D3756
:1007300038271E1F202122232425263333362E3727
:10074000381F0405060708090A0B0C0D0E0F1011BF
:1007500012131415161718191A1B1C1D2F313023CC
:100760002D350405060708090A0B0C0D0E0F101194
:1007700012131415161718191A1B1C1D2F3130359A
:100780004C0011241FBECFEFDAE0DEBFCDBF11E079
:10079000A0E0B1E0EEEAF2E602C005900D92AA35C3
:1007A000B107D9F724E0AAE5B1E001C01D92A53355
:1007B000B207E1F70E9417280C942A310C9400002C
:1007C000E8EDF0E080818E7F80831092E20010924D
:1007D000DA001092E100A0EEB0E08C9181608C9381
:1007E00080818F77808319BCA7EDB0E08C918E7FDC
:1007F0008C9380818F7E80831092050408952091D0
:10080000E4003091E50095E6A9012091EC00822FEB
:10081000817020FF06C08091E80080FF06C080E064
:1008200008952091E80022FD1AC080912A048823AF
:1008300089F0853089F08091EB0085FD0FC0209113
:10084000E4003091E50042175307F9F29150E1F6C8
:1008500084E0089582E0089583E0089581E008959A
:10086000EF92FF920F931F93CF937C018B010E9415
:10087000FF03C82F811117C08091E80085FD0BC0D0
:100880008091E8008E778093E8000E94FF03882320
:1008900099F3C82F08C0F70181917F018093F1007F
:1008A0000150110949F78C2FCF911F910F91FF90A3
:1008B000EF90089580912C0487FF13C08091E80089
:1008C00082FF06C08091E8008B778093E80004C027
:1008D00080912A048111F2CF089580912A048823FF
:1008E000D9F38091E80080FFF8CF8091E8008E77FF
:1008F000ECCF982F9093E900242F762F50E08917A2
:1009000031F07091EC002091ED005091F00021FD4C
:1009100007C09F5F973071F78093E90081E00895E9
:100920003091EB003E7F3093EB003091ED003D7F46
:100930003093ED003091EB0031603093EB00709319
:10094000EC002093ED005093F0002091EE0027FD85
:10095000E0CF80E00895B0E0A0E0E1EBF4E00C949B
:100960006530C8EDD0E088818F7E8883E7EDF0E0C8
:1009700080818160808384E082BF81E08093050470
:1009800088818E7F888302EE10E0F8011082109239
:10099000DA0081EEC82ED12CF601108288818F7783
:1009A000888388818068888388818F7D888319BC4B
:1009B00010922A0410922B041092290410922804F9
:1009C00090EEE92EF12CF70180818B7F8083888166
:1009D0008160888342E060E080E00E947904F60153
:1009E00080818E7F8083F801808181608083808117
:1009F00088608083F70180818E7F80838881806119
:100A00008883CDB7DEB7E8E00C948130FC0180919B
:100A100032049091330486179707A0F06115710591
:100A200029F49091E8009E779093E80090E061159A
:100A3000710551F4911108C08091E80082FF34C023
:100A400080E00895BC01F2CF80912A048823C1F18F
:100A50008530C1F18091E80083FD30C08091E800CD
:100A600082FDEACF8091E80080FFE1CF8091F30022
:100A70002091F200382F6115710519F028303105E9
:100A800058F091E02830310509F090E02091E8001D
:100A90002E772093E800CBCF81918093F1006150B5
:100AA00071092F5F3F4FE7CF80912A04882341F0DF
:100AB000853041F08091E80083FFBECF81E008954A
:100AC00082E0089583E008950895809107040895D1
:100AD00087E797E7909301088093000888E19AE000
:100AE0000FB6F894A895809360000FBE90936000B5
:100AF000FFCF2FB7F8946091FC037091FD038091B4
:100B0000FE039091FF032FBF08952091100122232F
:100B1000C1F02091000427FF14C0E62FE695E6956A
:100B2000E695EE31F8F4E80FF92FF11D677021E03A
:100B300030E001C0220F6A95EAF78281822B82831E
:100B40000895FC0132962FEF30E04191641751F087
:100B50002F3F19F4411101C0232F3F5F3630A9F711
:100B60002F3F09F40895820F911D27FD9A95FC01EE
:100B7000628308952091F9033091FA032817390709
:100B800071F09093FA038093F903E091F703F091E9
:100B9000F803309721F00084F185E02D0995089540
:100BA0002091F5033091F6032817390771F09093DF
:100BB000F6038093F503E091F703F091F803309783
:100BC00021F00680F781E02D09950895E091F70363
:100BD000F091F803309729F00190F081E02D09950C
:100BE000089580E00895CF93DF93EC014091E303F3
:100BF0005091E4036091E5037091E6032FB7F894F8
:100C00008091FC039091FD03A091FE03B091FF033E
:100C10002FBF841B950BA60BB70B843F9140A105FA
:100C2000B10518F58091E3039091E403A091E503E9
:100C3000B091E6038093DF039093E003A093E10378
:100C4000B093E20384EF91E0A0E0B0E08093DB0397
:100C50009093DC03A093DD03B093DE03D093EB030A
:100C6000C093EA03DF91CF9108950E9479056093C4
:100C7000DF037093E0038093E1039093E20382E348
:100C800090E0A0E0B0E0E2CFFC018481862351F443
:100C900092819923B9F06923808583FF05C081E0A3
:100CA00061110FC080E00895892F8F7092959F7019
:100CB000982B862F8F7062956F70682B81E096134A
:100CC000F1CF089581E0FDCF452B39F0682381E015
:100CD0006F3F09F080E08170089581E0FCCFDC0176
:100CE0006091D7038091D803962F891301C008958E
:100CF000292F30E0F901EE0FFF1FE153FC4F408137
:100D000051814A175B07A1F487E08A9FA0018B9F5E
:100D1000500D11244D545C4F81E0FA0184839613E9
:100D2000E6CF2F5F3F4F237033272093D7030895DB
:100D30002F5F3F4F922F9370D8CF10925003109295
:100D40004F03E3EBF3E08581811102C01482168228
:100D5000379683E0EF3CF807B1F70895E0E6F2E05C
:100D600090E080E06EEC7BE145EF5BE12FE43BE15E
:100D70007783668351874087338722879587848767
:100D800001963E968430910599F7089581152CE5DA
:100D9000920741F420910D0130910E01232B11F4A3
:100DA00090E080E0089590914E02803F59F4809148
:100DB0004F0287FF0DC010924F0291110BC010928D
:100DC000460208C0813F81F480914F0218169CF3BF
:100DD000992381F08091500290915102892B09F062
:100DE00064C0109245020895823F49F497FFF0CF06
:100DF00010924E0280914F028111ECCFE0CF833FE1
:100E000019F41916ACF3E4CF20915002893F29F46C
:100E10001216F4F610925002DBCF8A3F19F427FF26
:100E2000D7CFF8CF209151028B3F29F427FFD0CFA5
:100E300010925102CDCF8C3F19F41216CCF3C8CFCB
:100E4000843F31F480914D028E7F80934D02C0CF5C
:100E5000853F21F480914D028D7FF7CF863F21F4AD
:100E600080914D028B7FF1CF873F21F480914D021D
:100E7000877FEBCF883F21F480914D028F7EE5CFB5
:100E80008D3F31F4809147028E7F80934702A0CF3F
:100E90008E3F21F4809147028D7FF7CF8F3F09F07D
:100EA00097CF809147028B7FF0CF089580914702C2
:100EB00080FD16C081FD16C082FD16C080914502DE
:100EC0008823A1F0883280F428E0829FC001112499
:100ED00068E270E00E949230862F672B39F0089507
:100EE00082E0089584E0089588E0089581E00895FF
:100EF0008091470280FD14C081FD14C082FD16C0A0
:100F000080914602882381F08E3180F420E5829F13
:100F1000C00111246EE170E00E949230862F089586
:100F200084E1089588E2089588E0089580E50895B1
:100F3000803F31F40E947807819580934F02089595
:100F4000813F19F40E947807F8CF823F31F40E9464
:100F50007807819580934E020895833F19F40E948B
:100F60007807F8CF893F29F40E94560780935002F2
:100F700008958A3F21F40E9456078195F7CF8B3F51
:100F800031F40E94560781958093510208958C3F59
:100F900019F40E945607F8CF843F31F480914D0236
:100FA000816080934D020895853F21F480914D0228
:100FB0008260F7CF863F21F480914D028460F1CFAB
:100FC000873F21F480914D028860EBCF883F21F468
:100FD00080914D028061E5CF8D3F31F480914702D1
:100FE00081608093470208958E3F21F480914702EB
:100FF0008260F7CF8F3FB9F7809147028460F1CFCD
:1010000080E008959091000492FF06C0282F287177
:101010002830F9F4877F846093FF06C0282F287159
:101020002831F1F4877E84612091010420FF06C0FD
:10103000382F38713830D9F4877F816021FF06C09E
:10104000282F28712831D1F4877E816194FD877E15
:101050000895282F24712430F9F68B7F8860DCCF27
:10106000282F2471243101F78B7E8861DDCF382F42
:101070003171313019F78E7F8860E0CF282F2171D0
:10108000213121F78E7E8861E1CFCF93DF93EC0190
:1010900082389105B1F108F040C08133910509F41F
:1010A0009DC048F58932910509F48DC08A9709F4ED
:1010B0009CC0C11521E5D20708F0C3C0C11530E5B9
:1010C000D30708F01EC1C83ED10508F0A3C0C03E3A
:1010D000D10588F5C83AD10508F08EC0C53AD105CA
:1010E00008F007C1C130D10531F1209721F1C4309A
:1010F000D10508F545C08533910509F45FC0C9974E
:10110000C1F680910004837009F044C1809101040C
:1011100083FF11C0C9E2D0E00EC0833E910599F172
:1011200070F4803E910501F1823E910511F68091A7
:10113000000482FD21C0CE01DF91CF910895863E4B
:10114000910561F1873E910571F1843E910509F0A9
:10115000B0CF8091010481FFEECF80910004C7EEF3
:10116000D0E084FD0DC0E7CF8091000480FD33C046
:101170009091010490FFDFCFC3EED0E084FFDBCF7E
:10118000D0E0C0E0D8CF8091000482FD00C19091F2
:10119000010490FDFFC084FFCECFF2CF8091000408
:1011A00083FDDDCFC8CF8091000483FDF6C0909110
:1011B000010491FFF0CFC4EED0E0BDCF80910004D8
:1011C00085FFB9CFA7CF8091000485FDE9C080914C
:1011D000010483FFB0CFC9E3D0E0ADCF809100041C
:1011E00086FFA9CFCAE2D0E0A6CF8091000486FF97
:1011F000A2CFC1E3D0E09FCFCF3BD10508F6C85ABC
:10120000D0E0CC0FDD1FC45EDE4F0990D881C02D29
:10121000D46491CFC11540E2D40758F4C11581E0E0
:10122000D80708F088CFC03FD10508F4A9CFD06512
:1012300082CFC11520E4D20708F4A2CFDF70D06AB4
:101240007ACFC11535E5D30718F5C11544E5D407A4
:1012500008F085C0C11583E5D80708F06CC0C1153A
:1012600022E5D20708F462C0CE018370992721E0FD
:1012700030E002C0220F331F8A95E2F7C695C6956B
:1012800080E2C89FE0011124C22BD32BDC6853CF2E
:10129000C11539E5D307A8F4C11548E5D40708F00E
:1012A00063C0C11586E5D80708F06ACF8C2F0E946D
:1012B0000208C82FD0E0DC2FCC27CC27DF71D0620A
:1012C0003ACFC1152AE5D20708F453C0CE01905693
:1012D0008115904208F054CF8D2F8F710E94020823
:1012E00090E0982F882788279F719C012C2BE9017B
:1012F000E6CFC55AD0E0C75EDE4FC881D0E0D064EB
:101300001ACF2C2F26952695237040E2249F90011A
:1013100011248C2F8370C1E0D0E002C0CC0FDD1F00
:101320008A95E2F7C22BD32BDD6805CFDC2FCC27C3
:10133000C16FD06A00CFCE018370992721E030E0E1
:1013400002C0220F331F8A95E2F7C695C69540E288
:10135000C49FE0011124C22BD32BDA68ECCEDC2F22
:10136000CC27C46FD06AE7CEDC2FCC27C06FD06A01
:10137000E2CE8C2F8F700E94020834E0D695C7957C
:101380003A95E1F7CF709C2FEC01D069D4CEC2EE34
:10139000D0E0D1CEC0EED0E0CECEC6EED0E0CBCE07
:1013A000C5E3D0E0C8CE80911002882331F01092BE
:1013B000100210920F0210920E02089580959091E3
:1013C000F10398239093F103089580959091F2038F
:1013D00098239093F20308951092ED011092EC017E
:1013E0001092EB010895909110019923D1F0909102
:1013F000000497FF16C0E82FE695E695E695EE31D6
:10140000E0F4F0E0E45AFE4F282F277081E090E0EE
:1014100001C0880F2A95EAF78095928189238283FB
:101420000895EEE5F1E09191891303C0DF01119772
:101430001C9291E0E436F907B1F708958091EA0132
:101440009091A901981301C008958F5F8770FACF1A
:10145000292F963078F58E3068F590E03EE0239F96
:10146000800D911D1124682F677023E09695879554
:101470002A95E1F7FC01EE0FFF1FE80FF91FE05876
:10148000FE4F50E040E080E0219130E0062E02C0A7
:10149000369527950A94E2F721703327042E01C070
:1014A000220F0A94EAF7822B4F5F5F4F43305105BA
:1014B00059F7089580E00895292F963098F58E30D9
:1014C00088F590E03EE0239F800D911D1124282F88
:1014D000277041E001C0440F2A95EAF723E0969572
:1014E00087952A95E1F7FC01EE0FFF1FE80FF91F22
:1014F000E058FE4F30E020E070E05191DF0111979D
:10150000CB01022E02C0969587950A94E2F781706E
:1015100081958527842385278C932F5F3F4F233028
:10152000310559F7089580FF08C02D9A81FF07C043
:101530002E9A82FF06C02B9A08952D98F7CF2E98E9
:10154000F8CF2B980895829590E09C01220F331FCD
:10155000220F331F2C7C95958795959587958373DE
:10156000282B30E0C901880F991F8A7A3595279575
:101570002575822B08959C013A9521153F4150F520
:10158000FC01EE27F170BC0166277270AC014427A4
:1015900054709C012227387094FF0EC080E1EF2B1D
:1015A00009F480E0672B09F08062452B09F0806424
:1015B000232B89F08068089581E0EF2B09F480E007
:1015C000672B09F08260452B09F08460232B19F00A
:1015D0008860089580E00895559A5D9A0895239A49
:1015E0002B980895269A2E980895259A2D98089557
:1015F000A1E0B0E0EEEFFAE00C94683069832DE0F2
:10160000F22E811102C09CE0F92E04E610E021E0E8
:1016100030E0AE014F5F5F4F682F80E40E94D72F0C
:10162000892B61F421E030E0AE014F5F5F4F6F2DF9
:1016300080E40E94D72F21E0892B09F020E0822F3F
:101640002196E5E00C9484308091140281110BC046
:101650006FEF81E00E94F80A91E0892790911402CF
:10166000980F909314020895CF936FEF80E00E943B
:10167000F80AC1E08C2790911402980F90931402FD
:101680006FEF81E00E94F80A8C27C0911402C80F06
:10169000C0931402CF9108958093020470930404C0
:1016A0006093030480912A048430F9F48093E90064
:1016B0008FEF9091E800815095FD06C095ED9A95C9
:1016C000F1F700008111F5CF8091E80085FF0DC092
:1016D00050E040E063E070E082E094E00E9430047B
:1016E0008091E8008E778093E8000895BC0184E043
:1016F0000E944C0B0895BC0183E00E944C0B08959E
:101700009C0184E08093E9009FEF8091E800915074
:1017100085FD06C085ED8A95F1F700009111F5CFA2
:101720008091E80085FF0CC050E040E066E070E08A
:10173000C9010E9430048091E8008E778093E80010
:101740000895CF93DF93EC01809110018823B1F1CC
:101750008091000487FF32C060E284E08093E9005A
:101760008FEF9091E800815095FD06C095ED9A9518
:10177000F1F700008111F5CF8091E80085FF1BC0D3
:101780008091100170E050E040E0811104C050E011
:1017900040E068E070E0CE010E9430048091E800F3
:1017A0008E778093E80080E2FE01A8E0B4E001902B
:1017B0000D928A95E1F7DF91CF91089568E081E07D
:1017C000CDCFCF93DF93C7E6D3E060E0CE010E9498
:1017D000EE302196C11584E0D807B9F7DF91CF919B
:1017E00008951F93CF93DF93122F8430E0F4663077
:1017F000D0F44E30C0F4C42FD0E0CC0FDD1F9CE1FC
:10180000699FC00DD11D112498EA899FC00DD11D7B
:101810001124632FCE0187960E94EE30612FCE01F6
:1018200088960E94EE30DF91CF911F910895CF935B
:10183000C82F6FEF81116FEC83E290E00E94EE30D1
:101840006FEFC1116CE584E290E00E94EE306FEF23
:10185000C11164E685E290E00E94EE30CF910895D8
:10186000AEE1B0E0E6E3FCE00C946030C0900D0126
:10187000D0900E0181E090E090930E0180930D01D5
:101880009AE7A92E93E0B92E00E0750110E015C08B
:10189000F40125913491472D612F802F0E94F10B87
:1018A00082E0880E911C7394EEE07E12F1CFFCE191
:1018B000EF0EF11C1F5F163019F04701712CE8CFB5
:1018C0000F5F88EAA80EB11C0430F9F61A8219825B
:1018D0001C821B821E821D8218861F8288EC90E06B
:1018E0009A8789874AE050E067EC72E0CE01019662
:1018F0000E9412314AE050E061ED72E0CE010196A3
:101900000E9412314AE050E06BED72E0CE01019688
:101910000E9412314AE050E065EE72E0CE0101967D
:101920000E9412318AE0B82E8E01055F1F4FF80128
:101930008B2D11928A95E9F74AE050E06FEE72E044
:10194000C8010E9412314AE050E069EF72E0C8011C
:101950000E9412314AE050E063E073E0C8010E9447
:1019600012314AE050E06DE073E0C8010E9412318C
:101970007E01E5E1EE0EF11CF7011192BA94E9F750
:101980008FEF9FEF9A8F898F87E08E8F07E113E0AB
:101990004AE050E0B801C7010E941231065F1F4FB4
:1019A0000736F3E01F07A1F7D0920E01C0920D0198
:1019B0006E96EDE00C947C3080E00E94170C60E0A5
:1019C00086E290E00E94EE300E94300C0E94E10B13
:1019D00081E00E94170C08959B01843070F49AE016
:1019E000899FB001112469537D4F4AE050E0C9013D
:1019F0000E94D03090E080E008958FEF9FEF08952F
:101A0000AAE0B0E0E6E0FDE00C946B309C013755B5
:101A10002F3F310509F068F4BE016F5F7F4F0E94D0
:101A2000EC0C892B31F489859A852A96E2E00C9496
:101A3000873088EC90E0F9CF0F931F93CF93DF931B
:101A4000843030F5663020F54E3010F5C42FD0E0EC
:101A5000CC0FDD1F2CE1629FC00DD11D112438EA8F
:101A6000839FC00DD11D1124CE0187960E94E030C6
:101A7000082F10E0102F0027CE0188960E94E0303A
:101A80009801282BC901DF91CF911F910F910895E3
:101A900090E080E0F8CF462F20914D0330914E0327
:101AA000232B99F4703F39F4603F79F480914B0314
:101AB00090914C030895843040F4763030F46E30C9
:101AC00020F4672F0E941C0D089590E080E0089597
:101AD000CF92DF92FF920F931F93CF93DF936C010E
:101AE0000091340480911102082BC7E0D0E010E08F
:101AF000FC2EC8010C2E02C0959587950A94E2F73A
:101B000080FD0CC02197A0F7F12C8F2DDF91CF9194
:101B10001F910F91FF90DF90CF900895B6018C2F09
:101B20000E944B0D0E944508019761F3EECFCF93C1
:101B3000DF93EC010E94680DBE010E944B0D0E94D4
:101B40004508DF91CF9108950F931F93CF938C0198
:101B5000FC0143815481618180810E946406C82F09
:101B600081112AC0F80186819781009791F00E9427
:101B7000450892959F709630D1F080F4925F9F70E7
:101B8000923080F4803F19F058F4883E58F4C1E058
:101B900009C0808191810E94970DEBCF9A5FEFCFB2
:101BA000843FA9F38C2FCF911F910F910895883E08
:101BB00070F3813FB9F7EBCFC0E0F4CFA5E0B0E020
:101BC000E4EEFDE00C946A309C01FC018681978173
:101BD0000097E1F485E0DE01119601900D928A955F
:101BE000E1F7F901228189819A81222399F0662304
:101BF00089F00E94680D182F682F89819A810E94B0
:101C00005C0A69817A81812F0E944B0D2596E3E061
:101C10000C9486300E94280A182FF3CF83E290E0BC
:101C20000E94E0308F3C89F484E290E00E94E03032
:101C30008C3559F485E290E00E94E03091E08436E2
:101C400009F090E0892F8170089580E0FCCFCF9358
:101C500084E090E00E94E030C82F82E290E00E9491
:101C6000E030982F8C2FCF910895AAE0B0E0EBE3FD
:101C7000FEE00C94613003ED12E081ECC82E82E0AE
:101C8000D82E97E1E92E93E0F92E27E0922E30EC42
:101C9000A32E32E0B32E88248394D6010D931D9396
:101CA0006D014AE050E0B701CE0101960E94D030AC
:101CB000F8013896DF01892D1D928A95E9F789810F
:101CC0009A81D80111969C938E938F8112968C9352
:101CD00012978D8113968C931397888514968C9305
:101CE0001497898515968C9315978B819C811796EF
:101CF0009C938E93169718961C9218978A8587FF47
:101D00003CC01E961C921E921D9780FF03C0D801F6
:101D100018968C9281FF04C0F8019085926090879C
:101D200082FF07C0D80118969C9118979460189666
:101D30009C9383FF04C0F80190859860908784FF8E
:101D400007C0D80118969C911897906118969C939B
:101D500085FF04C0F801808580628087015F1F4F86
:101D6000FAE0EF0EF11C87E6E81683E0F80609F0CA
:101D700094CF2A96ECE00C947D30F801B686A586C7
:101D8000C4CFAAE0B0E0E7ECFEE00C946530E8E9EF
:101D9000F2E088E2DF011D928A95E9F7E3EBF3E0D8
:101DA0008CE1DF011D928A95E9F788E9C82E82E06F
:101DB000D82E7F010FEE12E0F701D182C0824AE0F7
:101DC00050E0B801CE0101960E94D03088E0FE01BB
:101DD0003196D60101900D928A95E1F789859A8511
:101DE000D70113969C938E931297BAE0CB0ED11C19
:101DF000E7E0EE0EF11C065F1F4F0731F3E01F070F
:101E0000D9F62A96E8E00C94813068EE7EEF90E0F7
:101E100080E00E940C3160E082E090E00E94EE30B1
:101E200060E083E090E00E94EE301092110260E0EA
:101E300084E090E00E94EE3064E082E290E00E9454
:101E4000EE3060E085E090E00E94EE3060E086E0F9
:101E500090E00E94EE306FEF87E090E00E94EE305D
:101E600040E050E0BA0188E090E00E94003160E07C
:101E70008DE090E00E94EE3040E050E0BA0188E151
:101E800090E00E94003160E087E190E00E94EE3037
:101E900040E050E0BA018CE190E00E94003170E037
:101EA00060E080E290E00E940C3140E050E0BA0136
:101EB00088E190E00E94003180E00E94170C0E94AF
:101EC000DC0C40E050E0BA018FE090E00E9400316D
:101ED00040E050E0BA0183E190E00E9400310895B3
:101EE0001F920F920FB60F9211242F933F934F938F
:101EF0005F936F937F938F939F93AF93BF93EF9372
:101F0000FF938091E10082FF09C08091E20082FF8F
:101F100005C08091E1008B7F8093E1008091DA0021
:101F200080FF24C08091D80080FF20C08091DA001B
:101F30008E7F8093DA008091D90080FF9DC080E180
:101F400089BD82E189BD09B400FEFDCF81E08093A7
:101F50002A0480910504811109C00E94E0030E94B7
:101F6000AB048091E20084608093E2008091E10004
:101F700080FF17C08091E20080FF13C08091E200D3
:101F80008E7F8093E2008091E20080618093E20086
:101F90008091D80080628093D80019BC85E080933E
:101FA0002A048091E10084FF2BC08091E20084FF2D
:101FB00027C080E189BD82E189BD89B5982F9170E4
:101FC00080FFFBCF8091D8008F7D8093D8008091D7
:101FD000E1008F7E8093E1008091E2008F7E80930C
:101FE000E2008091E20081608093E20080912B0406
:101FF000882309F447C084E080932A0480912A044E
:102000008091E10083FF27C08091E20083FF23C01D
:102010008091E100877F8093E10082E080932A0431
:1020200010922B048091E1008E7F8093E1008091DB
:10203000E2008E7F8093E2008091E20080618093D5
:10204000E20042E060E080E00E9479048091F000CC
:1020500088608093F000FF91EF91BF91AF919F91C5
:102060008F917F916F915F914F913F912F910F9041
:102070000FBE0F901F90189519BC10922A04109251
:10208000050474CF8091E30087FD93E090932A04C8
:10209000B5CF78941F921FB61F9211248F939F93F0
:1020A000AF93BF938091FC039091FD03A091FE0339
:1020B000B091FF030196A11DB11D8093FC03909385
:1020C000FD03A093FE03B093FF03BF91AF919F91D7
:1020D0008F911F901FBE1F9018959C014FB7F894C9
:1020E0008091FC039091FD03A091FE03B091FF034A
:1020F0004FBF821B930B08952FB7F8948091FC0378
:102100009091FD03A091FE03B091FF032FBF0895AE
:102110000E947C109C0190914E0280914F02982B5E
:1021200021F030934B0220934A029091500280910B
:102130005102982B21F03093490220934802E091FC
:10214000F703F091F803309749F082E080934C0256
:102150000480F581E02D8CE492E009950895A1E0DA
:10216000B0E0E5EBF0E10C945B3080911402882341
:1021700071F080911202909113020196811520E274
:10218000920708F0E0C0909313028093120289E155
:10219000682E82E0782ECC24C394D12CE12CFF242D
:1021A000FA94FC0CF301419051903F01129212926B
:1021B0005F01F3E0FF1609F4E0C0FF1508F4CEC09C
:1021C00021E0F21609F4D3C082E0F81609F4D2C077
:1021D000849A8C9880911402882309F4D4C08FE8E3
:1021E00091E00197F1F700C0000080911402912C5A
:1021F000812C811125C09FEF998304E610E021E036
:1022000030E0AE014F5F5F4F62E180E40E94FE2F3D
:1022100021E0892B09F420E080911402820F809341
:102220001402898180950E94A30A982F96959C7725
:102230008370892B982E9594882E87948824879470
:102240004B99B4C000E410E04A99B3C0A0E2B0E0FA
:102250004C99B2C0E0E1F0E03699B1C068E070E0BE
:102260004F99B0C044E050E06699AFC022E030E042
:1022700083B182958F7091E0892780FB222420F81A
:10228000312CC10188299929802B912B8A2B9B2BDA
:10229000E82BF92B6E2B7F2B462B572B242B352B22
:1022A000F50131832083F3E0FF1609F4A3C0FF1585
:1022B00008F48EC021E0F21609F494C082E0F8160A
:1022C00009F494C084988C988C9881E0F501208161
:1022D00031812415350509F480E0E82AFFEFCF1A93
:1022E000DF0A27E0C216D10409F059CFEE2009F425
:1022F00089C081E0809317020E947C10909316029F
:102300008093150280911502909116020E946D1023
:10231000059708F47BC04CE050E069E172E089E386
:1023200092E00E94BC30892B09F475C08CE0E9E191
:10233000F2E0A9E3B2E001900D928A95E1F781E025
:102340001092170264C0109213021092120210929F
:1023500014020E94240B0E94340B19CF94E0F9164A
:1023600079F0E5E0FE1234CF229A2A9833CF859A8D
:102370008D9830CF869A8E982DCF879A8F982ACFB6
:10238000219A299827CF61E070E00C2C01C0660FDC
:102390000A94EAF7609581E00E94F80A91E08927A3
:1023A00090911402980F909314021FCF10E000E058
:1023B0004BCFB0E0A0E04CCFF0E0E0E04DCF70E0DC
:1023C00060E04ECF50E040E04FCF30E020E050CF13
:1023D00094E0F91699F0E5E0FE1274CF22982A985D
:1023E0002A9873CF85988D988D986FCF86988E9800
:1023F0008E986BCF87988F988F9867CF2198299860
:10240000299863CF8091170281117CCF80E02196BB
:10241000E2E10C94773080E093CFCF938091F20388
:102420009091F103892B80935C01809110028823A5
:1024300039F10E947C1020910E0230910F02821B14
:10244000930B8838934110F00E94D30980915C016E
:1024500090911002892B80935C0180911001882358
:1024600009F447C08091000487FF43C08EE1EEE588
:10247000F1E090E0815008F03EC091110E94D30934
:10248000C091E703C09580915C01C8238091E80367
:10249000C82BC0935C0140E250E06EEE71E08CE529
:1024A00091E00E94BC30892B11F180E2ECE5F1E073
:1024B000AEEEB1E001900D928A95E1F7E091F7035D
:1024C000F091F803309799F080911001882349F03A
:1024D0008091000487FF05C0C0935D0186E0809372
:1024E0005C010280F381E02D8CE591E00995CF91AC
:1024F000089586E0BCCF2191222309F4BBCF9F5FD2
:10250000B9CFCF93DF93EC01EA85FB85309719F0C3
:102510006C857D8509958B810E94DE098C810E94E6
:10252000E5090E940D1286E0FE0111928A95E9F7F5
:10253000DF91CF910895CF93DF93EC018D8181FDE1
:1025400018C082608D838091F1039B81892B8093D9
:10255000F1038091F2039C81892B8093F2030E9406
:102560000D12E885F985309721F06C857D85CE01C7
:1025700009951092F4031092F3038D8180FD03C03E
:10258000CE010E948112DF91CF91089590E080E00A
:102590000E94D00590E080E00E94BA051092F103FD
:1025A0000E940D1286E0ECE4F2E0DF011D928A95B4
:1025B000E9F71092460210924502109247020E94DB
:1025C00088100895809334040E94C6120895809163
:1025D0003404982F9670963021F488600E94E2129D
:1025E0000895877FFBCF21E030E001C0220F8A955C
:1025F000EAF720958091340482230E94E212089524
:102600009091ED01809589238093ED01282F27700B
:1026100091F4282F082E000C330B9217130659F053
:102620009091010492FF07C08595859585950E943C
:10263000F3120E94EC090895CF93C0910104C2FBEC
:10264000992790F9981791F080FBC2F9C093010483
:102650006091000484E090E00E94EE306C2F82E2F2
:1026600090E00E94EE3082E00E940013CF91089526
:1026700021E030E001C0220F8A95EAF7809134040E
:10268000822B0E94E2120895809311020E94C612CA
:1026900008951092F20380911001EEE5F1E0882395
:1026A00061F08091000487FF08C08EE1DF011D9278
:1026B0008A95E9F70E94C612089586E0F7CFAAE24C
:1026C000B0E0E5E6F3E10C946A308CE294E020910E
:1026D000F100DC012D93CD01B4E084339B07B9F701
:1026E00080912D04833009F472C0B8F4813009F46C
:1026F00049C0823009F4B3C08091E80083FF96C2DC
:1027000080912C0490912D049A3008F08FC2E92F0B
:10271000F0E0E45DFE4C0C94A6308A3009F48EC0E3
:102720008B3009F471C0893039F780912C048132E3
:1027300019F78091300490913104009711F00297BD
:10274000D9F68091E800877F8093E8008091E800C7
:1027500082FF38C09091F3008091F200029731F42B
:102760008091F100813011F0863021F48091F100E8
:10277000809307048091E8008B778093E8000E94A3
:102780005A04BACF80912C04813A09F0B5CF8091D8
:10279000E800877F8093E8008091300490913104B5
:1027A000892B61F460E288E094E070E00E94060505
:1027B0008091E8008B778093E8009ECF60E090E006
:1027C00080E0F3CF80912A048111C0CF95CF809112
:1027D0002C04813A09F090CF80913004909131041B
:1027E000892B09F089CF8091E800877F8093E800EA
:1027F0008091E80080FFFCCF809110018093F10070
:102800008091E8008E77B9CF80912C04813209F055
:1028100073CF8091300490913104892B09F06CCFF3
:102820008091E800877F8093E8000E945A0480919D
:102830002E04809310010E9449135ECF80912C04D6
:10284000813209F059CF8091E800877F8093E800BA
:102850000E945A0480912F04809306044DCF8091EA
:102860002C04813A09F048CF8091E800877F80935B
:10287000E8008091E80080FFFCCF80910604BECF85
:10288000803899F0823809F0D1C1809130048F707E
:10289000873008F0CBC18093E9008091EB0085FB85
:1028A000882780F91092E90006C080912804909151
:1028B0002904911182609091E800977F9093E8003D
:1028C0008093F1001092F1008091E8008E77AAC108
:1028D000882309F498C1823009F0A8C180912E04A0
:1028E00081119BC1809130048F702FEF280F26300B
:1028F00008F09CC18093E9002091EB0020FF8DC17E
:10290000933031F48091EB0080628093EB0085C1BD
:102910009091EB0090619093EB0021E030E001C0DA
:10292000220F8A95EAF72093EA001092EA0080913C
:10293000EB008860EACF811179C110912E041F77D6
:102940008091E3008078812B8093E3008091E80000
:10295000877F8093E8000E945A048091E80080FFFE
:10296000FCCF8091E30080688093E30082E0111146
:1029700083E080932A045AC18058823008F056C1FF
:1029800020912E0430912F042C3DE3E03E07A1F569
:1029900083E08A838AE289834FB7F894DE01139635
:1029A00020E03EE051E2E32FF0E050935700E49145
:1029B00020FF03C0E295EF703F5FEF708E2F90E035
:1029C000EA30C0F0C7968D939D932F5F243159F75D
:1029D0004FBF8091E800877F8093E8006AE270E053
:1029E000CE0101960E9406058091E8008B778093C6
:1029F000E8001CC1C096E7CF80913004909131046B
:102A0000432F55274330510509F44AC078F541302A
:102A1000510509F485C08BE590E0EAE1F6E042302B
:102A2000510509F003C12091E800277F2093E800B9
:102A300020913204309133048217930708F49C01EB
:102A400040E02115310509F070C041116EC0809140
:102A5000E80082FDC9CF80912A04882329F28530BD
:102A600019F28091E80083FFF2CFBECF41325105C9
:102A700009F447C04232510509F0D8C083309105AE
:102A800008F0D4C0FC01EE0FFF1FE35BFE4F019086
:102A9000F081E02D865B9E4FDC018C9190E01DC0A3
:102AA000332721303105E9F02115310579F0223045
:102AB0003105F9F02330310509F0B8C0E7E8F6E058
:102AC000E4918E2F90E0E7E8F6E007C0EDECF6E049
:102AD000E4918E2F90E0EDECF6E0009709F4A6C0AB
:102AE000A2CFE9EBF6E0E4918E2F90E0E9EBF6E07F
:102AF000F4CFE5EAF6E0E4918E2F90E0E5EAF6E027
:102B0000ECCF8330910508F091C0880F991FFC012C
:102B1000ED5AFE4F0190F081E02D89E090E083CFE7
:102B200082E190E0E5E7F6E07ECF80912A048823F9
:102B300009F45ACF853009F457CF8091E80083FD1E
:102B400053CF8091E80082FD82CF8091E80080FF22
:102B500078CF9091F3008091F2002115310519F0A2
:102B60008830910550F041E0089709F040E08091ED
:102B7000E8008E778093E80064CF44914093F100A1
:102B80003196215031090196E8CF803809F04EC0C6
:102B90008091E800877F8093E80080912B048093E8
:102BA000F10092CE811142C010912E041230F0F546
:102BB0008091E800877F8093E80010932B040E94A7
:102BC0005A04112311F084E005C08091E30087FDD1
:102BD000FACF81E080932A0442E061EC81E00E9418
:102BE000790442E261EC84E00E94790442E261EC03
:102BF00082E00E94790442E260EC83E00E94790462
:102C000080912A0413C080912E04813079F481E0F0
:102C1000933009F080E0809329041092E9008091BC
:102C2000E800877F8093E8000E945A048091E800C2
:102C300083FF0AC08091E800877F8093E80080913D
:102C4000EB0080628093EB00AA96E3E00C94863060
:102C50001F920F920FB60F9211242F933F934F9311
:102C60005F936F937F938F939F93AF93BF93CF9314
:102C7000DF93EF93FF93D091E900DF708091EC0038
:102C8000C82FC17080FDC0E81092E9008091F0006B
:102C9000877F8093F00078940E945F131092E90080
:102CA0008091F00088608093F000CD2BCF70C093AE
:102CB000E900FF91EF91DF91CF91BF91AF919F918B
:102CC0008F917F916F915F914F913F912F910F90D5
:102CD0000FBE0F901F9018950E9449132FEF84E3A9
:102CE0009CE0215080409040E1F700C0000088E166
:102CF0009AE00FB6F894A895809360000FBE909369
:102D00006000FFCF882321F00E94DE090E940D128F
:102D10000895882339F09091F103982B9093F10353
:102D20000E940D120895882321F00E94E5090E9457
:102D30000D120895882339F09091F203982B909307
:102D4000F2030E940D120895882379F19CEF980FE9
:102D5000913A28F40E94F3090E940D12089590E21E
:102D6000980F983050F4877091E001C0990F8A95C0
:102D7000EAF7892F0E94E509EFCF9BE5980F933082
:102D800028F490E080E00E94D005089598E5980F1F
:102D9000973128F490E080E00E94BA050895803FC2
:102DA00020F00E94D3060E9488100895FF920F938E
:102DB0001F93CF93DF93F82E0091EC031091ED0356
:102DC0000115110509F449C01092EB031092EA03B2
:102DD0001092E7031092E803D8011696CD91DC918A
:102DE0009E013A9521153F4108F4D07ED1E0C111F2
:102DF00001C0D0E0D8011996ED91FC911A97309757
:102E000031F01B966D917C9180E00995D823DD23EC
:102E100039F08CEF8C0F813A30F58C2F0E94F3093A
:102E2000FF2099F0E091EC03F091ED03808584FDA3
:102E30000CC08091E903882341F0808191819C013D
:102E400021503109203B3D45A0F00E940D12109207
:102E5000ED031092EC031092E903C801CDB7DEB781
:102E6000E5E00C9484300E940D128C2F0E94A41671
:102E7000D7CF0E94F305E9CFCF93C82F8823C1F1A4
:102E80008CEF8C0F813AB0F580911001882301F10D
:102E90008091000487FF1CC0EC2FE695E695E6952F
:102EA000F0E0E45AFE4F828190E04C2F477021E021
:102EB00030E002C0220F331F4A95E2F782239323AA
:102EC000892B79F08C2F0E94F3090E940D1209C002
:102ED000EEE5F1E08191C817A9F381E0E436F80747
:102EE000C9F76C2F8CE591E00E9485050E940D12B8
:102EF000CF91089580E28C0F883068F4C77021E08C
:102F000030E001C0220FCA95EAF78091F203822BCC
:102F10008093F203EBCFEBE5EC0FE33040F4F0E00D
:102F2000E75EFE4F808190E00E94D005E1CFE8E5AA
:102F3000EC0FE73150F4F0E0EE0FFF1FE45EFE4FC0
:102F4000808191810E94BA05D3CFC03F88F28C2F37
:102F50000E9498070E948810CBCF1F93CF93DF93D6
:102F6000182FD0E0C0E0893311F4C0E5D0E0812F04
:102F70000E943C17209739F4812F0E94A416DF91FC
:102F8000CF911F9108958FE99FE00197F1F700C05D
:102F900000002197EFCFB0E0A0E0E1EDF7E10C9465
:102FA0006330EC018AE0A82E2881222309F48FC027
:102FB0002130C9F599818A81913021F422960E94AD
:102FC000AD1705C0923029F422960E943C17219635
:102FD000EBCF933021F422960E94A416F8CF9430C0
:102FE00011F02196F4CF229630E020E0AE014F5F41
:102FF0005F4F8053990B8A30910550F02150310971
:1030000030F38FE99FE00197F1F700C00000F6CFA1
:10301000A29EB001A39E700D11249C01260F371FA4
:103020008981EA01E3CFE22FF0E0EF5FF84FB4903F
:10303000822F86958695869590E0FC01EF50F94F9A
:10304000E4902770F12C022E02C0F594E7940A94C4
:10305000E2F731E0E322FF24FC01EF51F94FC49085
:10306000D12C022E02C0D594C7940A94E2F731E025
:10307000C322DD24FC01EF52F94F049110E002C09D
:10308000159507952A95E2F701701127E114F104CF
:1030900019F081EE0E943C17C114D10419F086EE9C
:1030A0000E943C178B2D0E94AD17C114D10419F05A
:1030B00086EE0E94A416E114F10419F081EE0E943C
:1030C000A4160115110509F482CF8CE278CFCDB793
:1030D000DEB7EAE00C947F30B0E0A0E0E2E7F8E190
:1030E0000C9465306B01C42FD22FFC0182818823A0
:1030F000A9F04093F0030E947C109093EF0380931B
:10310000EE03C77081E001C0880FCA95EAF70E94FC
:103110009A16CDB7DEB7E8E00C9481301091F00339
:10312000141337C08091EE039091EF030E946D104D
:103130007C01C6010E94000DE816F90650F5C0E2B8
:10314000CD0F1D17C1F080E2810F883048F4177051
:1031500081E0012E01C0880F0A94EAF70E949316BD
:10316000C83048F481E09D2F977001C0880F9A9570
:10317000EAF70E949A16802F0E94AD17C83048F6D1
:10318000D77081E001C0880FDA95EAF70E949316A4
:10319000C0CFC77081E001C0880FCA95EAF7F6CFAB
:1031A000CF93DF93EC010E94BB0A9E01205E3109A0
:1031B0002830310510F0209741F40E949A168C2F88
:1031C0000E943C17DF91CF9108950E948916F7CF96
:1031D0009091010492FF10C098E0899F9001112402
:1031E000622B6093ED010E9438130E947C10909333
:1031F000EC018093EB0108950E9438130895A9E132
:10320000B0E0E5E0F9E10C945B30498B5A8B6B8BB5
:103210007C8B8D8B61111092F1031D861E861F869B
:10322000188A85E0FE017196DE01199601900D92D3
:103230008A95E1F78091010482FF1CC00E947C10F6
:103240002091EB013091EC01821B930B8838934164
:1032500020F08091ED0182FFE6C10E947C10209158
:103260000E0230910F02821B930B8838934110F0AD
:103270000E94D3094C855D856A8589850E94640614
:10328000811111C061E0CE0109960E94DE0D6C0132
:103290008B8547EFC4164CE5D40681F4882321F1D1
:1032A00081E080930F0129853A854B855C856D858A
:1032B0007E858F8598890E949126C3C068EFC616C7
:1032C0006CE5D60629F4882379F00E944D27EBCFD0
:1032D00079EFC7167CE5D70639F4882329F0809169
:1032E0000F018111F2CFDCCF03EB13E0E12CB12C05
:1032F000A12C88248394912C2EEF522E44244394A5
:10330000F8014081518166246A94762C20E0822F56
:1033100090E0FC01EE0FFF1FE40FF51F608171814B
:103320006115710531F0C616D70609F43C012F5F0F
:10333000EECFF12CFFEF6F167F0609F444C0F801C1
:103340004481F0900F018F2D411180E0F82FF17032
:10335000FF2EF801258086819B85992309F4F2C010
:10336000FF2009F4EFC0211014C0A401062C01C0F5
:10337000440F0A94EAF7842B868380914F0390913F
:103380005003C29730F462E370E07093500360938F
:103390004F03C40102C0880F991F2A95E2F70197D5
:1033A000F80126812817190671F48091D9039091AC
:1033B000DA03009709F449C00E946D10C39708F41E
:1033C00044C0F8014482EF28FFEFAF1ABF0A095F3B
:1033D0001F4F24E0A216B10409F092CF8B858823F9
:1033E00009F40CC1EE2009F409C10E947C109093ED
:1033F000DA038093D90380915203883010F591E06D
:10340000980F9093520398E0FE013996DE011196D1
:1034100001900D929A95E1F73CE0839FC001112441
:103420008D5A9C4F28E0FE013196DC0101900D92EF
:103430002A95E1F72FEF3FEFFC0131872087D386F4
:10344000C2866996E2E10C9477308091D70350915F
:10345000D803982FF0E0E0E0851314C09093D703D1
:10346000E017F10709F4AFCF90E0FC01EE0FFF1F6A
:10347000E153FC4FB182A08201968370992780931B
:10348000D803A1CF282E312CF101EE0FFF1FE153FD
:10349000FC4F20813181F7E0F29FD001F39FB00D06
:1034A0001124AD54BC4F2D913C911197398F288F29
:1034B00040E020E030E0E32FF0E0EE0FFF1F688DEA
:1034C000798DE60FF71F6080718061147104E1F05F
:1034D000F8010190F081E02DFF8BEE8B20E005C01C
:1034E0006616770609F44F2D2F5FE22FF0E0EE0FFE
:1034F000FF1F6E897F89E60FF71F6081718161155B
:10350000710571F73F5FD7CF4423C9F0F801231746
:1035100008F0FD0144820E171F0721F49093D70392
:10352000F42E51CF981305C0AE17BF0711F49F5F5B
:10353000937091012F5F3F4F822F83708DCFF0E00A
:10354000E0E0F7CF90E0211020C0B40102C0660F88
:10355000771F2A95E2F79B012150310982179307C3
:1035600031F4442309F448C0C5010E946F06C40128
:10357000062C01C0880F0A94EAF7982F9095F8015D
:10358000868189238683F22C1ECF9C01062C02C0E3
:10359000359527950A94E2F7A90141705527BC019A
:1035A0006150710986239723892B11F5452B01F171
:1035B000F80182819381892BC1F01B821C821D82BC
:1035C0001E8259825A820E947C108160582F9D83EE
:1035D0008C83F801828193818F83988729813A8136
:1035E0004B816D817E810E949126F8011582BFCFAB
:1035F000F22FF1702F2EBBCF2F2CB9CF9091D70384
:103600008091D803981731F00E945C27EE2009F4CE
:103610004ACE17CF0E94FF261092DA031092D903E8
:103620000E949D06F3CF82E00E94001316CEA5E013
:10363000B0E0EDE1FBE10C9469308C0190934C0318
:1036400080934B03011580E21807C0F4802F0E947D
:10365000A416C8010E94BB0A9801205E31092830D7
:10366000310518F00115110531F40E9493162596C5
:10367000E4E00C9485300E948216F9CF80EF8983B4
:103680008A831B820E947C108160782F9D838C83AB
:1036900049815A816B818D810E94FF18E8CF0F9379
:1036A0001F93CF93DF938C01EB0166E572E08C2FC3
:1036B0000E94EC0C892B71F4DD27CE5ADD4F8881F6
:1036C000F801128218828330F1F048F4813059F009
:1036D000823081F0DF91CF911F910F910895843056
:1036E000B9F08530B9F78091560290915702009752
:1036F00089F306C08091580290915902009799F37E
:103700000E94171BE7CF80915A0290915B02F6CF7F
:1037100080915C0290915D02009791F72091560292
:10372000309157028091580290915902211531052C
:10373000F1F2009729F7C901E3CFA5E0B0E0E3EA91
:10374000FBE10C946B3090934C0380934B038115F9
:1037500020E2920730F40E94D0182596E2E00C9403
:10376000873080EF89838A8381E08B830E947C107D
:103770008160782F9D838C8349815A816B818D81F3
:103780000E94FF18EACFCF93DF93EC010E949D1BAC
:10379000CE010E94171BDF91CF9108950F931F93C5
:1037A000CF93DF938C01862F66E572E00E94EC0CCC
:1037B000892BB1F4C0915602D0915702209781F025
:1037C000F8018281833051F4CE010E94C31BCE01E7
:1037D0000E94C31BCE010E94C31B02C08430D0F7DD
:1037E000DF91CF911F910F9108950F931F93CF9366
:1037F000DF938C01EB0166E572E08C2F0E94EC0CEC
:10380000892B09F05CC0FE01FF27D80112968C912C
:103810001297EE5AFD4F8130B9F415969C9192FFA4
:1038200002C080830AC090FFFCCF82E08083809139
:103830005802909159020097B9F4809156029091E4
:1038400057020097E1F110C08230B9F515968C91BE
:1038500082FD28C080FD0BC083E0808380915A02E6
:1038600090915B02009701F10E949D1B28C084E0AB
:10387000808380915C0290915D020097A9F780910E
:103880005602909157020097F9F00E94C31B809155
:10389000580290915902009739F780915602909101
:1038A0005702E2CF85E080838091560290915702C3
:1038B000009729F00E94C31BF0CF86E08083DF9140
:1038C000CF911F910F9108958091580290915902C4
:1038D000B8CFA7E0B0E0EFE6FCE10C945B307C01F0
:1038E000DC0113964D915C91149711966C91119790
:1038F0008C910E9464068111ECC061E0C7010E94B6
:10390000DE0D8C01F70182818823E1F08091F303C1
:103910009091F4030097B1F00817190799F0FEE0B1
:103920008F9FC0011124FC01EB59FD4F20812460C1
:103930002083805A9D4FDC010D931C930E949B12A3
:103940001092F103F7018281882309F49BC6C80114
:1039500082519F45409708F089C68FEF93E00E94FF
:10396000E0308111A6C06EEED62ED00E07E613E031
:10397000D11036C019821A821B821C8299249A9413
:1039800068012FEFC21AD20AC8010E94E030898371
:103990001A82882309F48DC0813009F07FC0580154
:1039A00032E0A30EB11CC6010E94E030C82E8A830B
:1039B000882309F47EC0C5010E94E030D82E8FEF25
:1039C0008C0D8330D8F4580143E0A40EB11CDB8287
:1039D000DD2021F0CE0101960E94CB178501D0CFCA
:1039E0000115F4E01F0709F464C0C8010E94E0302B
:1039F000811101C0DA940F5F1F4FBACF8BEF8C0D8E
:103A0000833030F5C8010396DB825C01DD2031F3A1
:103A1000580154E0A50EB11C0E94E0308C8388232D
:103A2000E9F28B819C818130AFEF9A0710F0982FDB
:103A30008827B6E0CB1631F0E7E0CE1631F00E94D1
:103A4000C31BCCCF0E949D1BC9CF0E94171BC6CFA2
:103A5000F4E0CF12C3CF580124E0A20EB11CC8017C
:103A600003960E94E030DD2021F1882311F181507E
:103A7000990B989E9001999E300D11244D2D415027
:103A8000550BCA01820F931F019708F4A7CFAFE926
:103A9000BFE01197F1F700C00000F6CFCE0101960C
:103AA0000E94CB1756019ACF81E00E9438130E94E2
:103AB000E7128091ED01877061F0D70112968C9129
:103AC000882339F08091010482FF03C082E00E94C4
:103AD00000132796E2E10C94773081E00E94F31204
:103AE000E6CF82E0FBCF823009F00AC680915A020D
:103AF00090915B02892B09F403C62EE02C9DC00136
:103B00002D9D900D1124FC01EB59FD4F20812E7F3E
:103B10002083805A9D4F0E949B12F2C581E08093C2
:103B20000001C7CF80910001882309F4D6C4480161
:103B300020EE821A91084090100280917F01482A5D
:103B40008091F203482A38E08316910408F086C079
:103B500098012770332781E090E001C0880F2A95F3
:103B6000EAF7552009F477C0482AD7018D919C9136
:103B70000E94280A21E030E0F90102C0EE0FFF1F89
:103B80008A95E2F7FF83EE832090EC033090ED03FB
:103B900060907C0170907D011D822D81E22FF0E00C
:103BA000EE0FFF1FEF53FD4FC080D180C114D10431
:103BB00009F4F7C4411005C0D60112968C91811109
:103BC00089C0F601838190E02E813F818223932377
:103BD000892B09F47FC08085982F977009F487E0BE
:103BE00038E08316910408F053C0552009F44CC006
:103BF00086958170882309F46DC0D601AD90BC9084
:103C00000A151B0519F4552009F464C0C214D30425
:103C100009F460C0D6011D96ED91FC91309721F01A
:103C20008081882309F456C0642DC6010E94440691
:103C3000882309F44FC00A151B0509F0BDC50115FD
:103C4000110509F4BEC55110BEC5A614B70409F08C
:103C500041C0512CB8C58095482287CF552009F422
:103C600089C410937D0100937C010E9479056093C3
:103C7000E3037093E4038093E5039093E6031092CB
:103C8000EB031092EA0371CF82FB882780F9B2CF51
:103C9000552001F18170AECF0E94A416B2C50497E1
:103CA000813A910558F46A2D8CE591E00E948505D2
:103CB000552009F412C40E940D12FBCE0E940D1271
:103CC0008FE39CE90197F1F700C000008A2D0E9464
:103CD0003C17EECF9D819F5F9D835FCFFC012081CC
:103CE00031810217130709F0F1C35110F1C310928B
:103CF000E90380E00E94D616F0C3902F812F35C4CF
:103D0000F901858181FF61C4C9010E9481125DC4EE
:103D100007E225EE45EE68ED7CE52BC506E221EED7
:103D200040EE63EF7CE525C507E225EE44EE64EF47
:103D30007CE51FC506E221EE42EE65EF7CE519C584
:103D400008E221E045EE69ED7CE513C5053AFDE5A5
:103D50001F0709F451C4D0F401363DE5130709F4F7
:103D60004BC406314CE5140709F07FC58091F2037E
:103D70008A7A91E009F490E090937E0169E28111E2
:103D800065E38CE591E00E94850595CFC8018D5AC9
:103D90009D45039730F730C480910004806207305E
:103DA0003CE51307B9F180910004806108304CE5CF
:103DB000140780F18091000480642CC00D305CE514
:103DC000150709F4C0C090F4809100048E7F0B3079
:103DD0009CE51907F9F0809100048C600C30ACE58B
:103DE0001A07C0F0809100048D7F14C00F30BCE52D
:103DF0001B0709F4B8C008F4AAC00031FCE51F078E
:103E000009F4B5C0809100048F7B01312CE51207C5
:103E100009F01CC48093000419C40F3F3CE513074C
:103E200009F4B3C0A8F50A3F5CE5150709F479C0A9
:103E3000C0F404319CE5190709F4B5C008F4A1C029
:103E40000531BCE51B0709F001C48091000482FB29
:103E5000992790F921E0922790FB82F990FB83F952
:103E6000D9CF0C3FECE51E0709F475C008F45DC01E
:103E70000D3F2CE5120709F472C0809101048360A4
:103E80000E3F3CE5130709F0E1C380930104DEC354
:103E900001364DE5140709F491C090F401308DE529
:103EA000180709F489C008F474C060E00230ADE579
:103EB0001A0709F0CBC38EE090E00E94EE30C6C333
:103EC0000D3ABDE51B07E9F060F490910004892FDD
:103ED0008E7F90FF8160053AFDE51F0709F49ACFB8
:103EE000B5C30E3A2DE5120751F10F3A3DE5130720
:103EF00009F0ACC390910104892F877F93FF8860FC
:103F0000C4CF809101048860C0CF8091000482609A
:103F100081CF8091000484607DCF8091000488600F
:103F200079CF809101048160B0CF809101048260DB
:103F3000ACCF0E9449138091000480686BCF8091C0
:103F40000104877FA2CF809100048B7F63CF809193
:103F50000004877F5FCF809101048E7F96CF809190
:103F600001048D7F92CF809100048F7E53CF80918A
:103F700000048F7D4FCF0E944913809100048F77FA
:103F800049CF80910004837F45CF809101048C7FCD
:103F90007CCF80910104982F909591708E7F892B12
:103FA00090FB81F972CF0E94491390910004892FF0
:103FB00097FB87F980582ECF61E07DCF9091000468
:103FC000892F8F7E94FF806125CF85E3F2C30E9405
:103FD00049135FEF84E39CE0515080409040E1F74B
:103FE00000C000000E9468058091010482FB8827C0
:103FF00080F991E089270E941C13F701868197813F
:104000000097C1F10E9445088C01F701C280B5807C
:10401000B2943FE0B3228091ED018770C1F0AC2CE7
:10402000CC20B1F0812F807F803421F080E2800F9E
:10403000883068F08091010482FF09C082E00E940C
:1040400000138091ED018770AA24A3948111A12C03
:10405000912E92942FE09222FBE0F91508F484C08F
:10406000E92DF0E0EA5CFE4C0C94A63081E0C3CF71
:1040700080E0C1CF828100811181882369F0C8016D
:104080000E94680DD82E682FC8010E945C0AB801F2
:104090008D2D0E944B0DB6CFC8010E94280AD82E44
:1040A000F6CF212F2F70D22E107F19F0D29490EFDF
:1040B000D922CC20B9F0DD2069F080E2800F883071
:1040C00010F0011109C08091F203D82AD092F203B6
:1040D0000E940D12802F46C08091F103D82AD09201
:1040E000F103F6CF802F0E94A416DD20E9F180E2D3
:1040F000800F883010F0011104C08D2D0E94E50959
:1041000003C08D2D0E94DE090E940D122DC0312F9B
:104110003F70D32E107F103219F0D29480EFD82246
:10412000002381F0013009F497C0CC2009F4A0C02D
:10413000BB2009F46DC0F701858180FFCBCF8F7064
:10414000858366C08091010482FD3BC0CC2099F13B
:10415000DD2039F08091F203D82AD092F2030E9438
:104160000D1280E00E943C17292D2850330B24307B
:10417000310520F40E94E6050E94930AAA20B1F0BE
:104180008091ED0180FD12C0D70112961C92859599
:10419000859585950E943813C7010E94691C8091FE
:1041A000ED018595859585950E94F31260E0C70124
:1041B0000E94DE0D8ECC80E00E94A416DD20A1F2CC
:1041C0009CCFCC2049F1B11004C0809110028D2900
:1041D00020C041E0B41210C082FFC6CF809110020F
:1041E000D82AD81609F20E947C1090930F0280936F
:1041F0000E02D0921002B8CF55E0B512E6CF0E9461
:10420000D30990917F018D2D892B891380937F0194
:104210008D2D0E949A16A8CFB11003C00E94D30919
:1042200012C081E0B81213C08091F2038D2109F40D
:104230009BCF0E94D30990917F018D2D809589237A
:10424000891380937F018D2D0E9493168DCF95E069
:10425000B91609F489CFE2CFCC2029F0A5E0AB153F
:1042600008F482CFD5CFB4E0BB1508F47DCFEBCFF7
:10427000BB2049F3093349F4FFEF27EE33E0F15057
:1042800020403040E1F700C00000802F0E94A416BB
:104290006BCF812F86958695837061F0813009F010
:1042A00063CFC8019370C11002C090E080E00E940B
:1042B000BA055ACFC8019370C11002C090E080E0E7
:1042C0000E94D00551CF802FCC2029F00E94980762
:1042D0000E94881049CF0E94D306FACF812F8370A5
:1042E00089F5C11041CF402F429546954770440F44
:1042F000440F802F8F70042E01C0880F0A94EAF7B4
:10430000202F207104FF07C02FE030E001C0220FF2
:104310004A95EAF72095169516951370123069F0B4
:1043200050F430911102113029F0822B83230E9426
:1043300044131ACF832B822BFACF282B80911102A2
:104340008227F5CF8695CC2011F0812F81708823AC
:1043500009F40ACF402F429546954770440F440F09
:10436000802F8F70042E01C0880F0A94EAF7202F47
:10437000207104FF07C02FE030E001C0220F4A95F2
:10438000EAF72095169516951370123069F050F4DF
:1043900030913404113029F0822B83230E94E212E1
:1043A000E3CE832B822BFACF282B809134048227F3
:1043B000F5CF1F70CC2029F0812F0E943813802F59
:1043C00028CF802F0E949316812F0E94F312CCCE0B
:1043D000023F89F160F4003FB9F0013F81F0CC2049
:1043E00009F464C0B11076CE812F8F7128C0033FCD
:1043F00049F1043FA1F78091010482FD2FC0812F74
:104400008F71CC2011F31BC0CC2081F044E04B1500
:1044100008F4AACE1F7181E090E0012E01C0880F40
:104420000A94EAF7909134048927B8CF55E05B15D8
:1044300008F49ACEEFCF812F8F71C110C6CF0E94A2
:10444000381392CE80E0CC2009F4A8CF1F7181E010
:10445000012E01C0880F0A94EAF7A0CFCC20C9F042
:104460008091ED018770843041F40E94EC09812F26
:104470008F710E94F312A12C77CE84E08B15D8F3B4
:104480001F71812F0E94381363E0812F0E94E8186A
:10449000F2CF94E09B1530F40E94EC0964E0812F88
:1044A0008F71F4CF81E00E940013E5CFBB2059F05B
:1044B000093309F0EACEAFEFB7EEE3E0A150B04028
:1044C000E040E1F7E0CE812F8F717FCF552029F0BA
:1044D000DC0118968C9185FF0CCCC80197558F3F55
:1044E000910511F008F02BC15801BB24BEE00B9FD1
:1044F000F00111249F01205A3D4F6901D701129606
:104500008C91EB59FD4F908180FB90F9908388232B
:1045100009F4F6CB0E947C1090933502809334020C
:10452000F60182818F5F82838091F1039091F20383
:10453000892B83838091100284830680F781E02D8C
:10454000309731F0D6011C966D917C91C60109958A
:104550008EE08A9DF0018B9DF00D1124E05AFD4FF5
:10456000858181FFCACB90E080E09093F303809334
:10457000F4032BC080917C0190917D0108171907ED
:1045800081F410927D0110927C011092E30310924D
:10459000E4031092E5031092E6031092EB031092ED
:1045A000EA038091EC039091ED03009709F495CF15
:1045B000A8E08A16910408F091CB642D0E9444066D
:1045C000811103C081E00E94D616D70112968C910A
:1045D000882309F4E4C01092F0030330BDE51B0703
:1045E00008F0B4CB0A3FECE51E0730F4C801825056
:1045F0009C45449708F0B5CB0E94270E9093010488
:104600008093000402314CE5140709F4B4CC08F09F
:1046100004CC09308CE5180709F48BCC08F0CECB1C
:104620000530ACE51A0709F478CC08F0B5CB0330B7
:10463000ECE51E0709F469CC08F06BCC809100040E
:10464000816002302CE5120709F4E4CB609100048C
:104650001091010484E090E00E94EE30612F82E22C
:1046600090E00E94EE300E94491323CA0031FFE51A
:104670001F0709F419CA01312FE5120709F040C0DC
:1046800082E013CA00313FE5130709F426CA01315D
:104690004FE5140709F425CA6801E7E5DE1AFFEFC4
:1046A000CF16D10409F060F566E572E08C2D0E940A
:1046B000EC0C892B29F58EE08C9DF0018D9DF00D81
:1046C0001124E05AFD4F8281813009F00CCA80919B
:1046D000560290915702892B99F08091580290913F
:1046E0005902892B69F080915A0290915B022091C6
:1046F0005C0230915D02822B932B892B09F4FDC95A
:10470000D70112965C90552009F40CCA0F35BDE50F
:104710001B0709F403CA0036EDE51E0751F00E35FC
:10472000FDE51F0709F0FEC980910001882309F407
:10473000F5C91092000180E00E94D616BAC9033F65
:104740005CE5150709F4EACAC0F4083D9CE51907C1
:1047500009F4DECA093DACE51A0709F4F1CA073DC0
:10476000BCE51B0709F031CF06E221EE41EE67ED13
:104770007CE5C7010E946C189CC9053FECE51E074B
:1047800009F4D8CA08F4D0CA063F2CE5120709F08C
:104790001CCF07E225EE46EE66EF7CE5EACF063158
:1047A0003CE5130709F029CC80917E0181110DCCE5
:1047B00089E20E94F3097FCAA114B10409F045CA35
:1047C000512CB12CA12C80E00E94D616D092ED0382
:1047D000C092EC0381E08093E903F6018581809328
:1047E000E70351100EC0AB2861F0F6018081918182
:1047F0009C0124503109213A310508F04DCA0E942C
:10480000F309D6011696AD90BC90C5019A95811515
:104810009F4110F4E0EEBE2277247394C501019706
:10482000803B9D4508F0712CD6011996ED91FC91C5
:104830001A97309731F01B966D917C9181E0099524
:104840007822772079F0F601868197810E94BB0A51
:104850008093E803C501F8E08F16910408F01FCAA1
:104860000E94F3050E940D1223CA0A354DE5140774
:1048700009F4FCCB68F401158CE5180709F4A7CB03
:104880000E3D1C4509F0B9CB0E94050F0E946C1625
:104890000C35ADE51A0709F4A7CB08F4E9CB073AC4
:1048A0001D45A1F3AACBB0E0A0E0E9E5F4E20C9449
:1048B00065308091A601807F31F48091A301C09181
:1048C000EA01811107C0CDB7DEB7E8E00C94813072
:1048D0002196C7708091A9018C17A9F3F090A101CE
:1048E000E090A201C090A401D090A501A6016E2D78
:1048F0008F2D0E946406D0E08111EACF8E0183E003
:10490000000F111F8A95E1F7F801E655FE4F8181EE
:104910008E11DECF80818F11DBCF82818111D8CFC4
:10492000E380F480EC18FD0860E081EA91E00E94E9
:10493000DE0D0E94000DE816F90650F68091A601E2
:104940008F7080618093A601F801E155FE4F808150
:104950008F708061808381EA91E00E94691C0E94CF
:104960001E0AB1CFA5E1B0E0E8EBF4E20C945D30B3
:104970008C0185E0F801DE01519601900D928A9537
:10498000E1F7F801E28041EAA42E41E0B42E8090E4
:10499000A4019090A501A4016091A2018091A101C0
:1049A0000E946406682E8111A1C1F801C380D480E1
:1049B000F090A301C601881999094C01FF2009F460
:1049C00047C14080518060E0C5010E94DE0D0E9419
:1049D000000D7090A6018816990608F0E1C040917C
:1049E000A4015091A501B090A101A090A201872D32
:1049F000807F6A2D09F080C08B2D0E946406FE2CFA
:104A0000811124C0F80181818A1120C080818B111D
:104A10001DC02091A7013091A80186819781281798
:104A20003907A1F4E11012C0872D8F708061809347
:104A3000A60181EA91E00E94691C8091A601F8011B
:104A400085838F2D6596E0E10C947930A601652D64
:104A5000842D0E946406811122C081E08E25F82FEA
:104A6000F170DF2E80FF3EC08091EA012091A90104
:104A7000821317C0498A5A8A89899A890E94970D98
:104A8000292F22952F70223008F1243030F59F70A5
:104A900009F1F8019581907FE9F4F62CD2CF80E0FE
:104AA000DECF90E0FC0133E0EE0FFF1F3A95E1F717
:104AB000E655FE4F3181531206C03081431203C0C8
:104AC0003281E3120FC001968770D2CF9F7011F030
:104AD000882319F3805E883000F3C8010E94691CA6
:104AE0006D2CDBCFEE2009F4ACCF8091A601816064
:104AF0008093A601F12CA5CF8B2D0E946406811115
:104B00001FC0F80181818A111BC080818B1118C0E0
:104B10002091A7013091A801868197812817390734
:104B200079F4E1100DC07582C8010E94691C88E00B
:104B3000F801A1EAB1E001900D928A95E1F781CFE9
:104B4000C8010E94A40D882339F1EE2029F180913B
:104B5000A6018032A0F02091A1013091A2013A87F4
:104B600029871B86DD86CC868E878091A701909150
:104B7000A801988B8F87CE0109960E94691C88E056
:104B8000F801A1EAB1E001900D928A95E1F70E9447
:104B90005324FF24F39455CFC8010E94691CF9CF18
:104BA000872D807F51F481EA91E00E94691C88E0A2
:104BB000F50111928A95E9F79DCF9090A10180901F
:104BC000A2014091A4015091A501682D892D0E9458
:104BD000640681111CC0F8018181881118C0808190
:104BE000891115C02091A7013091A8018681978174
:104BF0002817390761F4E1100AC07582C8010E94C4
:104C0000691C88E0F50111928A95E9F71ACFC8016D
:104C10000E94A40D882309F4BFCFEE2009F4BCCF75
:104C20008091A601803208F4AACF2091A101309191
:104C3000A2013A8329831B82DD82CC828E838091FC
:104C4000A7019091A80198878F83CE01019695CFF7
:104C500060E081EA91E00E94DE0D0E94000D88165E
:104C6000990678F6FE2CEE2009F496CFE090A1018B
:104C7000D090A2014091A4015091A5016D2D8E2DDF
:104C80000E946406811124C0F80181818D1120C029
:104C900080818E111DC02091A7013091A8018681CD
:104CA000978128173907A1F49091A60190FD3FCF75
:104CB000907F09F43CCF8091A6018583903F09F451
:104CC00033CF982F907F905F8F70892B85832CCF67
:104CD000C8010E94A40D811152CF8091A60181606C
:104CE0008093A601C8010E94691CABCEEE2009F496
:104CF00053CFC8010E94A40DF82E882309F44CCF8D
:104D000088E0F801A1EAB1E001900D928A95E1F7FF
:104D10008091A1019091A2010E94970D0E945324BD
:104D200090CEA0E1B0E0E7E9F6E20C946B30298781
:104D30003A874B875C876D877E878F87988BCE01FC
:104D400009960E94B22481112FC088E0FE01399695
:104D5000DE01119601900D928A95E1F74C855D85F3
:104D60006A8589850E94640681111EC0A091A901EF
:104D7000B0E0CD010196877099272091EA012817AC
:104D80001906E1F093E0AA0FBB1F9A95E1F7A6552B
:104D9000BE4F98E0FE01319601900D929A95E1F791
:104DA0008093A9010E941E0A8091EA019091A901B5
:104DB000891312C06096E2E00C9487300E94491378
:104DC0001092A9011092EA0188E0E1EAF1E0DF0126
:104DD0001D928A95E9F7E8CFB8E08B9FC0011124B6
:104DE00086559E4F0E94B224882321F38091EA01C8
:104DF00090E00196877099278093EA01D5CFEF92D2
:104E0000FF920F931F93CF93DF93809152038823D8
:104E100061F0C09151038CE0F82E80915203C817C5
:104E200048F01092520310925103CDB7DEB7E6E07E
:104E30000C948330EE24E394EC0EE09251030C2F9B
:104E400010E0CF9DE0011124CD5ADC4F4B815C81F5
:104E5000698188810E94640681111DC08E819F81B5
:104E6000892B21F488859985019651F4288139810F
:104E70004A815B816C817D818E819F810E94912618
:104E8000F09EF001F19EF00D1124ED5AFC4F1482BA
:104E900013821092F103CE2DC0CF1092DA0310923C
:104EA000D90310920F018091D8038093D7030E94F9
:104EB0009D060E94FF260895B0E0A0E0E2E6F7E23A
:104EC0000C945C30C091D70397E0892E01E010E08C
:104ED0002CE0322E3EEF932E442443948091D8034D
:104EE0008C1309C00E94FF260E949D06CDB7DEB735
:104EF000E1E10C947830D0E0FE01EE0FFF1FE153AA
:104F0000FC4F80819181889ED001899EB00D112433
:104F1000AD54BC4F14962C911497211158C0509049
:104F20005203E3E5F3E030E020E0712C5D0125154C
:104F300008F04BC0E284F384D501CD90DC906FEF94
:104F40007FEF612C462D50E0DA01AA0FBB1FAC0D9C
:104F5000BD1D0D90BC91A02D109731F0EA16FB06F7
:104F600009F4BA016394EECF6F3F7607A9F1D80137
:104F700002C0AA0FBB1F6A95E2F77A2AB801062C75
:104F800002C0660F771F0A94E2F7AB014150510946
:104F900074161506F9F4329EF001339EF00D1124BB
:104FA000ED5AFC4F889ED001899EB00D1124AD545E
:104FB000BC4F12962D913C91139737832683908294
:104FC00091829187808715964C920E946F06219658
:104FD000C37084CF148213822F5F3F4F3C96A7CFBC
:104FE0001F921FB61F9211248F939F93AF93BF936D
:104FF0008091FB03811113C08091FC039091FD030C
:10500000A091FE03B091FF034196A11DB11D8093B5
:10501000FC039093FD03A093FE03B093FF03BF91A5
:10502000AF919F918F911F901FBE1F901895CDB784
:10503000DEB7E4970FB6F894DEBF0FBECDBF85B7DD
:10504000806885BF85B7806885BF84B7877F84BF48
:105050000FB6F894A89580916000886180936000F5
:10506000109260000FBE80E890E00FB6F894809335
:105070006100909361000FBE80E098E090935B0127
:1050800080935A010E94AE060E94C10E0E94350E06
:105090000E94E0030E94AB048091E2008460809350
:1050A000E200789480912A048823A1F01091E9000D
:1050B0001F709091EC00892F817090FD80E8182B73
:1050C0001092E9008091E80083FD0E945F131F7039
:1050D0001093E90082E084BD93E095BD9AEF97BDFF
:1050E00080936E000E940E0E811102C00E94DC0CA3
:1050F0008091180281110EC00E94F12E2FEF33ED26
:1051000040E3215030404040E1F700C0000081E022
:10511000809318022198299822982A9884988C982C
:1051200085988D9886988E9887988F9829982A9830
:105130008C988D988E988F980E94240B6E98769AF2
:1051400052985A9A53985B9A54985C9A57985F9AD7
:105150003E98469A24982C9A0E94340BE9E1F2E09A
:1051600085E292E0A9E3B2E0119211921D921D92A4
:105170008E179F07C9F790E080E00E94E830883ED4
:105180009E4F21F40E940E0E811102C00E94050F55
:1051900082E090E00E94E030809327020E94270E78
:1051A00090930104809300040E94AF10BFEFE6E7E4
:1051B000F1E0B150E040F040E1F700C000000E9493
:1051C000AF108091390280FF08C06FEF7FEF90E051
:1051D00080E00E940C310E94680583E090E00E940C
:1051E000E0300E944413259A2D98269A2E98239AEF
:1051F0002B980E94F50A0E94F20A0E94EF0A0E9470
:10520000EC0A559A5D982FEF30E742E0215030408C
:105210004040E1F700C00000259A2D9A8FEF90E7FB
:10522000A2E081509040A040E1F700C00000269A23
:105230002E9ABFEFE0E7F2E0B150E040F040E1F736
:1052400000C00000239A2B9A2FEF30E742E0215054
:1052500030404040E1F700C000000E94F50A8FEFA7
:1052600090E7A2E081509040A040E1F700C000002C
:105270000E94F20ABFEFE0E7F2E0B150E040F040F8
:10528000E1F700C000000E94EF0A2FEF30E742E094
:10529000215030404040E1F700C000000E94EC0A7D
:1052A0000E94F50A0E94F20A0E94EF0A0E94EC0A8C
:1052B00081E091E09093F8038093F703B0E42B2E04
:1052C000552453948E010F5F1F4F80912A04F0E103
:1052D000EF2EA2E1FA2E853009F492C00E94AF10A1
:1052E000E8E28E2EE2E09E2EA9E3B2E0F4012191E5
:1052F00031918D919D9142E0E433F40709F48CC023
:1053000028173907A1F379E3A72E72E0B72E412CB5
:10531000D501ED90FD905D01F401619071904F0118
:105320006E147F0459F16E247F24312CCC24C39455
:10533000D12CC3018C219D21892BB1F038AA49AA17
:1053400021E0C7018C219D21892B09F420E02AABA3
:105350000E947C108160782F9CAB8BAB48A959A927
:105360006AA98CA90E94FF183394CC0CDD1CFEE0C6
:105370003F12DFCFF4013297F182E082439426E0BE
:105380004212C6CF0E94790569C080912A048430F8
:1053900031F180E00E94930A1092FB0388E190E0D3
:1053A0000FB6F894A895809360000FBE209260001D
:1053B00083B7817F846083BF83B7816083BF789424
:1053C000889583B78E7F83BF0FB6F894A895809198
:1053D0006000886180936000109260000FBE809131
:1053E0002904882369F00E94AF10E9E3F2E081917B
:1053F0009191892B09F0CCC492E0E534F907B9F713
:1054000080912A04853009F4C0CF0E9449130E947C
:10541000E6050E94930A62CF2817390709F073CF77
:105420000E947C107C018091250290912602E81652
:10543000F906A1F08FEF8BA78CA71DA60E947C1008
:105440008160782F9FA78EA74BA55CA56DA58FA522
:105450000E94FF18F0922602E09225028091EA0352
:105460009091EB03892B09F43EC04091DF035091EA
:10547000E0036091E1037091E2032FB7F89480910B
:10548000FC039091FD03A091FE03B091FF032FBF99
:10549000841B950BA60BB70B4091DB035091DC03EB
:1054A0006091DD037091DE0384179507A607B707A7
:1054B000D0F08091EA039091EB030E94D0181092F3
:1054C000EB031092EA031092DF031092E0031092B4
:1054D000E1031092E2031092DB031092DC031092BE
:1054E000DD031092DE03E090F303F090F403E11487
:1054F000F104E9F080913402909135020E946D1020
:105500006C01C7010E94000D8C159D0580F48091EF
:10551000F3033EE0839FC0011124FC01EB59FD4FD2
:10552000208122FD04C0805A9D4F0E949B128091D1
:105530000F01882301F18091D9039091DA0300973C
:10554000D1F00E946D1020914F0330915003281725
:10555000390788F49091D7038091D803981709F4FC
:1055600024C10E945C271092500310924F031092A6
:10557000DA031092D90386E0ECE4F2E0D80101905E
:105580000D928A95E1F710924E0210924F021092FE
:105590005002109251028B819C81892B09F44AC0E0
:1055A00080914A0290914B020E946D109C01909153
:1055B0004602992309F410C425313105D8F19F3FE3
:1055C00019F09F5F90934602FB80FF2059F00E94E4
:1055D00078079FEF1F140CF491E0899F802D112410
:1055E00080934E02FC80FF2059F00E9478079FEFC5
:1055F0001F140CF491E0899F802D112480934F0299
:1056000030914E023323B1F020914F02222391F0CA
:1056100045EB3403C0011124992309F4CFC09093C2
:105620004E0245EB240390011124332309F4C9C031
:1056300030934F028D819E81892B09F44AC080915D
:105640004802909149020E946D109C019091450280
:10565000992309F4BCC321353105D8F19F3F19F0D6
:105660009F5F90934502FD80FF2059F00E945607EE
:105670009FEF1F140CF491E0899F802D11248093DB
:105680005002FE80FF2059F00E9456079FEF1F1422
:105690000CF491E0899F802D112480935102309168
:1056A00050023323B1F020915102222391F045EBB7
:1056B0003403C0011124992309F486C09093500249
:1056C00045EB240390011124332309F480C0309367
:1056D000510246E050E0B8018CE492E00E94BC30F8
:1056E000892B61F480914E0290914F02892B909109
:1056F0005002892B90915102892B11F00E94881041
:1057000086E0F801ACE4B2E001900D928A95E1F7F1
:105710000E94E605F82E80913602F81639F0F092D4
:1057200036020E9479058F2D0E94930A80912A04E7
:10573000843009F0CACD83E08093E9008091E800CD
:1057400082FFC3CD8091E80090E085FF0AC00E94EF
:10575000FF0340E2E42EF12C6801882309F444C0E1
:1057600091E08091E8008B778093E800992309F419
:10577000ACCDE0904D03F0904E038981E114F1042B
:1057800009F440C08E3F09F080C08A81833020F048
:105790008550833008F079C0EA81EE3008F075C09A
:1057A000F0E0EE5BFE4C0C94A6300E94FF261092B7
:1057B000DA031092D9030E949D06DDCE50924E026C
:1057C00030CF50924F0236CF5092500279CF509244
:1057D00051027FCF8091F100D6018D936D01B1E030
:1057E000EB1AF10809F4BCCF8091E80085FDF2CFF7
:1057F0008091E8008B778093E8000E94FF03882364
:1058000099F3AECF8D3009F4A9C0B8F4843009F40F
:105810008CC048F4823049F108F078C0813009F139
:105820008FEF898332C0863009F495C008F488C0B0
:105830008C30B1F780E18A8328C0813109F4E7C058
:1058400040F48F3009F4B6C008F48BC00E94E10B1D
:105850001CC0833109F406C108F4DBC08E3F01F798
:105860009BCF1A8289E08B8310C08A81823009F431
:10587000A5C2833099F1813099F60E9479050E9482
:10588000AC306B837C838D839E8380912A0484302B
:1058900009F01BCDF090E9003F2D3F70F32E909161
:1058A000EC00892F817090FD80E8F82A82E08093D7
:1058B000E9008091E80080FF0CC050E040E060E229
:1058C00070E0C8010E9430048091E8008E778093D8
:1058D000E8008F2D8F708093E900F7CC80910D0147
:1058E00090910E01892B89F2D801E9E3F2E08081E1
:1058F0009181329612969C93129713968C931397DC
:10590000129622E0E534F20791F7BFCF8A81823008
:1059100009F086CF6B817C818D819E810E94AC30A5
:1059200086E290E00E94EE30B0CF4C816B818A819C
:105930000E941C0D9827892798279E838D83A5CFC9
:105940002D813E813227232732274C816B818A812A
:105950000E94F10B9ACF0E94300C97CF1A8289E9EE
:1059600082CFEC80F12C3DE1E316F10408F08DCFFD
:10597000CA80DB80DC24CD24DC245801E00EF11E3B
:10598000C60189599C4FEA14FB0409F47ECF49E90A
:10599000C416D10460F40E94E030D50114968C93B3
:1059A000FFEFCF1ADF0A2FEFA21AB20AE9CFF501F3
:1059B0001482F6CF80910D0190910E01892B09F48C
:1059C00064CFCC80D12C3DE1C316D10408F05DCF6B
:1059D000EA80FB80FE24EF24FE245801CE0CDF1C5D
:1059E000C70189599C4FCE14DF0409F44ECF49E911
:1059F000E416F10428F4D50114966C910E94EE305F
:105A0000BFEFAB1ABB0AEFEFEE1AFE0AE9CF84E054
:105A100012CFEC80F12CFDE1EF16F10408F035CF48
:105A2000CA80DB80DC24CD24DC245801E00EF11E8A
:105A3000C6018796AE14BF0409F427CF20EAC21628
:105A400022E0D20660F40E94E030D50114968C93D7
:105A5000FFEFCF1ADF0A2FEFA21AB20AE9CFF50142
:105A60001482F6CFCC80D12C3DE1C316D10408F0CE
:105A70000CCFEA80FB80FE24EF24FE2440EAE416EB
:105A800042E0F40608F001CF80EA92E08E199F0907
:105A90008C159D0508F4F9CE5801CE0CDF1CC7010A
:105AA0008796EC14FD0409F4F0CEA0EAEA16A2E011
:105AB000FA0620F4F50164810E94EE30FFEFAF1A80
:105AC000BF0A2FEFE21AF20AEACF88E0E1E1F1E043
:105AD000DE01919601900D928A95E1F780E2D8015E
