:100000000C94BE030C94DB030C94DB030C94DB0315
:100010000C94DB030C94DB030C94DB030C94DB03E8
:100020000C94DB030C94DB030C94910E0C94C4151C
:100030000C94CD260C94DB030C94DB030C94DB03B3
:100040000C94DB030C94DB030C94DB030C94DB03B8
:100050000C94DB030C94690F0C94DB030C94DB030E
:100060000C94DB030C94DB030C94DB030C94DB0398
:100070000C94DB030C94DB030C94DB030C94DB0388
:100080000C94DB030C94DB030C94DB030C94DB0378
:100090000C94DB030C94DB030C94DB030C94DB0368
:1000A0000C94DB030C94DB030C94DB0305010902C5
:1000B000A10185020901A1000509190129081500FE
:1000C0002501950875018102050109300931158165
:1000D000257F95027508810609381581257F9501D0
:1000E00075088106050C0A38021581257F95017572
:1000F000088106C0C005010980A101850319012AF4
:10010000B700150126B700950175108100C0050CD8
:100110000901A101850419012AA002150126A002E6
:10012000950175108100C005010906A1018506052C
:100130000719E029E71500250195087501810205D9
:1001400007190029EF1500250195F07501810205B9
:10015000081901290595057501910295017503910D
:1001600001C00660FF0961A1010962150026FF00B8
:100170009520750881020963150026FF00952075FA
:10018000089102C005010906A101050719E029E748
:1001900015002501950875018102950175088101F9
:1001A0000507190029FF150026FF0095067508812F
:1001B000000508190129059505750191029501753C
:1001C000039101C0FD377A585A000004E6D6B446C0
:1001D0000200210116000000742FE5A3E0060B01C8
:1001E0006F5D003D8889C65436C3174FE4DDF7CBF9
:1001F000002F37A698544F5FCD39B09732EAC948DF
:10020000BAAD41981C2AB1AFDF0180A1E28EDEF8C1
:100210008F92313171D313D4738BB3016FFBDB82B7
:10022000D9C34F850B93F2014E5DE0ACB0EE34784C
:1002300021D1E8D196B8A42CAFDEA0965DAC122CEB
:10024000C456663A096B64B0CB9A97AECBA6F35C02
:10025000C7C6CDDBE400CC433A38006C04FB57033F
:100260002FDB6B471FCC65300837365A12922B9C18
:10027000A27EE2CEE9E37E5B598F277285A3843D9F
:100280004E4587C9BB1D5AF7AE52E6715EBF0923C2
:10029000059537C195671327D27B6D351768625175
:1002A000C6786F2E9EC301DA34B755922F325E782E
:1002B00001BD06DCDE601B246CDE45DEFC7B6EC40B
:1002C0009861CEAAD32C5523A26C4579F1CE62F762
:1002D0008BC66FA93818972B44673BB6183D0B1B8C
:1002E00081ABC01029012F9656F32AB254392851F8
:1002F0008D3816681CE890ECBB1E708E4B7D72A684
:10030000FC7CBC70256916D3A93D232F923F4CADD0
:1003100008F78AB8266ECE134A5A1E8C2303EEF6CF
:100320008CF7A687062309969E46F500A5D95D0F92
:100330001B71B55ADB2916EB9BC50A279A9FE52E40
:10034000D860DCF1DC7BD239C5B3DE92BBD0402A69
:100350002FB70000048D5C515933914D00018B0380
:100360008C0C0000F1BA175EB1C467FB02000000FC
:100370000004595A35001E001F00200021002200F1
:1003800050004F00230024002500260027002A00EB
:100390002B0014001A000800150017002D002F0074
:1003A0001C0018000C001200130031003943040037
:1003B0001600070009000A00000000000B000D00F5
:1003C0000E000F0033003443E1001D001B00060047
:1003D000190005002E003000110010003600370013
:1003E0003800E500292D0000E000E200E3000000F5
:1003F000000000000000E700E600E4000000293DE6
:10040000000028002A002C266200005201525100F0
:10041000520050002C262A004F00000001003A0034
:100420003B003C003D003E00440045003F004000D2
:1004300041004200430001000100010001000100F1
:1004400001000100010001000100010001000100A4
:100450000100010001000100010001000100010094
:100460000000000001000100010001000100010086
:100470000100010001000100010001000100010074
:100480000100010001000100010001000100010064
:100490000100010001000000000000000000010058
:1004A0000100010001000100000001000100010045
:1004B0005900005202520100010001000100010038
:1004C0000100000001000100010001000100010025
:1004D0000100010001000100010001000100010014
:1004E0000100010001000100010001000100010004
:1004F00001000100010001000100010001000100F4
:1005000001000100010001000000000001000100E5
:1005100001000100010001000100010001000100D3
:1005200001000100010001000100010001000100C3
:1005300001000100010001000100010001000000B4
:1005400000000000000001000100010001000100A6
:1005500000000100010001005A0000520352010096
:100560000100010001000100010000000000000086
:100570000000000000000000520100000000000028
:10058000000000000000000000000000000000006B
:10059000000000005001000000000000000000000A
:1005A0000000000000005000510052004F00000009
:1005B000000000005000510052004F0000000000F9
:1005C0000000000000000000000000004F010000DB
:1005D0000000000000000000000000000100010019
:1005E0000100010001000000000000000000010007
:1005F00001000100010000000000010001000100F5
:100600005B0000520000AA00A900BD00010001002B
:10061000BE00000009025B00030100A0FA0904000B
:10062000000103010100092111010001224000071E
:10063000058103080001090401000203000000090C
:100640002111010001222200070582032000010779
:100650000503032000010904020001030000000952
:10066000211101000122B6000705840320000112B8
:100670000100020000000809122823010001020302
:10068000011C037600690061006C003A00660036C8
:100690000034006300320062003300630000001287
:1006A000034500720067006F0064006F006E006514
:1006B00000000012034B002E0054002E0045002EB7
:1006C0000043002E000000040309040000000000A5
:1006D000000000000000000000000000000000001A
:1006E0000000000000000000000000000000007E8C
:1006F0000F00D4FFFFFFC7000000780000000000DB
:100700000000002A2B28000000000000000000006C
:1007100000000000000029000000002C1E342021F1
:100720002224342627252E362D3738271E1F202138
:1007300022232425263333362E37381F0405060797
:1007400008090A0B0C0D0E0F1011121314151617B1
:1007500018191A1B1C1D2F3130232D3504050607CF
:1007600008090A0B0C0D0E0F101112131415161791
:1007700018191A1B1C1D2F3130354C0011241FBEB7
:10078000CFEFDAE0DEBFCDBF11E0A0E0B1E0ECE5F5
:10079000F1E602C005900D92A036B107D9F724E02A
:1007A000A0E6B1E001C01D92A934B207E1F70E94B2
:1007B000F4260C9445300C940000982FE0914804E6
:1007C0004091FF0359E0E41302C080E008952E2F0A
:1007D00030E05E9FF0011124E050FC4F81816813EE
:1007E00006C08081981303C085818111EFCFF90184
:1007F0003196E770E8CFE8EDF0E080818E7F80836E
:100800001092E2001092DA001092E100A0EEB0E047
:100810008C9181608C9380818F77808319BCA7ED48
:10082000B0E08C918E7F8C9380818F7E808310923C
:10083000D00308952091E4003091E50095E6A901E8
:100840002091EC00822F817020FF06C08091E8008B
:1008500080FF06C080E008952091E80022FD1AC0C4
:100860008091F503882389F0853089F08091EB0031
:1008700085FD0FC02091E4003091E5004217530739
:10088000F9F29150E1F684E0089582E0089583E062
:10089000089581E008958091F70387FF13C0809148
:1008A000E80082FF06C08091E8008B778093E80023
:1008B00004C08091F5038111F2CF08958091F50372
:1008C0008823D9F38091E80080FFF8CF8091E80079
:1008D0008E77ECCF982F9093E900242F762F50E05D
:1008E000891731F07091EC002091ED005091F000EB
:1008F00021FD07C09F5F973071F78093E90081E089
:1009000008953091EB003E7F3093EB003091ED0085
:100910003D7F3093ED003091EB0031603093EB0080
:100920007093EC002093ED005093F0002091EE00C6
:1009300027FDE0CF80E00895B0E0A0E0E2EAF4E037
:100940000C94702FC8EDD0E088818F7E8883E7ED0E
:10095000F0E080818160808384E082BF81E08093C9
:10096000D00388818E7F888302EE10E0F801108228
:100970001092DA0081EEC82ED12CF6011082888107
:100980008F77888388818068888388818F7D88833A
:1009900019BC1092F5031092F6031092F403109212
:1009A000F30390EEE92EF12CF70180818B7F808399
:1009B00088818160888342E060E080E00E946A0470
:1009C000F60180818E7F8083F80180818160808341
:1009D000808188608083F70180818E7F8083888119
:1009E00080618883CDB7DEB7E8E00C948C2FFC01E2
:1009F000CB012091FD033091FE032617370790F0BD
:100A0000009729F42091E8002E772093E80040E039
:100A1000009751F4411108C08091E80082FF31C075
:100A200080E00895C901F3CF2091F5032223A9F1B5
:100A30002530A9F12091E80023FD2DC02091E80088
:100A400022FDEACF2091E80020FFE2CF3091F300B1
:100A50002091F200009719F02830310558F041E05C
:100A60002830310509F040E02091E8002E772093EE
:100A7000E800CECF41914093F10001972F5F3F4FA7
:100A8000E9CF8091F503882341F0853041F08091D2
:100A9000E80083FFC1CF81E0089582E0089583E0FC
:100AA00008958091D203089587E797E7909301080E
:100AB0008093000888E19AE00FB6F894A895809397
:100AC00060000FBE90936000FFCFA4E0B0E0EBE6C3
:100AD000F5E00C94762F8FB7F8942091CA033091EB
:100AE000CB034091CC035091CD0329833A834B83B0
:100AF0005C838FBF69817A818B819C812496E2E03F
:100B00000C94922F9C0180910C018823C1F080915C
:100B1000CE0387FF14C0E62FE695E695E695603F85
:100B2000F8F4E20FF32FF11D677021E030E001C00F
:100B3000220F6A95EAF78281822B82830895F90158
:100B400032968FEF90E04191641751F08F3F19F486
:100B5000411101C0892F9F5F9630A9F78F3F09F49B
:100B60000895280F311D87FD3A95F9016283089594
:100B7000A3E0B0E0EEEBF5E00C94762F9C018091C1
:100B8000C7039091C80382179307A1F03093C8035D
:100B90002093C703E091C503F091C603309751F04D
:100BA00084E089833B832A830680F781E02DCE0190
:100BB000019609952396E2E00C94922FA3E0B0E011
:100BC000E4EEF5E00C94762F9C018091C3039091A4
:100BD000C40382179307A1F03093C4032093C30387
:100BE000E091C503F091C603309751F083E089830B
:100BF0003B832A830680F781E02DCE01019609957B
:100C00002396E2E00C94922FE091C503F091C60385
:100C1000309729F00190F081E02D0995089580E04A
:100C20000895CF93DF93D82FC92F4091B1035091EE
:100C3000B2036091B3037091B4032FB7F89480911D
:100C4000CA039091CB03A091CC03B091CD032FBFE9
:100C5000841B950BA60BB70B843F9140A105B105F2
:100C600018F58091B1039091B203A091B303B091B4
:100C7000B4038093AD039093AE03A093AF03B093FE
:100C8000B00384EF91E0A0E0B0E08093A9039093DB
:100C9000AA03A093AB03B093AC03D093B803C09363
:100CA000B903DF91CF9108950E9465056093AD036C
:100CB0007093AE038093AF039093B00382E390E010
:100CC000A0E0B0E0E2CFFC018481862351F4828170
:100CD0008823B9F06823908593FF05C081E06111F6
:100CE0000FC080E00895282F2F7082958F70282BD9
:100CF000962F9F7062956F70692B81E02613F1CF5C
:100D0000089581E0FDCFAC013091A5036091A60369
:100D1000232F621301C00895822F90E0FC01EE0F93
:100D2000FF1FE356FC4F0190F081E02DE417F5071B
:100D300091F467E0649FF001659FF00D1124E85E77
:100D4000FC4F41E044832313E6CF0196837099273B
:100D50008093A50308950196282F2370DACF10926F
:100D6000160310921503E8E1F3E08581811102C0BA
:100D700014821682379683E0E433F807B1F70895BA
:100D8000EAE2F2E090E080E06DE67BE144E95BE1DD
:100D90002DEE3AE177836683518740873387228738
:100DA0009587848701963E968430910599F708953A
:100DB00081152CE7920741F420910A0130910B0133
:100DC000232B11F490E080E0089580910F0280FDC4
:100DD00016C081FD16C082FD16C080910E028823C8
:100DE000A1F0883280F428E0829FC001112468E2DB
:100DF00070E00E949D2F862F672B39F0089582E0C6
:100E0000089584E0089588E0089581E00895809130
:100E10000F0280FD14C081FD14C082FD16C08091B8
:100E20000D02882381F08E3180F420E5829FC0017D
:100E300011246EE170E00E949D2F862F089584E1B9
:100E4000089588E2089588E0089580E5089580E097
:100E500008959091CE0392FF06C0282F2871283064
:100E6000F9F4877F846093FF06C0282F287128310A
:100E7000F1F4877E84612091CF0320FF06C0382FD4
:100E800038713830D9F4877F816021FF06C0282F60
:100E900028712831D1F4877E816194FD877E089581
:100EA000282F24712430F9F68B7F8860DCCF282F1F
:100EB0002471243101F78B7E8861DDCF382F3171A9
:100EC000313019F78E7F8860E0CF282F21712131D2
:100ED00021F78E7E8861E1CF803E9105C1F1C8F493
:100EE0008133910509F47DC048F48932910509F4F4
:100EF0006DC08A32910509F47BC00895893391054C
:100F0000D1F082389105B9F08533910509F459C0C3
:100F10000895843E9105C1F138F4823E910521F196
:100F2000833E910531F10895863E9105C1F1873EDA
:100F30009105E1F108952091CE03237009F065C079
:100F40002091CF0323FF14C089E290E008952091FF
:100F5000CE0320FD43C03091CF0330FF09C024FFF2
:100F60004EC090E080E008952091CE0322FDF7CF9F
:100F700008952091CE0322FD45C03091CF0330FD6E
:100F800044C024FFF5CFEDCF2091CF0321FFF0CF58
:100F90008091CE0384FDE5CF87EE90E00895209107
:100FA000CE0323FFE5CF24FDDCCFF6CF2091CE0387
:100FB00023FD2EC03091CF0331FFE3CF84EE90E0CC
:100FC00008952091CE0325FFD3CFBECF2091CE032D
:100FD00025FD21C02091CF0323FFCACF89E390E0F4
:100FE000C7CF2091CE0326FFC3CF8AE290E00895B9
:100FF0002091CE0326FFBCCF81E390E0089583EEDD
:1010000090E0089582EE90E0089580EE90E00895DB
:1010100086EE90E0089585E390E008951F93CF93C6
:10102000DF930E946C07EC018115924508F05FC0C8
:10103000C11580E5D80708F0DDC0C03ED10538F500
:10104000CD3CD10508F0AEC0C83AD10580F4C53A10
:10105000D10508F0A4C0C130D10509F443C0CE01C8
:101060000497813A9105F0F1D0E0C0E03BC0CE0199
:10107000885A91094B97C0F7C85AD0E0CC0FDD1FB2
:10108000C65EDE4F0990D881C02DD4642BC0C11537
:1010900090E4D907F0F4C11520E2D20708F0C4C0EB
:1010A000C83ED105F8F0CE019A9581159F41E0F632
:1010B0008D2F0E942907182FCE0199270E946C07B7
:1010C000C12FD0E0DC2FCC27CC27DF71C82BD92B48
:1010D00009C0CE0199270E946C07CC27DF70C82B6E
:1010E000D92BD06ACE01DF91CF911F910895C038DE
:1010F00082E5D807B8F5C03692E5D90708F05BC09D
:10110000C03422E5D207C8F4C03282E5D80708F01F
:101110004BC02C2F2695269590E2299F90011124F3
:101120008C2F8370C1E0D0E002C0CC0FDD1F8A9508
:10113000E2F7C22BD32BDD68D5CF2C2F2695269531
:10114000277080E2289F900111248C2F8370C1E0CA
:10115000D0E002C0CC0FDD1F8A95E2F7C22BD32B63
:10116000DC68C0CFC03C92E5D90760F48C2F8F714A
:10117000C03AD245A8F5C82FD0E0DC2FCC27C46FE9
:10118000D06AB0CFCE01805C9245809708F06CCFDA
:10119000DC2FCC27CC27DF71C06FD06AA3CFA497F8
:1011A000D064A0CFD0659ECFCF71D0E0DC2FCC270C
:1011B000C16FD06A97CF2C2F26952695277080E295
:1011C000289F900111248C2F8370C1E0D0E002C0D1
:1011D000CC0FDD1F8A95E2F7C22BD32BDA6882CFC2
:1011E0000E942907C82FD0E0DC2FCC27CC27DF7145
:1011F000D06278CF8C2F8F710E94290755E0D69549
:10120000C7955A95E1F7CF70D0E0DC2FCC27282F77
:1012100030E084FF05C044E0220F331F4A95E1F718
:10122000C22BD32BD0695ECF8D2F8F710E942907DF
:10123000182FCE0199270E946C07C12FD0E0DC2F18
:10124000CC27CC27DF71C82BD92BD2CF8091D501E9
:10125000882331F01092D5011092D4011092D3015D
:101260000895982F90958091BF0389238093BF03A1
:101270000895982F90958091C00389238093C0038F
:1012800008951092B2011092B1011092B001089528
:101290009091AF01292F282321F0809589238093F5
:1012A000AF01089590910C019923E1F09091CE0344
:1012B00097FF18C0E82FE695E695E695803FF0F495
:1012C000F0E0EE59FE4F877021E030E0A90102C046
:1012D000440F551F8A95E2F7CA01809592818923B0
:1012E00082830895E4E6F1E09191891303C0DF0160
:1012F00011971C9251E0EA36F507B1F708958091F5
:1013000048049091FF03981301C008958F5F877080
:10131000FACF292F963078F58E3068F590E03EE0D0
:10132000239F800D911D1124682F677023E09695EF
:1013300087952A95E1F7FC01EE0FFF1FE80FF91FD3
:10134000EB57FE4F50E040E080E0219130E0062E68
:1013500002C0369527950A94E2F721703327042EB0
:1013600001C0220F0A94EAF7822B4F5F5F4F433090
:10137000510559F7089580E00895292F963090F58A
:101380008E3080F590E03EE0239F800D911D11246A
:10139000282F277041E001C0440F2A95EAF723E087
:1013A000969587952A95E1F7FC01EE0FFF1FE80F50
:1013B000F91FEB57FE4F90E080E070E05191DF01A4
:1013C00011979B01082E02C0369527950A94E2F7E3
:1013D000217021952527242325272C9301968330DE
:1013E000910561F708958093EC0108959091EC01C7
:1013F00021E030E0F90101C0EE0F8A95EAF7D9014A
:1014000002C0AA0FBB1F6A95E2F7EA2B01C0220FA8
:101410004A95EAF7892F8E23E81305C0292B822FDE
:101420000E94F309089520952923F9CF21E030E0A7
:1014300001C0220F8A95EAF720958091EC01822362
:101440000E94F30908959091B201809589238093B9
:10145000B201282F277069F4891759F09091CF03B2
:1014600092FF07C08695869586950E94160A0E946F
:101470004109089521E030E001C0220F8A95EAF782
:101480008091EC01822B0E94F30908958093EB0177
:10149000089580FF09C02D9A81FF08C02E9A82FF0F
:1014A00007C02B9A81E008952D98F6CF2E98F7CF9C
:1014B0002B98F8CF829594E0899F900111242C7C81
:1014C000869586958373282B30E0C901880F991F74
:1014D0008A7A359527952575822B08959C019A95D2
:1014E00081159F4150F5D901AA27B170F901EE2766
:1014F000F270B90166277470A9014427587034FF4F
:101500000EC080E1AB2B09F480E0EF2B09F0806284
:10151000672B09F08064452B89F08068089581E08D
:10152000AB2B09F480E0EF2B09F08260672B09F008
:101530008460452B19F08860089580E00895559ADD
:101540005D9A0895239A2B980895269A2E980895C7
:10155000259A2D980895A1E0B0E0E1EBFAE00C9413
:10156000732FF82E698304E610E021E030E0AE012D
:101570004F5F5F4F682F80E40E94D82E892B71F453
:101580006CE06F0D21E030E0AE014F5F5F4F80E413
:101590000E94D82E9C0181E0232B09F080E0219647
:1015A000E5E00C948F2F8091DA0181110BC06FEF71
:1015B00081E00E94AB0A91E098278091DA01890FBF
:1015C0008093DA010895CF936FEF80E00E94AB0A19
:1015D000C1E0982F9C278091DA01890F8093DA016E
:1015E0006FEF81E00E94AB0A982F9C278091DA016F
:1015F000890F8093DA01CF9108950F931F93CF93B2
:10160000DF938B01EA019091F503943061F58093AB
:10161000E9008FEF9091E800815095FD06C095EDAF
:101620009A95F1F700008111F5CF8091E80085FFD0
:101630001AC00E941A04811111C08091E80085FD32
:1016400006C08091E8008E778093E800F2CFF80121
:1016500081918F018093F100219779F78091E800C3
:101660008E778093E800DF91CF911F910F910895BD
:10167000BC0143E050E084E00E94FD0A0895BC01F3
:1016800046E050E084E00E94FD0A0895CF93DF9386
:10169000D82FC92F80910C01811113C048E050E070
:1016A0006D2F792F81E00E94FD0A80E2ED2FFC2F43
:1016B000A3EDB3E001900D928A95E1F7DF91CF9110
:1016C00008958091CE0387FF06C040E284E050E099
:1016D0006D2F7C2FE8CF48E081E0F9CFCF93DF93E7
:1016E000C9E6D3E060E0CE010E9409302196C11521
:1016F00084E0D807B9F7DF91CF9108951F93CF9376
:10170000DF93962F122F632F8430D8F49630C8F4CD
:101710004E30B8F4C42FD0E0CC0FDD1F2CE1929FE7
:10172000C00DD11D112498EA899FC00DD11D11242F
:10173000CE0189960E940930612FCE018A960E94BF
:101740000930DF91CF911F910895CF93C82F6FEF8C
:1017500081116BEF85E290E00E9409306FEFC111BB
:1017600068E786E290E00E9409306FEFC1116BE1FB
:1017700087E290E00E940930CF910895AEE1B0E099
:10178000E4ECFBE00C946B2FC0900A01D0900B01AD
:1017900081E090E090930B0180930A01912C812CC1
:1017A000E12C5401F12C15C0F80125913491472DFD
:1017B0006F2D8E2D0E947E0B0E5F1F4F73948EE057
:1017C0007812F2CFEEE0AE0EB11CF394F6E0FF1605
:1017D00039F08501000F111F0C581C4F712CE4CFFC
:1017E000E39484E5880E911CE4E0EE12DACF1A82CD
:1017F00019821C821B821E821D8218861F8288EC21
:1018000090E09A8789874AE050E069EC72E0CE0167
:1018100001960E942D304AE050E063ED72E0CE0167
:1018200001960E942D304AE050E06DED72E0CE014D
:1018300001960E942D304AE050E067EE72E0CE0142
:1018400001960E942D308E01055F1F4F8AE0F8013E
:1018500011928A95E9F74AE050E061EF72E0C80121
:101860000E942D304AE050E06BEF72E0C8010E9408
:101870002D304AE050E065E073E0C8010E942D3051
:101880004AE050E06FE073E0C8010E942D307E0115
:10189000F5E1EF0EF11C89E0F70111928A95E9F765
:1018A0008FEF9FEF9A8F898F87E08E8F09E113E08A
:1018B0004AE050E0B801C7010E942D30065F1F4F7B
:1018C0000936F3E01F07A1F7D0920B01C0920A017D
:1018D0006E96EDE00C94872F80E00E94A50B60E0EF
:1018E00088E290E00E9409300E94BE0B0E946E0BBD
:1018F00081E00E94A50B0895282FCB01243068F4C5
:101900003AE0239FB001112467537D4F4AE050E035
:101910000E94DB2F90E080E008958FEF9FEF089505
:10192000AAE0B0E0E6E9FCE00C94762F9C01975524
:101930008F3F910509F070F4BE016F5F7F4F822FDA
:101940000E947C0C892B31F489859A852A96E2E0E5
:101950000C94922F88EC90E0F9CF0F931F93CF93C4
:10196000DF93843030F5663020F54E3010F5C42F0B
:10197000D0E0CC0FDD1F2CE1629FC00DD11D1124E2
:1019800038EA839FC00DD11D1124CE0189960E9493
:10199000EB2F082F10E0102F0027CE018A960E940F
:1019A000EB2F9801282BC901DF91CF911F910F9147
:1019B000089590E080E0F8CF462F672F20910B022A
:1019C00030910C02232B91F4703F39F4403F71F4B5
:1019D00080911A0290911B020895763038F44E30AF
:1019E00028F4843018F40E94AD0C089580E090E053
:1019F0000895B0E0A0E0EFEFFCE00C94712F7C01C3
:101A00000091EC018091EB01082BC3E0D0E010E0E5
:101A1000DC2EC8010C2E02C0959587950A94E2F73A
:101A200080FD09C02197A0F7D12C8D2DCDB7DEB751
:101A3000E7E00C948D2FB7018C2F0E94DC0C0E94E4
:101A40000E08019779F3F1CFCF93DF93D82FC92FE9
:101A50000E94F90C6D2F7C2F0E94DC0C0E940E0856
:101A6000DF91CF910895FC0184818823B1F08781B3
:101A700090850097A1F00E940E08282F92959F70E4
:101A80009630B9F088F4925F9F70923030F481E024
:101A9000203FA9F058F4283E58F080E009C080812A
:101AA00091810E94240DE9CF9A5FEECF243FA9F7E0
:101AB000089581E0283E20F0213F79F7F9CF08957D
:101AC0000895A6E0B0E0E7E6FDE00C94752F9C01D8
:101AD000FC01878190850097E1F486E0DE01119694
:101AE00001900D928A95E1F7F901258189819A810A
:101AF000222399F0662389F00E94F90C182F682F91
:101B000089819A810E94BD0969817A81812F0E9411
:101B1000DC0C2696E3E00C94912F0E948909182F83
:101B2000F3CF85E290E00E94EB2F8B3F89F486E2B1
:101B300090E00E94EB2F883759F487E290E00E94F2
:101B4000EB2F91E08B3109F090E0892F817008959F
:101B500080E0FCCFAAE0B0E0E0EBFDE00C946C2F5D
:101B60000DE912E08BE8C82E82E0D82E99E1E92E2B
:101B700093E0F92E26E0922E3AE8A32E32E0B32E1F
:101B800088248394D6010D931D936D014AE050E0A3
:101B9000B701CE0101960E94DB2FF8013996DF01D3
:101BA000892D1D928A95E9F789819A81D80111962C
:101BB0009C938E938F8112968C9312978D8113969E
:101BC0008C931397888514968C9314978985159612
:101BD0008C9315978B819C8117969C938E93169767
:101BE00018961C9218978A8587FF3CC01E961C92F7
:101BF0001E921D9780FF03C0D80118968C9281FF1A
:101C000004C0F80190859260908782FF07C0D801D8
:101C100018969C911897946018969C9383FF04C023
:101C2000F80190859860908784FF07C0D8011896C6
:101C30009C911897906118969C9385FF04C0F801B9
:101C4000808580628087015F1F4FFAE0EF0EF11CF4
:101C500089E6E81683E0F80609F094CF2A96ECE0CE
:101C60000C94882FF801B686A586C4CFAAE0B0E010
:101C7000ECE3FEE00C94702FE2E6F2E088E2DF0194
:101C80001D928A95E9F7E8E1F3E08CE1DF011D920E
:101C90008A95E9F782E6C82E82E0D82E7F0101EF0F
:101CA00012E0F701D182C0824AE050E0B801CE01D3
:101CB00001960E94DB2F88E0FE013196D60101904B
:101CC0000D928A95E1F789859A85D70113969C93A1
:101CD0008E931297BAE0CB0ED11CE7E0EE0EF11C0A
:101CE000065F1F4F0931F3E01F07D9F62A96E8E097
:101CF0000C948C2F9091CF0392FB222720F9281768
:101D000079F080FB92F99093CF036091CE037091AC
:101D1000CF0384E090E00E94273082E00E94230AF3
:101D200008951F920F920FB60F9211242F933F9395
:101D30004F935F936F937F938F939F93AF93BF93D3
:101D4000EF93FF938091E10082FF09C08091E20050
:101D500082FF05C08091E1008B7F8093E10080913C
:101D6000DA0080FF24C08091D80080FF20C08091DD
:101D7000DA008E7F8093DA008091D90080FF9BC0CB
:101D800080E189BD82E189BD09B400FEFDCF81E01B
:101D90008093F5038091D003811109C00E94FB0359
:101DA0000E949C048091E20084608093E200809114
:101DB000E10080FF17C08091E20080FF13C0809196
:101DC000E2008E7F8093E2008091E2008061809348
:101DD000E2008091D80080628093D80019BC85E031
:101DE0008093F5038091E10084FF29C08091E20097
:101DF00084FF25C080E189BD82E189BD09B400FE70
:101E0000FDCF8091D8008F7D8093D8008091E10034
:101E10008F7E8093E1008091E2008F7E8093E200CC
:101E20008091E20081608093E2008091F603882334
:101E300009F447C084E08093F5038091F503809115
:101E4000E10083FF27C08091E20083FF23C08091DF
:101E5000E100877F8093E10082E08093F503109298
:101E6000F6038091E1008E7F8093E1008091E20093
:101E70008E7F8093E2008091E20080618093E20097
:101E800042E060E080E00E946A048091F000886097
:101E90008093F000FF91EF91BF91AF919F918F914F
:101EA0007F916F915F914F913F912F910F900FBE56
:101EB0000F901F90189519BC1092F5031092D00343
:101EC00076CF8091E30087FD02C081E0B4CF83E04C
:101ED000B2CF78941F921FB61F9211248F939F93B5
:101EE000AF93BF938091CA039091CB03A091CC0391
:101EF000B091CD030196A11DB11D8093CA039093AB
:101F0000CB03A093CC03B093CD03BF91AF919F912E
:101F10008F911F901FBE1F9018959C014FB7F8948A
:101F20008091CA039091CB03A091CC03B091CD03D3
:101F30004FBF821B930B08952FB7F8948091CA036B
:101F40009091CB03A091CC03B091CD032FBF089506
:101F50000E949C0F2091160230911702232B21F032
:101F6000809312029093130220911802309119026B
:101F7000232B21F08093100290931102E091C5036E
:101F8000F091C603309749F082E0809314020480F8
:101F9000F581E02D84E192E009950895662309F426
:101FA0005DC08D3C41F40E94070781958093170224
:101FB0000E94A80F08958E3C19F40E940707F6CFDF
:101FC0008F3C31F40E940707819580931602F0CF71
:101FD000803D19F40E940707F8CF893D29F40E943B
:101FE000E50680931802E4CF8A3D21F40E94E506BD
:101FF0008195F7CF8B3D31F40E94E5068195809362
:102000001902D6CF8C3D19F40E94E506F8CF9FE265
:10201000980F983070F4815D990B21E030E001C099
:10202000220F8A95EAF780911502822B8093150280
:10203000BFCF8D3D31F480910F02816080930F02FC
:10204000B7CF8E3D21F480910F028260F7CF8F3D94
:1020500009F0AECF80910F028460F0CF409116025C
:102060008D3C59F48091170287FF0DC01092170222
:1020700041110BC010920D0208C08E3C81F480917A
:10208000170218169CF3442381F080911802909156
:102090001902892B09F08CCF10920E0289CF8F3C48
:1020A00049F447FFF0CF1092160280911702811178
:1020B000ECCFE0CF803D19F41416ACF3E4CF90914F
:1020C0001802893D29F41916F4F610921802DBCF94
:1020D0008A3D19F497FFD7CFF8CF909119028B3D25
:1020E00029F497FFD0CF10921902CDCF8C3D19F46F
:1020F0001916CCF3C8CF9FE2980F983090F4815D09
:10210000990B21E030E0B90102C0660F771F8A9574
:10211000E2F7CB01809590911502892380931502F7
:10212000B2CF8D3D31F480910F028E7F80930F02EC
:10213000AACF8E3D21F480910F028D7FF7CF8F3D86
:1021400009F0A1CF80910F028B7FF0CFA1E0B0E02A
:10215000ECEAF0E10C94662F8091DA01882371F0AB
:102160008091D8019091D9010196811520E29207C2
:1021700008F0E2C09093D9018093D8018FED682ECA
:1021800081E0782ECC24C394D12CE12CFF24FA9446
:10219000FC0CF301419051903F01129212925F01A9
:1021A000F4E0CF1609F4DFC023E02F1508F4CFC008
:1021B00081E0F81609F4D1C092E0F91609F4D0C014
:1021C000849A8C988091DA01882309F4D2C08FE830
:1021D00091E00197F1F700C000008091DA01912CA5
:1021E000812C811126C09FEF998304E610E021E045
:1021F00030E0AE014F5F5F4F62E180E40E94032F49
:102200009C0191E0232B09F490E08091DA01890F81
:102210008093DA01898180950E945A0A982F8695C9
:102220008C779370892B982E9594882E8794882488
:1022300087944B99B1C000E410E04A99B0C0A0E285
:10224000B0E04C99AFC0E0E1F0E03699AEC068E094
:1022500070E04F99ADC044E050E06699ACC022E018
:1022600030E083B182958F7091E0892780FB222432
:1022700020F8312CC10188299929802B912B8A2B98
:102280009B2BE82BF92B6E2B7F2B462B572B242BCC
:10229000352BF50131832083F3E0FF1609F49DC04F
:1022A000FF1508F48BC021E0F21609F48EC082E01D
:1022B000F81609F48EC084988C988C9881E0F5010A
:1022C000208131812415350509F480E0E82AFFEFEB
:1022D000CF1ADF0A27E0C216D10409F057CFEE204B
:1022E00009F483C081E08093DD010E949C0F9093EC
:1022F000DC018093DB018091DB019091DC010E9485
:102300008D0F059708F475C04CE050E06FED71E05B
:102310008FEF91E00E94C72F892B09F46FC08CE0EA
:10232000EFEDF1E0AFEFB1E001900D928A95E1F7AA
:1023300081E01092DD015EC01092D9011092D801A7
:102340001092DA010E94D30A0E94E30A17CFE4E058
:10235000FE120CC0219A299835CF859A8D9832CFDC
:10236000869A8E982FCF879A8F982CCF229A2A9868
:1023700029CF61E070E00C2C01C0660F0A94EAF7E7
:10238000609581E00E94AB0A91E098278091DA0184
:10239000890F8093DA0121CF10E000E04ECFB0E04A
:1023A000A0E04FCFF0E0E0E050CF70E060E051CF30
:1023B00050E040E052CF30E020E053CF94E0F912FB
:1023C00010C021982998299879CF85988D988D9853
:1023D00075CF86988E988E9871CF87988F988F98A2
:1023E0006DCF22982A982A9869CF8091DD018111BA
:1023F00082CF80E02196E2E10C94822F80E099CF99
:102400009091D501292F282361F08095892380930D
:10241000D501882339F00E949C0F8093D3019093BB
:10242000D401089580E090E0F8CFCF938091C0036D
:102430009091BF03892B809362018091D5018823FD
:1024400039F10E949C0F2091D3013091D401821B5D
:10245000930B8838934110F00E9426098091620105
:102460009091D501892B8093620180910C01882382
:1024700009F447C08091CE0387FF43C08EE1E4E6B4
:10248000F1E090E0815008F03EC091110E942609D1
:10249000C091B503C09580916201C8238091B603B5
:1024A000C82BC093620140E250E063EB71E082E62A
:1024B00091E00E94C72F892B11F180E2E2E6F1E062
:1024C000A3EBB1E001900D928A95E1F7E091C5038D
:1024D000F091C603309799F080910C01882349F060
:1024E0008091CE0387FF05C0C093630186E080938F
:1024F00062010280F381E02D82E691E00995CF919F
:10250000089586E0BCCF2191222309F4BBCF9F5FC1
:10251000B9CFCF93DF93EC01EA85FB85309719F0B3
:102520006C857D8509958B810E9431098C810E9483
:1025300039090E94151286E0FE0111928A95E9F789
:10254000DF91CF910895CF93DF93EC018D8181FDD1
:1025500018C082608D838091BF039B81892B8093FB
:10256000BF038091C0039C81892B8093C0030E948C
:102570001512E885F985309721F06C857D85CE01AF
:1025800009951092C2031092C1038D8180FD03C092
:10259000CE010E948912DF91CF9108951092C0035D
:1025A00080910C01E4E6F1E0882329F18091CE03CB
:1025B00087FF21C08EE1DF011D928A95E9F790E047
:1025C00080E00E94DE0590E080E00E94B805109255
:1025D000BF030E94151286E0E4E1F2E0DF011D92E4
:1025E0008A95E9F710920D0210920E0210920F02D6
:1025F0000E94A80F089586E0DECFAAE2B0E0E3E0F3
:10260000F3E10C94752F87EF93E0FC010196209184
:10261000F100208323E08F3F9207B9F78091F80300
:10262000893009F456C0C8F4823009F4B3C083304D
:1026300009F482C0813071F18091E80083FF92C279
:102640008091F7039091F8039A3008F08BC2E92F3C
:10265000F0E0E95BFF4C0C94B12F8A3009F489C09B
:102660008B3051F78091F703813231F78091FB0372
:102670009091FC03892B01F78091E800877F80937C
:10268000E8000E944B048091F90380930C010E94A2
:10269000CE12D2CF8091F703813A71F68091E80093
:1026A000877F8093E8008091FB039091FC03892B46
:1026B00061F460E283ED93E070E00E94F7048091A2
:1026C000E8008B778093E800B7CF60E090E080E08F
:1026D000F3CF8091F703813209F0AECF8091FB03F5
:1026E0009091FC038D7F892B09F0A6CF8091E800A3
:1026F000877F8093E8008091E80082FF18C0909166
:10270000F3008091F200029731F48091F100813062
:1027100011F0863021F48091F1008093D2038091F2
:10272000E8008B778093E8000E944B0485CF80916E
:10273000F5038111E0CF80CF8091F703813A09F052
:102740007BCF8091FB039091FC03892B09F074CF20
:102750008091E800877F8093E8008091E80080FF07
:10276000FCCF80910C018093F1008091E8008E777E
:10277000D9CF8091F703813209F05ECF8091E800D4
:10278000877F8093E8000E944B048091FA03809336
:10279000D10352CF8091F703813A09F04DCF809158
:1027A000E800877F8093E8008091E80080FFFCCFFD
:1027B0008091D103D8CF803899F0823809F0D2C106
:1027C0008091FB038F70873008F0CCC18093E900C3
:1027D0008091EB0085FB882780F91092E90006C004
:1027E0008091F3039091F403911182609091E8003D
:1027F000977F9093E8008093F1001092F100809110
:10280000E8008E77ABC1882309F499C1823009F0C2
:10281000A9C18091F90381119CC18091FB038F7044
:102820002FEF280F263008F09DC18093E9002091FA
:10283000EB0020FF8EC1933031F48091EB00806279
:102840008093EB0086C19091EB0090619093EB0038
:1028500021E030E001C0220F8A95EAF72093EA00D8
:102860001092EA008091EB008860EACF81117AC172
:102870001091F9031F778091E3008078812B80937A
:10288000E3008091E800877F8093E8000E944B047A
:102890008091E80080FFFCCF8091E3008068809306
:1028A000E30082E0111183E08093F5035BC180585F
:1028B000823008F057C14091F9035091FA034C3D22
:1028C00083E05807A1F583E08A838AE289834FB7C2
:1028D000F894DE01139620E03EE051E2E32FF0E0B1
:1028E00050935700E49120FF03C0E295EF703F5FE3
:1028F000EF708E2F90E0EA30C0F0C7968D939D93D5
:102900002F5F243159F74FBF8091E800877F809374
:10291000E8006AE270E0CE0101960E94F70480911F
:10292000E8008B778093E8001DC1C096E7CF8091C7
:10293000FB039091FC03252F33272330310509F445
:102940004AC078F52130310509F486C08BE590E066
:10295000E4E1F6E02230310509F004C12091E800FD
:10296000277F2093E8002091FD033091FE0382171A
:10297000930708F49C0140E02115310509F071C06E
:1029800041116FC08091E80082FDC9CF8091F503AD
:10299000882329F2853019F28091E80083FFF2CF75
:1029A000BECF2132310509F448C02232310509F089
:1029B000D9C08330910508F0D5C0FC01EE0FFF1F90
:1029C000ED5AFE4F0190F081E02D805B9E4FDC01BF
:1029D0008C9190E026C0CA019927423031F18330B2
:1029E000910568F40097B1F0019709F0BBC0E3EBE3
:1029F000F6E0E4918E2F90E0E3EBF6E012C003974F
:102A000009F0B0C0E1E8F6E0E4918E2F90E0E1E853
:102A1000F6E007C0E7ECF6E0E4918E2F90E0E7ECFB
:102A2000F6E0009709F49EC099CFEFE9F6E0E49153
:102A30008E2F90E0EFE9F6E0F4CF8330910508F0B7
:102A400091C0880F991FFC01E75AFE4F0190F08159
:102A5000E02D89E090E082CF82E190E0EFE6F6E0C1
:102A60007DCF8091F503882309F459CF853009F48F
:102A700056CF8091E80083FD52CF8091E80082FD1F
:102A800081CF8091E80080FF77CF9091F300809113
:102A9000F2002115310519F08830910550F041E020
:102AA000089709F040E08091E8008E778093E80075
:102AB00063CF44914093F100319621503109019642
:102AC000E8CF803809F04EC08091E800877F80937E
:102AD000E8008091F6038093F10091CE811142C00D
:102AE0001091F9031230F0F58091E800877F809310
:102AF000E8001093F6030E944B04112311F084E0C8
:102B000005C08091E30087FDFACF81E08093F50353
:102B100042E061EC81E00E946A0442E261EC84E000
:102B20000E946A0442E261EC82E00E946A0442E28E
:102B300060EC83E00E946A048091F50313C08091E9
:102B4000F903813079F481E0933009F080E08093DB
:102B5000F4031092E9008091E800877F8093E800F9
:102B60000E944B048091E80083FF0AC08091E80036
:102B7000877F8093E8008091EB0080628093EB0078
:102B8000AA96E3E00C94912F1F920F920FB60F922A
:102B900011242F933F934F935F936F937F938F9362
:102BA0009F93AF93BF93CF93DF93EF93FF93D09116
:102BB000E900DF708091EC00C82FC17080FDC0E893
:102BC0001092E9008091F000877F8093F000789464
:102BD0000E94FD121092E9008091F00088608093BD
:102BE000F000CD2BCF70C093E900FF91EF91DF9102
:102BF000CF91BF91AF919F918F917F916F915F9195
:102C00004F913F912F910F900FBE0F901F901895ED
:102C10000E94CE122FEF84E39CE021508040904030
:102C2000E1F700C0000088E19AE00FB6F894A8959B
:102C3000809360000FBE90936000FFCF882321F047
:102C40000E9431090E9415120895882339F090914D
:102C5000BF03892B8093BF030E9415120895882318
:102C600021F00E9439090E9415120895882339F035
:102C70009091C003892B8093C0030E941512089580
:102C8000882381F19CEF980F913A28F40E94520911
:102C90000E941512089590E2980F983050F48770B2
:102CA00091E001C0990F8A95EAF7892F0E943909AE
:102CB000EFCF9BE5980F933028F490E080E00E94DE
:102CC000DE05089598E5980F9B3128F490E080E0A8
:102CD0000E94B805089593E3980F933118F460E0CB
:102CE0000E94CE0F0895FF920F931F93CF93DF930F
:102CF000F82E0091BA031091BB030115110509F4D8
:102D000049C01092B9031092B8031092B503109203
:102D1000B603D8011696CD91DC91CE019A95811516
:102D20009F4108F4D07ED1E0C11101C0D0E0D801AC
:102D30001996ED91FC911A97309731F01B966D9191
:102D40007C9180E00995D823DD2339F08CEF8C0F3E
:102D5000813A30F58C2F0E945209FF2099F0E091C2
:102D6000BA03F091BB03808584FD0CC08091B7034A
:102D7000882341F0808191819C01215031092F33BA
:102D80003E47A0F00E9415121092BB031092BA03A6
:102D90001092B703C801CDB7DEB7E5E00C948F2FD2
:102DA0000E9415128C2F0E944016D7CF0E94110648
:102DB000E9CFCF93C82F8823C1F18CEF8C0F813AD4
:102DC000B0F580910C01882301F18091CE0387FF3B
:102DD0001CC0EC2FE695E695E695F0E0EE59FE4F27
:102DE000828190E04C2F477021E030E002C0220F3A
:102DF000331F4A95E2F782239323892B79F08C2F96
:102E00000E9452090E94151209C0E4E6F1E0819186
:102E1000C817A9F321E0EA36F207C9F76C2F82E65A
:102E200091E00E9482050E941512CF91089580E2E0
:102E30008C0F883068F4C77021E030E001C0220FA9
:102E4000CA95EAF78091C003822B8093C003EBCF31
:102E50008BE58C0F833038F42C2F2452330BC901AF
:102E60000E94DE05E2CFE8E5EC0FEB3150F4F0E034
:102E7000EE0FFF1FE65EFE4F808191810E94B80534
:102E8000D4CF83E38C0F833180F661E08C2F0E94D6
:102E9000CE0FCBCF0F931F93CF93C82F10E000E03E
:102EA000893311F400E510E08C2F0E94D91601152A
:102EB000110539F48C2F0E944016CF911F910F916C
:102EC00008958FE99FE00197F1F700C000000150DD
:102ED0001109EDCFB0E0A0E0E0E7F7E10C946E2F30
:102EE000EC018AE0A82E2881222309F48FC021302A
:102EF000C9F599818A81913021F422960E944A175E
:102F000005C0923029F422960E94D9162196EBCF63
:102F1000933021F422960E944016F8CF943011F09D
:102F20002196F4CF229630E020E0AE014F5F5F4F54
:102F30008053990B8A30910550F02150310930F3BC
:102F40008FE99FE00197F1F700C00000F6CFA29E45
:102F5000B001A39E700D11249C01260F371F89819B
:102F6000EA01E3CFE22FF0E0E550F94FB490822F71
:102F700086958695869590E0FC01E551F94FE490A1
:102F80002770F12C022E02C0F594E7940A94E2F720
:102F900031E0E322FF24FC01E552F94FC490D12C2B
:102FA000022E02C0D594C7940A94E2F731E0C322FE
:102FB000DD24FC01E553F94F049110E002C01595A2
:102FC00007952A95E2F701701127E114F10419F031
:102FD00081EE0E94D916C114D10419F086EE0E9428
:102FE000D9168B2D0E944A17C114D10419F086EE10
:102FF0000E944016E114F10419F081EE0E9440167F
:103000000115110509F482CF8CE278CFCDB7DEB778
:10301000EAE00C948A2FB0E0A0E0E1E1F8E10C9442
:10302000702FD62E172FC42FC22EFC018581882326
:10303000A9F04093BE030E949C0F9093BD03809320
:10304000BC03C77081E001C0880FCA95EAF70E94EF
:103050003616CDB7DEB7E8E00C948C2FD091BE03C6
:10306000D41335C08091BC039091BD030E948D0F95
:103070007C018D2D912F0E94900CE816F90638F5F1
:10308000C0E2CC0DDC15A1F0D77011E0812F01C09A
:10309000880FDA95EAF70E942F16C83048F48C2D75
:1030A000877001C0110F8A95EAF7812F0E943616AA
:1030B000802F0E944A17C83060F62C2D277081E0BF
:1030C00001C0880F2A95EAF70E942F16C2CFC77059
:1030D00081E001C0880FCA95EAF7F6CFCF93DF935E
:1030E000EC010E946E0A9E01205E310928303105F4
:1030F00010F0209741F40E9436168C2F0E94D916AA
:10310000DF91CF9108950E942516F7CF9091CF03BC
:1031100092FF10C098E0899F90011124622B609368
:10312000B2010E943A0A0E949C0F9093B1018093D1
:10313000B00108950E943A0A0895AEE1B0E0E3EAD2
:10314000F8E10C94662F4B8B5C8B6D8B7E8B8F8B99
:10315000988F91111092BF03188A198A1A8A86E0F3
:10316000FE017396DE011A9601900D928A95E1F7A1
:103170008091CF0382FF1CC00E949C0F2091B00160
:103180003091B101821B930B8838934120F08091DC
:10319000B20182FFE6C10E949C0F2091D3013091C1
:1031A000D401821B930B8838934110F00E942609AA
:1031B0008E85882389F061E0CE010A960E94610D18
:1031C0006C018F8540E5C4164CE7D40689F488234A
:1031D00029F181E0809309010A851B852C853D85B5
:1031E0004E855F85688979898A890E945125C7C083
:1031F00061E5C6166CE7D60629F4882379F00E94AB
:103200000626EACF72E5C7167CE7D70639F488238D
:1032100029F0809109018111F2CFDBCF88E1E82EFE
:1032200083E0F82E512CB12CA12C88248394912C6E
:10323000CE0101969A8F898F44244394F7014081EF
:10324000518166246A94762C20E0822F90E0FC0164
:10325000EE0FFF1FE40FF51F60817181611571058D
:1032600031F0C616D70609F43C012F5FEECF10E00F
:10327000FFEF6F167F0609F443C0F70144811091F8
:103280000901812F411180E0182F1170F70135805D
:1032900086819F85992309F4F3C0112309F4F0C0B6
:1032A000311014C0A401062C01C0440F0A94EAF79F
:1032B000842B86838091150390911603C29730F476
:1032C00062E370E07093160360931503C40102C0BB
:1032D000880F991F2A95E2F70197F7012681281791
:1032E000190671F48091A7039091A803009709F43F
:1032F0004AC00E948D0FC39708F445C0F70144826D
:10330000512AFFEFAF1ABF0A27E0E20EF11C34E0AA
:10331000A316B10409F092CF8F85882309F40DC15B
:10332000552009F40AC10E949C0F9093A803809332
:10333000A70380913403883010F591E0980F9093A3
:10334000340399E0FE013A96DE01119601900D9248
:103350009A95E1F74DE0849FC00111248B5C9C4F4E
:1033600029E0FE013196DC0101900D922A95E1F7EA
:103370002FEF3FEFFC0132872187D486C3866E96FC
:10338000E2E10C94822F8091A5035091A603982F1F
:10339000F0E0E0E0851314C09093A503EE16FF065D
:1033A00009F4AECF90E0FC01EE0FFF1FE356FC4F97
:1033B000B182A0820196837099278093A603A0CF43
:1033C000282E312CF101EE0FFF1FE356FC4F208118
:1033D0003181F7E0F29FD001F39FB00D1124A85E78
:1033E000BC4F2D913C9111973E8F2D8F40E020E0F6
:1033F00030E0E32FF0E0EE0FFF1F6D8D7E8DE60FC6
:10340000F71F6080718061147104E1F0F701019091
:10341000F081E02DFC8FEB8F20E005C0661677066B
:1034200009F4412F2F5FE22FF0E0EE0FFF1F6B8DAD
:103430007C8DE60FF71F608171816115710571F751
:103440003F5FD7CF4423C9F0F701231708F0FD01F0
:103450004482EE16FF0621F49093A503142F50CF5B
:10346000891305C0AE17BF0711F49F5F93709101D8
:103470002F5F3F4F822F83708DCFF0E0E0E0F7CFDA
:1034800090E0311020C0B40102C0660F771F2A956A
:10349000E2F79B01215031092817390731F4442301
:1034A00009F449C0C5010E948306C401062C01C06D
:1034B000880F0A94EAF7982F9095F701868189235F
:1034C0008683132D1DCFAC01062C02C05595479560
:1034D0000A94E2F79C012150310982239323892B1E
:1034E00031F540FF24C0F70182819381892BE1F0FF
:1034F000E98DFA8D27E011922A95E9F70E949C0F39
:10350000282F8B839C8334E03D83F7018281938154
:10351000782F8887998709811A813C8144E05E81F0
:103520006F81892F0E945125F7011582BECFF42F9C
:10353000F1703F2EBACF312EB8CF9091A503809174
:10354000A603981729F00E941526511018CF44CED3
:103550000E94BD251092A8031092A7030E94AF06F7
:10356000F4CF82E00E94230A16CEA6E0B0E0EBEB97
:10357000FAE10C94742F8C0190931B0280931A0231
:10358000011580E21807C0F4802F0E944016C80180
:103590000E946E0A9801205E31092830310518F02A
:1035A0000115110531F40E942F162696E4E00C94C3
:1035B000902F0E941E16F9CF80EF89838A830E9484
:1035C0009C0F8160682F9C838B8349815A817C8109
:1035D00081E090E00E949D18E8CF0F931F93CF9356
:1035E000DF938C01EB0160E272E08C2F0E947C0C77
:1035F000892B71F4DD27C45EDD4F8881F8011282CA
:1036000018828330F1F048F4813059F0823081F033
:10361000DF91CF911F910F9108958430B9F08530DB
:10362000B9F78091200290912102009789F306C09A
:103630008091220290912302009799F30E94B51A7B
:10364000E7CF8091240290912502F6CF8091260247
:1036500090912702009791F720912002309121024A
:10366000809122029091230221153105F1F20097F9
:1036700029F7C901E3CFA6E0B0E0E1E4FBE10C9457
:10368000762F90931B0280931A02811520E29207F5
:1036900030F40E946E182696E2E00C94922F80EF90
:1036A00089838A830E949C0F8160682F9C838B830F
:1036B00049815A817C8181E091E00E949D18EBCF85
:1036C000CF93DF93D82FC92F0E943B1B8D2F9C2FA8
:1036D0000E94B51ADF91CF9108950F931F93CF9356
:1036E000DF938C01862F60E272E00E947C0C892BB4
:1036F000B1F4C0912002D0912102209781F0F8010D
:103700008281833051F4CE010E94601BCE010E9461
:10371000601BCE010E94601B02C08430D0F7DF9195
:10372000CF911F910F9108950F931F93CF93DF9324
:103730008C01EB0160E272E08C2F0E947C0C892BE3
:1037400009F05CC0FE01FF27D80112968C911297F8
:10375000E45EFD4F8130B9F415969C9192FF02C052
:1037600080830AC090FFFCCF82E080838091220298
:10377000909123020097B9F4809120029091210248
:103780000097E1F110C08230B9F515968C9182FD59
:1037900028C080FD0BC083E080838091240290913B
:1037A0002502009701F10E943B1B28C084E0808322
:1037B00080912602909127020097A9F7809120021C
:1037C000909121020097F9F00E94601B80912202E3
:1037D00090912302009739F7809120029091210265
:1037E000E2CF85E0808380912002909121020097B2
:1037F00029F00E94601BF0CF86E08083DF91CF919B
:103800001F910F9108958091220290912302B8CFC9
:10381000A7E0B0E0EEE0FCE10C94662F7C01DC0157
:1038200014968C91882309F463C161E0C7010E945A
:10383000610D8C01F7018581882309F18091C10315
:103840009091C2030097D9F008171907C1F0FEE064
:103850008F9FC0011124FC01E15DFD4F2081246098
:103860002083865D9D4FDC010D931C930E94A31263
:103870001092BF0361E0C7010E94610D8C01F70146
:103880008581882309F4BAC0C8019757803891050B
:1038900008F0E6C0D02EFFE0F01708F419C18FEF52
:1038A00093E00E94EB2F811113C109E613E0D110C0
:1038B0003EC080910D0190910E01A0910F01B09139
:1038C000100189839A83AB83BC8399249A946801FD
:1038D0003FEFC31AD30AC8010E94EB2F89831A82D3
:1038E000882309F4F5C0813009F082C0580182E0D4
:1038F000A80EB11CC6010E94EB2FD82E8A83882304
:1039000009F4E6C0C5010E94EB2FC82E8FEF8D0D84
:103910008330D8F4580193E0A90EB11CCB82CC209F
:1039200021F0CE0101960E946A178501D0CF0115C2
:1039300024E0120709F4CCC0C8010E94EB2F8111CA
:1039400001C0DA940F5F1F4FB2CF8BEF8D0D833024
:1039500030F5C8010396CB825C01CC2031F35801CD
:10396000A4E0AA0EB11C0E94EB2F8C838823E9F2FD
:103970008B819C818130BFEF9B0710F0982F8827A7
:10398000E6E0DE1631F0F7E0DF1631F00E94601B52
:10399000CCCF0E943B1BC9CF0E94B51AC6CF24E0F2
:1039A000D212C3CF580134E0A30EB11CC801039654
:1039B0000E94EB2F282FCC2009F48AC0882309F419
:1039C00087C02150330B929EA001939E500D11246D
:1039D000AC2DA150BB0BCD01840F951F019708F4AE
:1039E000A4CFEFE9FFE03197F1F700C00000F6CF78
:1039F000CE0101960E946A17560197CF680127E50C
:103A0000D21A3FEFC316D10409F050F560E272E01C
:103A10008C2D0E947C0C892B19F58EE08C9DF00179
:103A20008D9DF00D1124E65DFD4F82818130A1F561
:103A30008091200290912102892B91F080912202A5
:103A400090912302892B61F08091240290912502AC
:103A50002091260230912702822B932B892B21F172
:103A6000D70115963C90332009F446C00E35BCE7CB
:103A70001B0759F10F35ECE71E0741F00D35FCE748
:103A80001F07D1F5809100018823F9F01092000101
:103A900080E00E9473161CC0823011F780912402CE
:103AA00090912502892BE1F22EE02C9DC0012D9DE5
:103AB000900D1124FC01E15DFD4F20812E7F2083BC
:103AC000865D9D4F0E94A312CBCF81E080930001C1
:103AD0008091B201877061F0D70115968C9188238F
:103AE00039F08091CF0382FF03C082E00E94230A55
:103AF0002796E2E10C94822F80910001882309F43B
:103B00008FC4480120EE821A91082090D50180913F
:103B1000AF01282A8091C003282A38E08316910437
:103B200008F086C098012770332781E090E001C03B
:103B3000880F2A95EAF7332009F477C0282AD7019D
:103B40008D919C910E94890921E030E0390102C0E9
:103B5000660C771C8A95E2F7E091BA03F091BB03FB
:103B6000FF83EE8340908201509083011D822D815E
:103B7000E22FF0E0EE0FFF1FE557FD4FC080D18030
:103B8000C114D10409F4B0C4211005C0D6011296A5
:103B90008C91811189C0F601838190E08621972163
:103BA000892B09F481C08085982F977009F487E0EC
:103BB000F8E08F16910408F055C0332009F44EC088
:103BC00086958170882309F46FC0D601AD90BC90B2
:103BD0000A151B0519F4332009F466C0EE81FF8134
:103BE000CE16DF0609F460C0D6011D96ED91FC915A
:103BF000309721F08081882309F456C0622DC601D8
:103C00000E946306882309F44FC00A151B0509F0BA
:103C1000CAC40115110509F4CBC43110CBC4A414D6
:103C2000B50409F041C0312CC5C48095282287CF46
:103C3000332009F442C410938301009382010E944F
:103C400065056093B1037093B2038093B3039093BF
:103C5000B4031092B9031092B80371CF82FB882786
:103C600080F9B0CF332001F18170ACCF0E944016B3
:103C7000BFC40497813A910558F46A2D82E691E019
:103C80000E948205332009F4CBC30E94151220CF75
:103C90000E9415128FE39CE90197F1F700C0000024
:103CA0008A2D0E94D916EECF9D819F5F9D835FCFA5
:103CB000FC01208131810217130709F0AAC33110DA
:103CC000AAC31092B70380E00E947316A9C3902F75
:103CD000812FEEC3F901858181FF1AC4C9010E94B9
:103CE000891216C406E221EE41EE6AE17CE7C701C3
:103CF0000E940B18EDCE07E225EE45EE6BE17CE766
:103D0000F6CF06E221EE40EE68E17CE7F0CF07E275
:103D100025EE44EE69E17CE7EACF06E221EE42EED1
:103D20006CE17CE7E4CF07E225EE46EE6DE17CE74F
:103D3000DECF08E221E045EE6EE17CE7D8CF80914E
:103D4000CE0381608093CE036091CE037091CF0348
:103D500084E090E00E9427300E94CE12B9CE80917C
:103D6000CF0388608093CF03EFCF8091CE03826032
:103D7000E9CF8091CE038460E5CF8091CE03886047
:103D8000E1CF8091CF038160EDCF8091CF0382603E
:103D9000E9CF8091CE038061D5CF8091CE03806240
:103DA000D1CF8091CE038064CDCF0E94CE1280917E
:103DB000CE038068C7CF8091CE038C60C3CF809143
:103DC000CF038360CFCF8091CE038E7FBBCF809116
:103DD000CF03877FC7CF8091CE038D7FB3CF8091F4
:103DE000CE038B7FAFCF8091CE03877FABCF809107
:103DF000CF038E7FB7CF8091CF038D7FB3CF8091DC
:103E0000CE038F7E9FCF8091CE038F7D9BCF8091FD
:103E1000CE038F7B97CF0E94CE128091CE038F77F7
:103E200091CF8091CE03837F8DCF8091CF038C7F04
:103E300099CF8091CE0382FB992790F921E09227B8
:103E400090FB82F990FB83F97DCF8091CF03982F6F
:103E5000909591708E7F892B90FB81F983CF909103
:103E6000CE03892F8F7B96FF80646CCF0E94CE1289
:103E70009091CE03892F97FB87F9805863CF61E03B
:103E80008EE090E00E9409305FCF60E0F9CF909122
:103E9000CE03892F8F7E94FF806154CF9091CE0303
:103EA000892F8E7F90FF81604DCF9091CF03892F16
:103EB000877F93FF886056CF85E372C30837BCE7DE
:103EC0001B0709F456C08823A9F00A35ECE71E0742
:103ED00009F47CC008F053C001302CE7120709F444
:103EE00073C003303CE7130709F468C001151C4791
:103EF00009F457C0F70187819085009709F46AC0DB
:103F00000E940E088C01F701C580B680B2942FE0A4
:103F1000B2228091B2018770F1F0AC2CCC20E1F09C
:103F2000812F807F803451F080E2800F883098F0BC
:103F3000B11004C0812F807E803269F08091CF0360
:103F400082FF09C082E00E94230A8091B20187703B
:103F5000AA24A3948111A12C812F82958F70882E81
:103F6000912C8C3008F0AAC0F401EF5AFF4C0C944D
:103F7000B12F882311F082E07EC382E073C30B353A
:103F80009CE7190729F10C351C4709F0B3CF809144
:103F9000CF0382FB882780F991E089270E947A0E5F
:103FA000A9CF0E94CE12BFEFE4E3FCE0B150E040A5
:103FB000F040E1F700C000000E9454056FEF7FEF72
:103FC00090E080E00E9427300E94081681E0E6CF52
:103FD00080E0E4CF8581C080D180882369F0C6016C
:103FE0000E94F90C182F682FC6010E94BD09B60166
:103FF000812F0E94DC0C84CFC6010E948909182FF2
:10400000F6CFF12FFF70DF2E107F19F0D29490EFD2
:10401000D922CC20B9F0DD2069F080E2800F883011
:1040200010F0011109C08091C003D82AD092C003BA
:104030000E941512802F40C08091BF03D82AD092D1
:10404000BF03F6CF802F0E944016DD20B9F180E239
:10405000800F883010F0011104C08D2D0E943909A5
:1040600003C08D2D0E9431090E94151227C0212FF7
:104070002F70D22E107F103219F0D29480EFD822F8
:10408000002351F0013009F48BC0CC2009F497C013
:10409000BB2009F445C0CECF8091CF0382FD3CC048
:1040A000CC20A1F1DD2039F08091C003D82AD09234
:1040B000C0030E94151280E00E94D91628E0821ADF
:1040C000910834E08316910420F40E9404060E94B3
:1040D000490AAA20B1F08091B20180FD12C0D70137
:1040E00015961C928695869586950E943A0AC70178
:1040F0000E94081C8091B2018695869586950E9443
:10410000160A60E0C7010E94610DF2CC80E00E94B7
:104110004016DD2099F2A1CFCC2069F1B11004C086
:104120008D2D0E943616CACF31E0B31210C0109107
:10413000D5018D2D8123D81609F20E949C0F9093F2
:10414000D4018093D301D12AD092D501B7CF85E095
:10415000B812B4CF8D2D0E9436168D2D0E940012FC
:104160008091AF019D2D9823D91609F4A7CFD82AA5
:10417000D092AF01A3CFB1100AC08D2D0E942F168F
:104180008D2D0E9400128D2D0E94480997CF91E03D
:10419000B91294CF8091C0038D2109F48FCFEDCF58
:1041A000CC2029F0A5E0AB1508F488CFB9CFB4E056
:1041B000BB1508F483CF8D2D0E942F167FCFBB2017
:1041C000D1F3093349F4EFEFF7EE23E0E150F0408B
:1041D0002040E1F700C00000802F0E9440166ECF03
:1041E000812F86958695837061F0813009F066CFC6
:1041F000C8019370C11002C080E090E00E94B80531
:104200005DCFC8019370C11002C080E090E00E94B1
:10421000DE0554CF6C2D802F0E94CE0F4FCF812F03
:10422000837091F5C1104ACF402F42954695477053
:10423000440F440F802F8F70042E01C0880F0A9402
:10424000EAF7202F207104FF07C02FE030E001C003
:10425000220F4A95EAF7209516951695137012309D
:1042600071F0133051F03091EB01113029F0822BB5
:1042700083230E94460A22CF832B822BFACF282B3E
:104280008091EB018227F5CF8695CC2011F0812F0C
:104290008170882309F412CF402F429546954770CC
:1042A000440F440F802F8F70042E01C0880F0A9492
:1042B000EAF7202F207104FF07C02FE030E001C093
:1042C000220F4A95EAF7209516951695137012302D
:1042D00071F0133051F03091EC01113029F0822B44
:1042E00083230E94F309EACE832B822BFACF282B5B
:1042F0008091EC018227F5CF1F70CC2029F0812F0F
:104300000E943A0A802F0DCF802F0E942F16812FF6
:104310000E94160AD3CE023F89F160F4003FB9F043
:10432000013F81F0CC2009F464C0B11083CE812F0D
:104330008F7128C0033F49F1043FA1F78091CF035B
:1043400082FD2FC0812F8F71CC2011F31BC0CC2098
:1043500081F034E03B1508F4B1CE1F7181E090E0AC
:10436000012E01C0880F0A94EAF79091EC01892789
:10437000B8CF85E08B1508F4A1CEEFCF812F8F71D8
:10438000C110C6CF0E943A0A99CE80E0CC2009F431
:10439000A8CF1F7181E0012E01C0880F0A94EAF7AF
:1043A000A0CFCC20C9F08091B2018770843041F455
:1043B0000E944109812F8F710E94160AA12C7ECE86
:1043C00094E09B15D8F31F71812F0E943A0A63E095
:1043D000812F0E948618F2CFA4E0AB1530F40E9422
:1043E000410964E0812F8F71F4CF81E00E94230A9C
:1043F000E5CFBB2059F0093309F0EECEBFEFE7EE71
:10440000F3E0B150E040F040E1F7E4CE812F8F714E
:104410007FCF332029F0DC0118968C9185FF53CC97
:10442000C80197558F3F910511F008F090C05801D1
:10443000BB24BEE00B9FF00111249F01265D3D4F80
:104440006901D70115968C91E15DFD4F908180FB4C
:1044500090F99083882309F43DCC0E949C0F90939F
:10446000FB018093FA01F60182818F5F8283809144
:10447000BF039091C003892B83838091D5018483EE
:104480000680F781E02D309731F0D6011C966D91B2
:104490007C91C60109958EE08A9DF0018B9DF00DFF
:1044A0001124E65DFD4F858181FF11CC90E080E015
:1044B0009093C1038093C2032BC08091820190919D
:1044C00083010817190781F4109283011092820169
:1044D0001092B1031092B2031092B3031092B4037E
:1044E0001092B9031092B8038091BA039091BB0364
:1044F000009709F495CFA8E08A16910408F0D8CB6C
:10450000622D0E946306811103C081E00E94731630
:10451000D70115968C918823C9F11092BE0398019A
:10452000305723323105E8F484E090E00E94F32F05
:104530009093CF038093CE03F801E150F047E2322D
:10454000F10508F0FCCBE35AFF4C0C94B12FF801B5
:10455000E851FC47E730F105D8F6E158FF4C0C94E0
:10456000B12F0631FCE71F0709F07FC08091C0031F
:104570008A7A91E009F490E09093840169E28111D4
:1045800065E382E691E00E9482057FCB06312CE74D
:10459000120709F061C08091840181118DCC89E2FC
:1045A0000E94520972CBA114B10409F038CB312C0E
:1045B000B12CA12C80E00E947316D092BB03C09254
:1045C000BA0381E08093B703F60185818093B50338
:1045D00031100EC0AB2861F0F601808191819C0101
:1045E00024503109213A310508F040CB0E9452098C
:1045F000D6011696AD90BC90C5019A9581159F4144
:1046000010F4E0EEBE2277247394C50101978F3336
:104610009E4708F0712CD6011996ED91FC911A97DE
:10462000309731F01B966D917C9181E0099578224D
:10463000772079F0F601868197810E946E0A809337
:10464000B603C501F8E08F16910408F012CB0E9462
:1046500011060E94151216CB07373CE7130709F025
:104660002DCC81E00E94160A08C007379CE7190785
:1046700009F024CC81E00E943A0A43E062E081E044
:104680000E94F60925CAB0E0A0E0E9E4F3E20C9448
:10469000712F8091AC01807F09F051C08091AB01F6
:1046A000882309F44CC0E091480489E0D82E809119
:1046B000FF038E1709F443C00E2F10E0ED9DF001AB
:1046C0001124E050FC4F84818823F1F1D09EE00159
:1046D000D19ED00D1124FE01E050FC4F91818091BC
:1046E000A701981331C090818091A60198132CC026
:1046F0008581811129C0E280F3808091A801909189
:10470000A901E81AF90A60E086EA91E00E94610DC9
:104710000E94900CE816F906B8F48091AC018F70F5
:1047200080618093AC01CA5FDB4F88818F708061AC
:10473000888386EA91E00E94081C0E947F09CDB719
:10474000DEB7E7E00C948D2FF8013196E770AFCF1C
:10475000AFE0B0E0EEEAF3E20C94692F8C0186E062
:10476000F801DE011A9601900D928A95E1F7F801A1
:10477000F480E58086EA882E81E0982E8091AA0157
:1047800081112AC0F11003C0FF24F3941CC0EE2055
:10479000F9F0C8010E94330DF82E8823C9F089E092
:1047A000F801A6EAB1E001900D928A95E1F78091B7
:1047B000AA01813031F48091A6019091A7010E9455
:1047C000240D0E9443238F2D2F96EFE00C94852F0C
:1047D000C8010E94081CD8CFC280D380B090AB0122
:1047E0008091A8019091A9013601681A790ABB202D
:1047F00009F4FDC05080A18060E086EA91E00E944B
:10480000610D0E94900C6816790608F0BDC0FF206B
:1048100009F4BACF8091AC01382F307F2091A701E5
:10482000F8019181311161C0FE2C29131DC0209126
:10483000A6019081291318C04091AD015091AE019D
:10484000278130854217530779F4E11047C08F70F4
:1048500080618093AC0186EA91E00E94081C8091FF
:10486000AC01F8018683AFCFE11038C06A2D852DE9
:104870000E94DD036A2D852D0E94DD03E82E811143
:10488000A2CF5A86AB868A859B850E94240D292F4C
:1048900022952F70903458F49F70223088F099231D
:1048A00099F0F8019681907F79F4FE2C8CCF2A5FE5
:1048B0002F70223068F0C8010E94081CEB2CF5CF45
:1048C000992311F0882389F3805E883070F3F3CF49
:1048D000803F58F3815F833040F3EDCF8091AC018E
:1048E00081608093AC01F12C6ECF29131EC0209102
:1048F000A6019081291319C04091AD015091AE01DC
:10490000278130854217530781F4E1100EC086835A
:10491000C8010E94081C89E0F801A6EAB1E00190F4
:104920000D928A95E1F7FB2C4ECFC8010E94330D02
:10493000882309F44DCFEE2009F44ACF8091AC01D1
:104940008032B8F02091A6013091A7013A832983E3
:10495000DC82CB829091AA019D831E828F838091FD
:10496000AD019091AE0199878887CE0101960E9492
:10497000081C89E0F801A6EAB1E001900D928A9541
:10498000E1F70E94432300CF8091AC01982F907FE4
:1049900051F486EA91E00E94081C89E0F40111922A
:1049A0008A95E9F7A0CFFF2009F4EECE2091A70168
:1049B000F80191812913B9CF2091A6019081291383
:1049C000B4CF4091AD015091AE012781308542179F
:1049D000530709F0AACFE110A8CF8683C8010E942F
:1049E000081C89E0F40111928A95E9F79CCF60E0F8
:1049F00086EA91E00E94610D0E94900C681679068B
:104A000060F6FF2009F4C0CEFE2CEE2009F4E0CEC3
:104A10009091A701F8018181981335C09091A6016A
:104A20008081981330C02091AD013091AE01878113
:104A300090852817390739F58091A8019091A9012F
:104A4000C81AD90AF8ECCF16D104A0F48091AC01B1
:104A500080FD10C0982F907F69F0F8018683903F09
:104A600031F0982F907F905F8F70892B8683C801DB
:104A70000E94081C89E0F801A6EAB1E001900D92BD
:104A80008A95E1F7A0CEC8010E94330D811171CF44
:104A90008091AC0181608093AC01C8010E94081C28
:104AA00092CEA2E1B0E0E7E5F5E20C94742F0A871C
:104AB0001B872C873D874E875F87688B798B8A8B16
:104AC000CE010A960E94A82381110CC089E0FE0144
:104AD0003A96DE01119601900D928A95E1F74E8586
:104AE00041110BC019E0809148049091FF03891394
:104AF00032C06296E4E00C94902F2091FF0330E0E6
:104B0000C9010196877099275091480458171906D2
:104B1000A1F04D8399E0929FD001939FB00D112495
:104B2000A050BC4FFE01319601900D929A95E1F78D
:104B30008093FF030E947F09D5CF0E94CE1210926E
:104B4000FF031092480489E0E6EAF1E0DF011D92DC
:104B50008A95E9F7C7CF819FC001112480509C4FEF
:104B60000E94A823882329F28091480490E00196AE
:104B70008770992780934804B6CFEF92FF920F93E6
:104B80001F93CF93DF9380913403882361F0E091EA
:104B900017038DE0F82E80913403E81748F0109247
:104BA000340310921703CDB7DEB7E6E00C948E2FD6
:104BB000EE24E394EE0EE0921703CE2FD0E0EF9DAB
:104BC000F0011124EB5CFC4F84818823E9F087819C
:104BD0009085892B21F481859285019659F4008175
:104BE000118122813381448155816681778180855D
:104BF0000E945125FC9EF001FD9EF00D1124EB5CFE
:104C0000FC4F14821092BF03EE2DC5CF1092A80363
:104C10001092A703109209018091A6038093A50327
:104C20000E94AF060E94BD250895B0E0A0E0EBE130
:104C3000F6E20C94672FC091A50397E0992E01E04E
:104C400010E02DE0322E34E0432E55245394809111
:104C5000A6038C1309C00E94BD250E94AF06CDB7E4
:104C6000DEB7E1E10C94832FD0E0FE01EE0FFF1FD1
:104C7000E356FC4F80819181989ED001999EB00DA2
:104C80001124A85EBC4F14962C911497211159C081
:104C900060903403E5E3F3E030E020E0812C5D0137
:104CA000261508F04CC0E384F484D501CD90DC9047
:104CB0006FEF7FEF712C472D50E0DA01AA0FBB1F79
:104CC000AC0DBD1D0D90BC91A02D109731F0EA16D2
:104CD000FB0609F4BA017394EECF6F3F7607A9F192
:104CE000D80102C0AA0FBB1F6A95E2F78A2AB80151
:104CF000072C02C0660F771F0A94E2F7AB01415000
:104D000051098416150601F5329EF001339EF00D0F
:104D10001124EB5CFC4F989ED001999EB00D11249C
:104D2000A85EBC4F12962D913C9113973087278334
:104D30004482108211829287818715965C920E942C
:104D400083062196C37083CF14822F5F3F4F3D9619
:104D5000A7CFA6E0B0E0EFEAF6E20C94742F0E9431
:104D60009C0F8C018091D6019091D70180179107FB
:104D700081F019821A820E949C0F682F49815A8102
:104D8000792F80E090E00E949D181093D701009346
:104D9000D6012696E4E00C94902F1F921FB61F9226
:104DA00011248F939F93AF93BF938091C903811177
:104DB00013C08091CA039091CB03A091CC03B09112
:104DC000CD034196A11DB11D8093CA039093CB03DF
:104DD000A093CC03B093CD03BF91AF919F918F91DE
:104DE0001F901FBE1F901895CDB7DEB7AE970FB6B8
:104DF000F894DEBF0FBECDBF85B7806885BF85B78D
:104E0000806885BF84B7877F84BF0FB6F894A89564
:104E100080916000886180936000109260000FBEF6
:104E200080E890E00FB6F894809361009093610061
:104E30000FBE87E297E090936101809360010E942A
:104E4000C0060E94360E0E94AA0D0E94FB030E941B
:104E50009C048091E20084608093E20078948091C9
:104E6000F5038823A1F01091E9001F709091EC00E8
:104E7000892F817090FD80E8182B1092E9008091B5
:104E8000E80083FD0E94FD121F701093E90082E08C
:104E900084BD93E095BD9AEF97BD80936E000E940C
:104EA000910D811102C00E946C0C8091DE01811174
:104EB0000EC00E94E82D2FEF33ED40E3215030402B
:104EC0004040E1F700C0000081E08093DE012198BE
:104ED000299822982A9884988C9885988D988698F5
:104EE0008E9887988F9829982A988C988D988E9864
:104EF0008F980E94D30A6E98769A52985A9A53982D
:104F00005B9A54985C9A57985F9A3E98469A249870
:104F10002C9A0E94E30AEFEDF1E08BEE91E0AFEF07
:104F2000B1E0119211921D921D928E179F07C9F741
:104F300090E080E00E94F32F863E9E4F21F40E9475
:104F4000910D811167C066EE7EEF90E080E00E94D7
:104F5000273060E082E090E00E94093060E083E06A
:104F600090E00E9409301092EB0160E074E184E06F
:104F700090E00E94273060E086E090E00E940930D7
:104F80006FEF87E090E00E94093040E050E0BA0106
:104F900088E090E00E941B3060E084E290E00E9494
:104FA000093060E087E190E00E94093060E08CE029
:104FB00090E00E94093060E08DE090E00E940930AE
:104FC00019821A821B821C821D821E821F821886F1
:104FD00048E050E068E170E0CE0101960E94F92FB0
:104FE00040E050E0BA0180E290E00E941B3080E097
:104FF0000E94A50B0E946C0C40E050E0BA018FE0CB
:1050000090E00E941B3040E050E0BA0183E190E064
:105010000E941B3082E090E00E94EB2F8093ED0114
:1050200084E090E00E94F32F9093CF038093CE030F
:105030000E94A610BFEFE6E7F1E0B150E040F0407B
:10504000E1F700C000000E94A6108091FF0180FFE0
:1050500008C06FEF7FEF90E080E00E9427300E9451
:10506000540583E090E00E94EB2F0E94460A259AA7
:105070002D98269A2E98239A2B980E94A80A0E946F
:10508000A50A0E94A20A0E949F0A559A5D982FEFD6
:1050900030E742E0215030404040E1F700C00000DE
:1050A000259A2D9A8FEF90E7A2E081509040A04082
:1050B000E1F700C00000269A2E9ABFEFE0E7F2E089
:1050C000B150E040F040E1F700C00000239A2B9A75
:1050D0002FEF30E742E0215030404040E1F700C080
:1050E00000000E94A80A8FEF90E7A2E08150904054
:1050F000A040E1F700C000000E94A50ABFEFE0E772
:10510000F2E0B150E040F040E1F700C000000E9442
:10511000A20A2FEF30E742E0215030404040E1F753
:1051200000C000000E949F0A0E94A80A0E94A50ACF
:105130000E94A20A0E949F0A81E091E09093C60318
:105140008093C50378E1672E712C55245394442431
:1051500043948091F50300E112E1853009F492C097
:105160000E94A6106EEEA62E61E0B62E4AEF51E028
:10517000AFEFB1E0F501219131918D919D914E17E5
:105180005F0709F48BC028173907A9F35FEF852E55
:1051900051E0952E312CD4010D911D914D01F50159
:1051A000C190D1905F01C016D10659F1C026D12619
:1051B000212CEE24E394F12CC6018E219F21892B12
:1051C000B1F029823A820E949C0F9C838B834D828E
:1051D00091E098012E213F21232B09F490E09E833A
:1051E00049815A816B817C818D810E949D18239415
:1051F000EE0CFF1CFEE02F12DFCFF501329711837A
:105200000083339426E03212C6CF0E9465054CC05D
:105210008091F503843029F180E00E94490A1092C0
:10522000C90380E40FB6F894A895609260000FBEA1
:105230008093600083B7817F846083BF83B7816080
:1052400083BF7894889583B78E7F83BF0FB6F89419
:10525000A895809160008861809360001092600042
:105260000FBE8091F403882369F00E94A610EFEF2F
:10527000F1E081919191892B09F081C492E0EB30AA
:10528000F907B9F78091F503853009F4C1CF0E9481
:10529000CE120E9404060E94490A62CF28173907DD
:1052A00009F074CF0E94A9268091B8039091B903A8
:1052B000892B09F43EC04091AD035091AE0360913B
:1052C000AF037091B0032FB7F8948091CA03909107
:1052D000CB03A091CC03B091CD032FBF841B950BC2
:1052E000A60BB70B4091A9035091AA036091AB03A1
:1052F0007091AC0384179507A607B707D0F080918B
:10530000B8039091B9030E946E181092B9031092DD
:10531000B8031092AD031092AE031092AF03109237
:10532000B0031092A9031092AA031092AB0310923B
:10533000AC03E090C103F090C203E114F104E9F082
:105340008091FA019091FB010E948D0F8C01C701A1
:105350000E94900C8017910780F48091C1033EE079
:10536000839FC0011124FC01E15DFD4F208122FDDE
:1053700004C0865D9D4F0E94A3128091090188237D
:1053800001F18091A7039091A8030097D1F00E94AA
:105390008D0F20911503309116032817390788F4D3
:1053A0009091A5038091A603981709F423C10E9448
:1053B000152610921603109215031092A80310924E
:1053C000A70386E0E4E1F2E0DE01119601900D9280
:1053D0008A95E1F7109216021092170210921802A5
:1053E000109219028B819C81892B09F44AC080910B
:1053F0001202909113020E948D0F9C0180910D0268
:10540000882309F4E0C325313105D8F18F3F19F025
:105410008F5F80930D021B81112359F00E940707B3
:105420009FEF11160CF491E0899F802D1124809339
:1054300016021C81112359F00E9407079FEF1116D5
:105440000CF491E0899F802D1124809317023091F4
:1054500016023323B1F020911702222391F045EB7D
:105460003403C0011124992309F4CDC0909316028E
:1054700045EB240390011124332309F4C7C0309372
:1054800017028D819E81892B09F44AC080911002F8
:10549000909111020E948D0F9C0180910E02882331
:1054A00009F48CC321353105D8F18F3F19F08F5F96
:1054B00080930E021D81112359F00E94E5069FEF93
:1054C00011160CF491E0899F802D1124809318020D
:1054D0001E81112359F00E94E5069FEF11160CF46E
:1054E00091E0899F802D1124809319023091180238
:1054F0003323B1F020911902222391F045EB3403BC
:10550000C0011124992309F484C09093180245EB3B
:10551000240390011124332309F47EC0309319022F
:1055200046E050E0BE016F5F7F4F84E192E00E9451
:10553000C72F892B61F48091160290911702892B55
:1055400090911802892B90911902892B11F00E94D9
:10555000A80F86E0FE013196A4E1B2E001900D9221
:105560008A95E1F70E940406182F8091FC01181714
:1055700039F01093FC010E946505812F0E94490AB1
:105580008091F503843009F0E4CD83E08093E90055
:105590008091E80082FFDDCD8091E80090E085FFFA
:1055A00005C00E941A048823D1F191E08091E8009F
:1055B0008B778093E800992309F4CBCD00910B02FF
:1055C00010910C02E9810115110509F444C0EE3F68
:1055D00009F067C08A81833020F08550833008F05D
:1055E00060C0EA81EE3008F05CC0F0E0EA57FF4CA2
:1055F0000C94B12F0E94BD251092A8031092A7030E
:105600000E94AF06DECE5092160232CF50921702A1
:1056100038CF509218027BCF5092190281CF00E20E
:1056200010E0CE0101967C018091E80085FD0AC062
:105630008091E8008B778093E8000E941A04882309
:1056400099F3B3CF8091F100D7018D937D01015083
:10565000110951F7AACFE43150F4EE2359F0E1508B
:10566000E33140F4F0E0EC56FF4C0C94B12FEE3FE8
:1056700009F4B7CF8FEF898314C01A8289E08B8336
:1056800010C08A81823009F490C2833099F0813051
:1056900089F70E9465050E94B72F6B837C838D83F9
:1056A0009E8340E250E0BE016F5F7F4F82E00E9428
:1056B000FD0A4FCD80910A0190910B01892B89F34E
:1056C000DE011196EFEFF1E0808191813296129622
:1056D0009C93129713968C931397129622E0EB30BB
:1056E000F20791F7DECF8A81823021F68B819C818F
:1056F000AD81BE818BA79CA7ADA7BEA7BC01CD0184
:105700000E94B72F88E290E00E940930CACF4C81F6
:105710006B818A810E94AD0C9827892798279E83E8
:105720008D83BFCF2D813E813227232732274C81A5
:105730006B818A810E947E0BB4CF0E94BE0BB1CFD9
:1057400080E18A83AECF1A8287E999CF8C81C82EF7
:10575000D12C8D3108F0A5CF0A811B81102701279C
:105760001027DE0111967D01CA0EDB1EC801875984
:105770009C4FCE14DF0409F494CF0739110558F477
:105780000E94EB2FD70114968C930F5F1F4FFFEFF2
:10579000EF1AFF0AEBCFF7011482F7CF80910A01CD
:1057A00090910B01892B09F47CCF8C81E82EF12C90
:1057B0008D3108F076CF0A811B8110270127102731
:1057C0009E012F5F3F4F6901E00EF11EC80187590E
:1057D0009C4FE016F10609F464CF0739110528F44F
:1057E000D60114966C910E940930BFEFCB1ADB0AE8
:1057F0000F5F1F4FEBCF0E946E0B53CF84E0A1CF02
:105800008C81C82ED12C8D3108F04BCF0A811B81A1
:10581000102701271027FE0131967F01CE0EDF1ED3
:10582000C8018996EC14FD0409F43BCF003A32E03C
:10583000130758F40E94EB2FD70114968C930F5F37
:105840001F4FFFEFEF1AFF0AEBCFF7011482F7CFDC
:105850008C81E82EF12C8D3108F023CF0A811B8139
:10586000102701271027003A22E0120708F019CF6D
:1058700080EA92E0801B910B8E159F0508F411CFF2
:10588000CE0101966C01E00EF11EC80189960E153D
:105890001F0509F406CF003AA2E01A0720F4F6012A
:1058A00064810E940930FFEFCF1ADF0A0F5F1F4F9C
:1058B000ECCF88E0E1E1F1E0DE01919601900D92FC
:1058C0008A95E1F7FE013D9684E1DF011D928A95FC
:1058D000E9F786E089831A821B821C8288E074962D
:1058E000DE01159601900D928A95E1F7DACE80EBF4
:1058F00089835A821B821C82D4CE8C81682F70E0EF
:10590000762F66278B81860F972F911D092E000C0D
:10591000AA0BBB0B25E0880F991FAA1FBB1F2A9556
:10592000D1F7AC01BD01405E5F4F6F4F7F4F803EAE
:10593000EFEF9E07AE07BE0708F0B3CE803BF1E065
:105940009F07A105B10508F0ACCE413B21E052070D
:105950006105710520F040EB51E060E070E0481B0C
:10596000590BBC016C537E4FCE0101960E94BE2F95
:1059700098CE4EE150E06FEF70E0CE0103960E94AA
:10598000D42F80910A0189830A838BCE81E090E035
:1059900090930C0280930B0282E390E09093FE01BF
:1059A0008093FD010E949C0F7CCE80910A01898327
:1059B0000A838091FD0163CE40E250E06FEF70E01A
:1059C000CE0101960E94D42F6CCEEB81E73008F017
:1059D00068CEF0E0E955FF4C0C94B12FFE013496EF
:1059E0008DE1DF011D928A95E9F784E089838A833E
:1059F00088E045CE8C811AE07E01B1E2EB0EF11C0D
:105A0000F701212F11922A95E9F7B7010E947C0C2A
:105A10008983F701DE01129601900D921A95E1F744
:105A200040CE1C818AE0FE013596DE019196019000
:105A30000D928A95E1F789A19AA10E94D8069AA3AE
:105A400089A38BA19CA10E94D8069CA38BA38DA1A6
:105A50009EA10E94D8069EA38DA38FA198A50E9407
:105A6000D80698A78FA38FEF143068F43AE0139FFD
:105A7000B001112467537D4F4AE050E0CE0181967A
:105A80000E942D3080E089830E94C0060ACE6C817E
:105A90002AE0CE018196DC01E22F1D92EA95E9F71A
:105AA000643008F046C0629FB00111246F507D4FF2
:105AB0004AE050E00E94DB2F80E089838AE0FE010B
:105AC000B196DE0112960ECF1C818AE0FE0135965A
:105AD000DE01919601900D928A95E1F789A59AA52C
